{
	"day4.sol": {
		"Day4": {
			"abi": [
				{
					"inputs": [],
					"name": "C",
					"outputs": [
						{
							"internalType": "enum Day4.Color",
							"name": "",
							"type": "uint8"
						}
					],
					"stateMutability": "view",
					"type": "function"
				},
				{
					"inputs": [],
					"name": "Ericaddr",
					"outputs": [
						{
							"internalType": "address",
							"name": "",
							"type": "address"
						}
					],
					"stateMutability": "view",
					"type": "function"
				},
				{
					"inputs": [],
					"name": "I",
					"outputs": [
						{
							"internalType": "int256",
							"name": "",
							"type": "int256"
						}
					],
					"stateMutability": "view",
					"type": "function"
				},
				{
					"inputs": [],
					"name": "PayEricAddr",
					"outputs": [
						{
							"internalType": "address payable",
							"name": "",
							"type": "address"
						}
					],
					"stateMutability": "view",
					"type": "function"
				},
				{
					"inputs": [],
					"name": "U",
					"outputs": [
						{
							"internalType": "uint256",
							"name": "",
							"type": "uint256"
						}
					],
					"stateMutability": "view",
					"type": "function"
				},
				{
					"inputs": [],
					"name": "isMerge",
					"outputs": [
						{
							"internalType": "bool",
							"name": "",
							"type": "bool"
						}
					],
					"stateMutability": "view",
					"type": "function"
				}
			],
			"devdoc": {
				"kind": "dev",
				"methods": {},
				"version": 1
			},
			"evm": {
				"assembly": "    /* \"day4.sol\":60:428  contract Day4 {... */\n  mstore(0x40, 0x80)\n    /* \"day4.sol\":119:123  true */\n  0x01\n    /* \"day4.sol\":97:123  bool public isMerge = true */\n  0x00\n  dup1\n  0x0100\n  exp\n  dup2\n  sload\n  dup2\n  0xff\n  mul\n  not\n  and\n  swap1\n  dup4\n  iszero\n  iszero\n  mul\n  or\n  swap1\n  sstore\n  pop\n    /* \"day4.sol\":162:166  -123 */\n  0xffffffffffffffffffffffffffffffffffffffffffffffffffffffffffffff85\n    /* \"day4.sol\":147:166  int public I = -123 */\n  0x01\n  sstore\n    /* \"day4.sol\":189:195  999999 */\n  0x0f423f\n    /* \"day4.sol\":173:195  uint public U = 999999 */\n  0x02\n  sstore\n    /* \"day4.sol\":245:287  0x000554A2D546D8b84bf7C3FDDdbF17755298dC37 */\n  0x0554a2d546d8b84bf7c3fdddbf17755298dc37\n    /* \"day4.sol\":219:287  address public Ericaddr = 0x000554A2D546D8b84bf7C3FDDdbF17755298dC37 */\n  0x03\n  exp(0x0100, 0x00)\n  dup2\n  sload\n  dup2\n  0xffffffffffffffffffffffffffffffffffffffff\n  mul\n  not\n  and\n  swap1\n  dup4\n  0xffffffffffffffffffffffffffffffffffffffff\n  and\n  mul\n  or\n  swap1\n  sstore\n  pop\n    /* \"day4.sol\":339:347  Ericaddr */\n  0x03\n  0x00\n  swap1\n  sload\n  swap1\n  0x0100\n  exp\n  swap1\n  div\n  0xffffffffffffffffffffffffffffffffffffffff\n  and\n    /* \"day4.sol\":294:348  address payable public PayEricAddr = payable(Ericaddr) */\n  0x04\n  exp(0x0100, 0x00)\n  dup2\n  sload\n  dup2\n  0xffffffffffffffffffffffffffffffffffffffff\n  mul\n  not\n  and\n  swap1\n  dup4\n  0xffffffffffffffffffffffffffffffffffffffff\n  and\n  mul\n  or\n  swap1\n  sstore\n  pop\n    /* \"day4.sol\":411:422  Color.Green */\n  0x01\n    /* \"day4.sol\":394:422  Color public C = Color.Green */\n  0x04\n  exp(0x0100, 0x14)\n  dup2\n  sload\n  dup2\n  0xff\n  mul\n  not\n  and\n  swap1\n  dup4\n  0x01\n  dup2\n  gt\n  iszero\n  tag_1\n  jumpi\n  tag_2\n  tag_3\n  jump\t// in\ntag_2:\ntag_1:\n  mul\n  or\n  swap1\n  sstore\n  pop\n    /* \"day4.sol\":60:428  contract Day4 {... */\n  callvalue\n  dup1\n  iszero\n  tag_4\n  jumpi\n  0x00\n  dup1\n  revert\ntag_4:\n  pop\n  jump(tag_5)\n    /* \"#utility.yul\":7:187   */\ntag_3:\n    /* \"#utility.yul\":55:132   */\n  0x4e487b7100000000000000000000000000000000000000000000000000000000\n    /* \"#utility.yul\":52:53   */\n  0x00\n    /* \"#utility.yul\":45:133   */\n  mstore\n    /* \"#utility.yul\":152:156   */\n  0x21\n    /* \"#utility.yul\":149:150   */\n  0x04\n    /* \"#utility.yul\":142:157   */\n  mstore\n    /* \"#utility.yul\":176:180   */\n  0x24\n    /* \"#utility.yul\":173:174   */\n  0x00\n    /* \"#utility.yul\":166:181   */\n  revert\n    /* \"day4.sol\":60:428  contract Day4 {... */\ntag_5:\n  dataSize(sub_0)\n  dup1\n  dataOffset(sub_0)\n  0x00\n  codecopy\n  0x00\n  return\nstop\n\nsub_0: assembly {\n        /* \"day4.sol\":60:428  contract Day4 {... */\n      mstore(0x40, 0x80)\n      callvalue\n      dup1\n      iszero\n      tag_1\n      jumpi\n      0x00\n      dup1\n      revert\n    tag_1:\n      pop\n      jumpi(tag_2, lt(calldatasize, 0x04))\n      shr(0xe0, calldataload(0x00))\n      dup1\n      0x2688454a\n      eq\n      tag_3\n      jumpi\n      dup1\n      0x344d3734\n      eq\n      tag_4\n      jumpi\n      dup1\n      0x8221d9cd\n      eq\n      tag_5\n      jumpi\n      dup1\n      0x83dfe5fd\n      eq\n      tag_6\n      jumpi\n      dup1\n      0xd062dbdb\n      eq\n      tag_7\n      jumpi\n      dup1\n      0xd7260006\n      eq\n      tag_8\n      jumpi\n    tag_2:\n      0x00\n      dup1\n      revert\n        /* \"day4.sol\":173:195  uint public U = 999999 */\n    tag_3:\n      tag_9\n      tag_10\n      jump\t// in\n    tag_9:\n      mload(0x40)\n      tag_11\n      swap2\n      swap1\n      tag_12\n      jump\t// in\n    tag_11:\n      mload(0x40)\n      dup1\n      swap2\n      sub\n      swap1\n      return\n        /* \"day4.sol\":294:348  address payable public PayEricAddr = payable(Ericaddr) */\n    tag_4:\n      tag_13\n      tag_14\n      jump\t// in\n    tag_13:\n      mload(0x40)\n      tag_15\n      swap2\n      swap1\n      tag_16\n      jump\t// in\n    tag_15:\n      mload(0x40)\n      dup1\n      swap2\n      sub\n      swap1\n      return\n        /* \"day4.sol\":97:123  bool public isMerge = true */\n    tag_5:\n      tag_17\n      tag_18\n      jump\t// in\n    tag_17:\n      mload(0x40)\n      tag_19\n      swap2\n      swap1\n      tag_20\n      jump\t// in\n    tag_19:\n      mload(0x40)\n      dup1\n      swap2\n      sub\n      swap1\n      return\n        /* \"day4.sol\":394:422  Color public C = Color.Green */\n    tag_6:\n      tag_21\n      tag_22\n      jump\t// in\n    tag_21:\n      mload(0x40)\n      tag_23\n      swap2\n      swap1\n      tag_24\n      jump\t// in\n    tag_23:\n      mload(0x40)\n      dup1\n      swap2\n      sub\n      swap1\n      return\n        /* \"day4.sol\":219:287  address public Ericaddr = 0x000554A2D546D8b84bf7C3FDDdbF17755298dC37 */\n    tag_7:\n      tag_25\n      tag_26\n      jump\t// in\n    tag_25:\n      mload(0x40)\n      tag_27\n      swap2\n      swap1\n      tag_28\n      jump\t// in\n    tag_27:\n      mload(0x40)\n      dup1\n      swap2\n      sub\n      swap1\n      return\n        /* \"day4.sol\":147:166  int public I = -123 */\n    tag_8:\n      tag_29\n      tag_30\n      jump\t// in\n    tag_29:\n      mload(0x40)\n      tag_31\n      swap2\n      swap1\n      tag_32\n      jump\t// in\n    tag_31:\n      mload(0x40)\n      dup1\n      swap2\n      sub\n      swap1\n      return\n        /* \"day4.sol\":173:195  uint public U = 999999 */\n    tag_10:\n      sload(0x02)\n      dup2\n      jump\t// out\n        /* \"day4.sol\":294:348  address payable public PayEricAddr = payable(Ericaddr) */\n    tag_14:\n      0x04\n      0x00\n      swap1\n      sload\n      swap1\n      0x0100\n      exp\n      swap1\n      div\n      0xffffffffffffffffffffffffffffffffffffffff\n      and\n      dup2\n      jump\t// out\n        /* \"day4.sol\":97:123  bool public isMerge = true */\n    tag_18:\n      0x00\n      dup1\n      sload\n      swap1\n      0x0100\n      exp\n      swap1\n      div\n      0xff\n      and\n      dup2\n      jump\t// out\n        /* \"day4.sol\":394:422  Color public C = Color.Green */\n    tag_22:\n      0x04\n      0x14\n      swap1\n      sload\n      swap1\n      0x0100\n      exp\n      swap1\n      div\n      0xff\n      and\n      dup2\n      jump\t// out\n        /* \"day4.sol\":219:287  address public Ericaddr = 0x000554A2D546D8b84bf7C3FDDdbF17755298dC37 */\n    tag_26:\n      0x03\n      0x00\n      swap1\n      sload\n      swap1\n      0x0100\n      exp\n      swap1\n      div\n      0xffffffffffffffffffffffffffffffffffffffff\n      and\n      dup2\n      jump\t// out\n        /* \"day4.sol\":147:166  int public I = -123 */\n    tag_30:\n      sload(0x01)\n      dup2\n      jump\t// out\n        /* \"#utility.yul\":7:84   */\n    tag_33:\n        /* \"#utility.yul\":44:51   */\n      0x00\n        /* \"#utility.yul\":73:78   */\n      dup2\n        /* \"#utility.yul\":62:78   */\n      swap1\n      pop\n        /* \"#utility.yul\":7:84   */\n      swap2\n      swap1\n      pop\n      jump\t// out\n        /* \"#utility.yul\":90:208   */\n    tag_34:\n        /* \"#utility.yul\":177:201   */\n      tag_52\n        /* \"#utility.yul\":195:200   */\n      dup2\n        /* \"#utility.yul\":177:201   */\n      tag_33\n      jump\t// in\n    tag_52:\n        /* \"#utility.yul\":172:175   */\n      dup3\n        /* \"#utility.yul\":165:202   */\n      mstore\n        /* \"#utility.yul\":90:208   */\n      pop\n      pop\n      jump\t// out\n        /* \"#utility.yul\":214:436   */\n    tag_12:\n        /* \"#utility.yul\":307:311   */\n      0x00\n        /* \"#utility.yul\":345:347   */\n      0x20\n        /* \"#utility.yul\":334:343   */\n      dup3\n        /* \"#utility.yul\":330:348   */\n      add\n        /* \"#utility.yul\":322:348   */\n      swap1\n      pop\n        /* \"#utility.yul\":358:429   */\n      tag_54\n        /* \"#utility.yul\":426:427   */\n      0x00\n        /* \"#utility.yul\":415:424   */\n      dup4\n        /* \"#utility.yul\":411:428   */\n      add\n        /* \"#utility.yul\":402:408   */\n      dup5\n        /* \"#utility.yul\":358:429   */\n      tag_34\n      jump\t// in\n    tag_54:\n        /* \"#utility.yul\":214:436   */\n      swap3\n      swap2\n      pop\n      pop\n      jump\t// out\n        /* \"#utility.yul\":442:568   */\n    tag_35:\n        /* \"#utility.yul\":479:486   */\n      0x00\n        /* \"#utility.yul\":519:561   */\n      0xffffffffffffffffffffffffffffffffffffffff\n        /* \"#utility.yul\":512:517   */\n      dup3\n        /* \"#utility.yul\":508:562   */\n      and\n        /* \"#utility.yul\":497:562   */\n      swap1\n      pop\n        /* \"#utility.yul\":442:568   */\n      swap2\n      swap1\n      pop\n      jump\t// out\n        /* \"#utility.yul\":574:678   */\n    tag_36:\n        /* \"#utility.yul\":619:626   */\n      0x00\n        /* \"#utility.yul\":648:672   */\n      tag_57\n        /* \"#utility.yul\":666:671   */\n      dup3\n        /* \"#utility.yul\":648:672   */\n      tag_35\n      jump\t// in\n    tag_57:\n        /* \"#utility.yul\":637:672   */\n      swap1\n      pop\n        /* \"#utility.yul\":574:678   */\n      swap2\n      swap1\n      pop\n      jump\t// out\n        /* \"#utility.yul\":684:826   */\n    tag_37:\n        /* \"#utility.yul\":787:819   */\n      tag_59\n        /* \"#utility.yul\":813:818   */\n      dup2\n        /* \"#utility.yul\":787:819   */\n      tag_36\n      jump\t// in\n    tag_59:\n        /* \"#utility.yul\":782:785   */\n      dup3\n        /* \"#utility.yul\":775:820   */\n      mstore\n        /* \"#utility.yul\":684:826   */\n      pop\n      pop\n      jump\t// out\n        /* \"#utility.yul\":832:1086   */\n    tag_16:\n        /* \"#utility.yul\":941:945   */\n      0x00\n        /* \"#utility.yul\":979:981   */\n      0x20\n        /* \"#utility.yul\":968:977   */\n      dup3\n        /* \"#utility.yul\":964:982   */\n      add\n        /* \"#utility.yul\":956:982   */\n      swap1\n      pop\n        /* \"#utility.yul\":992:1079   */\n      tag_61\n        /* \"#utility.yul\":1076:1077   */\n      0x00\n        /* \"#utility.yul\":1065:1074   */\n      dup4\n        /* \"#utility.yul\":1061:1078   */\n      add\n        /* \"#utility.yul\":1052:1058   */\n      dup5\n        /* \"#utility.yul\":992:1079   */\n      tag_37\n      jump\t// in\n    tag_61:\n        /* \"#utility.yul\":832:1086   */\n      swap3\n      swap2\n      pop\n      pop\n      jump\t// out\n        /* \"#utility.yul\":1092:1182   */\n    tag_38:\n        /* \"#utility.yul\":1126:1133   */\n      0x00\n        /* \"#utility.yul\":1169:1174   */\n      dup2\n        /* \"#utility.yul\":1162:1175   */\n      iszero\n        /* \"#utility.yul\":1155:1176   */\n      iszero\n        /* \"#utility.yul\":1144:1176   */\n      swap1\n      pop\n        /* \"#utility.yul\":1092:1182   */\n      swap2\n      swap1\n      pop\n      jump\t// out\n        /* \"#utility.yul\":1188:1297   */\n    tag_39:\n        /* \"#utility.yul\":1269:1290   */\n      tag_64\n        /* \"#utility.yul\":1284:1289   */\n      dup2\n        /* \"#utility.yul\":1269:1290   */\n      tag_38\n      jump\t// in\n    tag_64:\n        /* \"#utility.yul\":1264:1267   */\n      dup3\n        /* \"#utility.yul\":1257:1291   */\n      mstore\n        /* \"#utility.yul\":1188:1297   */\n      pop\n      pop\n      jump\t// out\n        /* \"#utility.yul\":1303:1513   */\n    tag_20:\n        /* \"#utility.yul\":1390:1394   */\n      0x00\n        /* \"#utility.yul\":1428:1430   */\n      0x20\n        /* \"#utility.yul\":1417:1426   */\n      dup3\n        /* \"#utility.yul\":1413:1431   */\n      add\n        /* \"#utility.yul\":1405:1431   */\n      swap1\n      pop\n        /* \"#utility.yul\":1441:1506   */\n      tag_66\n        /* \"#utility.yul\":1503:1504   */\n      0x00\n        /* \"#utility.yul\":1492:1501   */\n      dup4\n        /* \"#utility.yul\":1488:1505   */\n      add\n        /* \"#utility.yul\":1479:1485   */\n      dup5\n        /* \"#utility.yul\":1441:1506   */\n      tag_39\n      jump\t// in\n    tag_66:\n        /* \"#utility.yul\":1303:1513   */\n      swap3\n      swap2\n      pop\n      pop\n      jump\t// out\n        /* \"#utility.yul\":1519:1699   */\n    tag_40:\n        /* \"#utility.yul\":1567:1644   */\n      0x4e487b7100000000000000000000000000000000000000000000000000000000\n        /* \"#utility.yul\":1564:1565   */\n      0x00\n        /* \"#utility.yul\":1557:1645   */\n      mstore\n        /* \"#utility.yul\":1664:1668   */\n      0x21\n        /* \"#utility.yul\":1661:1662   */\n      0x04\n        /* \"#utility.yul\":1654:1669   */\n      mstore\n        /* \"#utility.yul\":1688:1692   */\n      0x24\n        /* \"#utility.yul\":1685:1686   */\n      0x00\n        /* \"#utility.yul\":1678:1693   */\n      revert\n        /* \"#utility.yul\":1705:1818   */\n    tag_41:\n        /* \"#utility.yul\":1786:1787   */\n      0x02\n        /* \"#utility.yul\":1779:1784   */\n      dup2\n        /* \"#utility.yul\":1776:1788   */\n      lt\n        /* \"#utility.yul\":1766:1812   */\n      tag_69\n      jumpi\n        /* \"#utility.yul\":1792:1810   */\n      tag_70\n      tag_40\n      jump\t// in\n    tag_70:\n        /* \"#utility.yul\":1766:1812   */\n    tag_69:\n        /* \"#utility.yul\":1705:1818   */\n      pop\n      jump\t// out\n        /* \"#utility.yul\":1824:1951   */\n    tag_42:\n        /* \"#utility.yul\":1869:1876   */\n      0x00\n        /* \"#utility.yul\":1898:1903   */\n      dup2\n        /* \"#utility.yul\":1887:1903   */\n      swap1\n      pop\n        /* \"#utility.yul\":1904:1945   */\n      tag_72\n        /* \"#utility.yul\":1939:1944   */\n      dup3\n        /* \"#utility.yul\":1904:1945   */\n      tag_41\n      jump\t// in\n    tag_72:\n        /* \"#utility.yul\":1824:1951   */\n      swap2\n      swap1\n      pop\n      jump\t// out\n        /* \"#utility.yul\":1957:2084   */\n    tag_43:\n        /* \"#utility.yul\":2013:2022   */\n      0x00\n        /* \"#utility.yul\":2046:2078   */\n      tag_74\n        /* \"#utility.yul\":2072:2077   */\n      dup3\n        /* \"#utility.yul\":2046:2078   */\n      tag_42\n      jump\t// in\n    tag_74:\n        /* \"#utility.yul\":2033:2078   */\n      swap1\n      pop\n        /* \"#utility.yul\":1957:2084   */\n      swap2\n      swap1\n      pop\n      jump\t// out\n        /* \"#utility.yul\":2090:2233   */\n    tag_44:\n        /* \"#utility.yul\":2183:2226   */\n      tag_76\n        /* \"#utility.yul\":2220:2225   */\n      dup2\n        /* \"#utility.yul\":2183:2226   */\n      tag_43\n      jump\t// in\n    tag_76:\n        /* \"#utility.yul\":2178:2181   */\n      dup3\n        /* \"#utility.yul\":2171:2227   */\n      mstore\n        /* \"#utility.yul\":2090:2233   */\n      pop\n      pop\n      jump\t// out\n        /* \"#utility.yul\":2239:2473   */\n    tag_24:\n        /* \"#utility.yul\":2338:2342   */\n      0x00\n        /* \"#utility.yul\":2376:2378   */\n      0x20\n        /* \"#utility.yul\":2365:2374   */\n      dup3\n        /* \"#utility.yul\":2361:2379   */\n      add\n        /* \"#utility.yul\":2353:2379   */\n      swap1\n      pop\n        /* \"#utility.yul\":2389:2466   */\n      tag_78\n        /* \"#utility.yul\":2463:2464   */\n      0x00\n        /* \"#utility.yul\":2452:2461   */\n      dup4\n        /* \"#utility.yul\":2448:2465   */\n      add\n        /* \"#utility.yul\":2439:2445   */\n      dup5\n        /* \"#utility.yul\":2389:2466   */\n      tag_44\n      jump\t// in\n    tag_78:\n        /* \"#utility.yul\":2239:2473   */\n      swap3\n      swap2\n      pop\n      pop\n      jump\t// out\n        /* \"#utility.yul\":2479:2575   */\n    tag_45:\n        /* \"#utility.yul\":2516:2523   */\n      0x00\n        /* \"#utility.yul\":2545:2569   */\n      tag_80\n        /* \"#utility.yul\":2563:2568   */\n      dup3\n        /* \"#utility.yul\":2545:2569   */\n      tag_35\n      jump\t// in\n    tag_80:\n        /* \"#utility.yul\":2534:2569   */\n      swap1\n      pop\n        /* \"#utility.yul\":2479:2575   */\n      swap2\n      swap1\n      pop\n      jump\t// out\n        /* \"#utility.yul\":2581:2699   */\n    tag_46:\n        /* \"#utility.yul\":2668:2692   */\n      tag_82\n        /* \"#utility.yul\":2686:2691   */\n      dup2\n        /* \"#utility.yul\":2668:2692   */\n      tag_45\n      jump\t// in\n    tag_82:\n        /* \"#utility.yul\":2663:2666   */\n      dup3\n        /* \"#utility.yul\":2656:2693   */\n      mstore\n        /* \"#utility.yul\":2581:2699   */\n      pop\n      pop\n      jump\t// out\n        /* \"#utility.yul\":2705:2927   */\n    tag_28:\n        /* \"#utility.yul\":2798:2802   */\n      0x00\n        /* \"#utility.yul\":2836:2838   */\n      0x20\n        /* \"#utility.yul\":2825:2834   */\n      dup3\n        /* \"#utility.yul\":2821:2839   */\n      add\n        /* \"#utility.yul\":2813:2839   */\n      swap1\n      pop\n        /* \"#utility.yul\":2849:2920   */\n      tag_84\n        /* \"#utility.yul\":2917:2918   */\n      0x00\n        /* \"#utility.yul\":2906:2915   */\n      dup4\n        /* \"#utility.yul\":2902:2919   */\n      add\n        /* \"#utility.yul\":2893:2899   */\n      dup5\n        /* \"#utility.yul\":2849:2920   */\n      tag_46\n      jump\t// in\n    tag_84:\n        /* \"#utility.yul\":2705:2927   */\n      swap3\n      swap2\n      pop\n      pop\n      jump\t// out\n        /* \"#utility.yul\":2933:3009   */\n    tag_47:\n        /* \"#utility.yul\":2969:2976   */\n      0x00\n        /* \"#utility.yul\":2998:3003   */\n      dup2\n        /* \"#utility.yul\":2987:3003   */\n      swap1\n      pop\n        /* \"#utility.yul\":2933:3009   */\n      swap2\n      swap1\n      pop\n      jump\t// out\n        /* \"#utility.yul\":3015:3130   */\n    tag_48:\n        /* \"#utility.yul\":3100:3123   */\n      tag_87\n        /* \"#utility.yul\":3117:3122   */\n      dup2\n        /* \"#utility.yul\":3100:3123   */\n      tag_47\n      jump\t// in\n    tag_87:\n        /* \"#utility.yul\":3095:3098   */\n      dup3\n        /* \"#utility.yul\":3088:3124   */\n      mstore\n        /* \"#utility.yul\":3015:3130   */\n      pop\n      pop\n      jump\t// out\n        /* \"#utility.yul\":3136:3354   */\n    tag_32:\n        /* \"#utility.yul\":3227:3231   */\n      0x00\n        /* \"#utility.yul\":3265:3267   */\n      0x20\n        /* \"#utility.yul\":3254:3263   */\n      dup3\n        /* \"#utility.yul\":3250:3268   */\n      add\n        /* \"#utility.yul\":3242:3268   */\n      swap1\n      pop\n        /* \"#utility.yul\":3278:3347   */\n      tag_89\n        /* \"#utility.yul\":3344:3345   */\n      0x00\n        /* \"#utility.yul\":3333:3342   */\n      dup4\n        /* \"#utility.yul\":3329:3346   */\n      add\n        /* \"#utility.yul\":3320:3326   */\n      dup5\n        /* \"#utility.yul\":3278:3347   */\n      tag_48\n      jump\t// in\n    tag_89:\n        /* \"#utility.yul\":3136:3354   */\n      swap3\n      swap2\n      pop\n      pop\n      jump\t// out\n\n    auxdata: 0xa264697066735822122024cde93a02712c13398ed05f8afa14d61e3d5c9560132ebd5778aa67366629b264736f6c63430008140033\n}\n",
				"bytecode": {
					"linkReferences": {},
					"object": "608060405260015f806101000a81548160ff0219169083151502179055507fffffffffffffffffffffffffffffffffffffffffffffffffffffffffffffff85600155620f423f600255720554a2d546d8b84bf7c3fdddbf17755298dc3760035f6101000a81548173ffffffffffffffffffffffffffffffffffffffff021916908373ffffffffffffffffffffffffffffffffffffffff16021790555060035f9054906101000a900473ffffffffffffffffffffffffffffffffffffffff1660045f6101000a81548173ffffffffffffffffffffffffffffffffffffffff021916908373ffffffffffffffffffffffffffffffffffffffff1602179055506001600460146101000a81548160ff0219169083600181111561012257610121610138565b5b0217905550348015610132575f80fd5b50610165565b7f4e487b71000000000000000000000000000000000000000000000000000000005f52602160045260245ffd5b610379806101725f395ff3fe608060405234801561000f575f80fd5b5060043610610060575f3560e01c80632688454a14610064578063344d3734146100825780638221d9cd146100a057806383dfe5fd146100be578063d062dbdb146100dc578063d7260006146100fa575b5f80fd5b61006c610118565b60405161007991906101a9565b60405180910390f35b61008a61011e565b6040516100979190610201565b60405180910390f35b6100a8610143565b6040516100b59190610234565b60405180910390f35b6100c6610153565b6040516100d391906102c0565b60405180910390f35b6100e4610166565b6040516100f191906102f9565b60405180910390f35b61010261018b565b60405161010f919061032a565b60405180910390f35b60025481565b60045f9054906101000a900473ffffffffffffffffffffffffffffffffffffffff1681565b5f8054906101000a900460ff1681565b600460149054906101000a900460ff1681565b60035f9054906101000a900473ffffffffffffffffffffffffffffffffffffffff1681565b60015481565b5f819050919050565b6101a381610191565b82525050565b5f6020820190506101bc5f83018461019a565b92915050565b5f73ffffffffffffffffffffffffffffffffffffffff82169050919050565b5f6101eb826101c2565b9050919050565b6101fb816101e1565b82525050565b5f6020820190506102145f8301846101f2565b92915050565b5f8115159050919050565b61022e8161021a565b82525050565b5f6020820190506102475f830184610225565b92915050565b7f4e487b71000000000000000000000000000000000000000000000000000000005f52602160045260245ffd5b6002811061028b5761028a61024d565b5b50565b5f81905061029b8261027a565b919050565b5f6102aa8261028e565b9050919050565b6102ba816102a0565b82525050565b5f6020820190506102d35f8301846102b1565b92915050565b5f6102e3826101c2565b9050919050565b6102f3816102d9565b82525050565b5f60208201905061030c5f8301846102ea565b92915050565b5f819050919050565b61032481610312565b82525050565b5f60208201905061033d5f83018461031b565b9291505056fea264697066735822122024cde93a02712c13398ed05f8afa14d61e3d5c9560132ebd5778aa67366629b264736f6c63430008140033",
					"opcodes": "PUSH1 0x80 PUSH1 0x40 MSTORE PUSH1 0x1 PUSH0 DUP1 PUSH2 0x100 EXP DUP2 SLOAD DUP2 PUSH1 0xFF MUL NOT AND SWAP1 DUP4 ISZERO ISZERO MUL OR SWAP1 SSTORE POP PUSH32 0xFFFFFFFFFFFFFFFFFFFFFFFFFFFFFFFFFFFFFFFFFFFFFFFFFFFFFFFFFFFFFF85 PUSH1 0x1 SSTORE PUSH3 0xF423F PUSH1 0x2 SSTORE PUSH19 0x554A2D546D8B84BF7C3FDDDBF17755298DC37 PUSH1 0x3 PUSH0 PUSH2 0x100 EXP DUP2 SLOAD DUP2 PUSH20 0xFFFFFFFFFFFFFFFFFFFFFFFFFFFFFFFFFFFFFFFF MUL NOT AND SWAP1 DUP4 PUSH20 0xFFFFFFFFFFFFFFFFFFFFFFFFFFFFFFFFFFFFFFFF AND MUL OR SWAP1 SSTORE POP PUSH1 0x3 PUSH0 SWAP1 SLOAD SWAP1 PUSH2 0x100 EXP SWAP1 DIV PUSH20 0xFFFFFFFFFFFFFFFFFFFFFFFFFFFFFFFFFFFFFFFF AND PUSH1 0x4 PUSH0 PUSH2 0x100 EXP DUP2 SLOAD DUP2 PUSH20 0xFFFFFFFFFFFFFFFFFFFFFFFFFFFFFFFFFFFFFFFF MUL NOT AND SWAP1 DUP4 PUSH20 0xFFFFFFFFFFFFFFFFFFFFFFFFFFFFFFFFFFFFFFFF AND MUL OR SWAP1 SSTORE POP PUSH1 0x1 PUSH1 0x4 PUSH1 0x14 PUSH2 0x100 EXP DUP2 SLOAD DUP2 PUSH1 0xFF MUL NOT AND SWAP1 DUP4 PUSH1 0x1 DUP2 GT ISZERO PUSH2 0x122 JUMPI PUSH2 0x121 PUSH2 0x138 JUMP JUMPDEST JUMPDEST MUL OR SWAP1 SSTORE POP CALLVALUE DUP1 ISZERO PUSH2 0x132 JUMPI PUSH0 DUP1 REVERT JUMPDEST POP PUSH2 0x165 JUMP JUMPDEST PUSH32 0x4E487B7100000000000000000000000000000000000000000000000000000000 PUSH0 MSTORE PUSH1 0x21 PUSH1 0x4 MSTORE PUSH1 0x24 PUSH0 REVERT JUMPDEST PUSH2 0x379 DUP1 PUSH2 0x172 PUSH0 CODECOPY PUSH0 RETURN INVALID PUSH1 0x80 PUSH1 0x40 MSTORE CALLVALUE DUP1 ISZERO PUSH2 0xF JUMPI PUSH0 DUP1 REVERT JUMPDEST POP PUSH1 0x4 CALLDATASIZE LT PUSH2 0x60 JUMPI PUSH0 CALLDATALOAD PUSH1 0xE0 SHR DUP1 PUSH4 0x2688454A EQ PUSH2 0x64 JUMPI DUP1 PUSH4 0x344D3734 EQ PUSH2 0x82 JUMPI DUP1 PUSH4 0x8221D9CD EQ PUSH2 0xA0 JUMPI DUP1 PUSH4 0x83DFE5FD EQ PUSH2 0xBE JUMPI DUP1 PUSH4 0xD062DBDB EQ PUSH2 0xDC JUMPI DUP1 PUSH4 0xD7260006 EQ PUSH2 0xFA JUMPI JUMPDEST PUSH0 DUP1 REVERT JUMPDEST PUSH2 0x6C PUSH2 0x118 JUMP JUMPDEST PUSH1 0x40 MLOAD PUSH2 0x79 SWAP2 SWAP1 PUSH2 0x1A9 JUMP JUMPDEST PUSH1 0x40 MLOAD DUP1 SWAP2 SUB SWAP1 RETURN JUMPDEST PUSH2 0x8A PUSH2 0x11E JUMP JUMPDEST PUSH1 0x40 MLOAD PUSH2 0x97 SWAP2 SWAP1 PUSH2 0x201 JUMP JUMPDEST PUSH1 0x40 MLOAD DUP1 SWAP2 SUB SWAP1 RETURN JUMPDEST PUSH2 0xA8 PUSH2 0x143 JUMP JUMPDEST PUSH1 0x40 MLOAD PUSH2 0xB5 SWAP2 SWAP1 PUSH2 0x234 JUMP JUMPDEST PUSH1 0x40 MLOAD DUP1 SWAP2 SUB SWAP1 RETURN JUMPDEST PUSH2 0xC6 PUSH2 0x153 JUMP JUMPDEST PUSH1 0x40 MLOAD PUSH2 0xD3 SWAP2 SWAP1 PUSH2 0x2C0 JUMP JUMPDEST PUSH1 0x40 MLOAD DUP1 SWAP2 SUB SWAP1 RETURN JUMPDEST PUSH2 0xE4 PUSH2 0x166 JUMP JUMPDEST PUSH1 0x40 MLOAD PUSH2 0xF1 SWAP2 SWAP1 PUSH2 0x2F9 JUMP JUMPDEST PUSH1 0x40 MLOAD DUP1 SWAP2 SUB SWAP1 RETURN JUMPDEST PUSH2 0x102 PUSH2 0x18B JUMP JUMPDEST PUSH1 0x40 MLOAD PUSH2 0x10F SWAP2 SWAP1 PUSH2 0x32A JUMP JUMPDEST PUSH1 0x40 MLOAD DUP1 SWAP2 SUB SWAP1 RETURN JUMPDEST PUSH1 0x2 SLOAD DUP2 JUMP JUMPDEST PUSH1 0x4 PUSH0 SWAP1 SLOAD SWAP1 PUSH2 0x100 EXP SWAP1 DIV PUSH20 0xFFFFFFFFFFFFFFFFFFFFFFFFFFFFFFFFFFFFFFFF AND DUP2 JUMP JUMPDEST PUSH0 DUP1 SLOAD SWAP1 PUSH2 0x100 EXP SWAP1 DIV PUSH1 0xFF AND DUP2 JUMP JUMPDEST PUSH1 0x4 PUSH1 0x14 SWAP1 SLOAD SWAP1 PUSH2 0x100 EXP SWAP1 DIV PUSH1 0xFF AND DUP2 JUMP JUMPDEST PUSH1 0x3 PUSH0 SWAP1 SLOAD SWAP1 PUSH2 0x100 EXP SWAP1 DIV PUSH20 0xFFFFFFFFFFFFFFFFFFFFFFFFFFFFFFFFFFFFFFFF AND DUP2 JUMP JUMPDEST PUSH1 0x1 SLOAD DUP2 JUMP JUMPDEST PUSH0 DUP2 SWAP1 POP SWAP2 SWAP1 POP JUMP JUMPDEST PUSH2 0x1A3 DUP2 PUSH2 0x191 JUMP JUMPDEST DUP3 MSTORE POP POP JUMP JUMPDEST PUSH0 PUSH1 0x20 DUP3 ADD SWAP1 POP PUSH2 0x1BC PUSH0 DUP4 ADD DUP5 PUSH2 0x19A JUMP JUMPDEST SWAP3 SWAP2 POP POP JUMP JUMPDEST PUSH0 PUSH20 0xFFFFFFFFFFFFFFFFFFFFFFFFFFFFFFFFFFFFFFFF DUP3 AND SWAP1 POP SWAP2 SWAP1 POP JUMP JUMPDEST PUSH0 PUSH2 0x1EB DUP3 PUSH2 0x1C2 JUMP JUMPDEST SWAP1 POP SWAP2 SWAP1 POP JUMP JUMPDEST PUSH2 0x1FB DUP2 PUSH2 0x1E1 JUMP JUMPDEST DUP3 MSTORE POP POP JUMP JUMPDEST PUSH0 PUSH1 0x20 DUP3 ADD SWAP1 POP PUSH2 0x214 PUSH0 DUP4 ADD DUP5 PUSH2 0x1F2 JUMP JUMPDEST SWAP3 SWAP2 POP POP JUMP JUMPDEST PUSH0 DUP2 ISZERO ISZERO SWAP1 POP SWAP2 SWAP1 POP JUMP JUMPDEST PUSH2 0x22E DUP2 PUSH2 0x21A JUMP JUMPDEST DUP3 MSTORE POP POP JUMP JUMPDEST PUSH0 PUSH1 0x20 DUP3 ADD SWAP1 POP PUSH2 0x247 PUSH0 DUP4 ADD DUP5 PUSH2 0x225 JUMP JUMPDEST SWAP3 SWAP2 POP POP JUMP JUMPDEST PUSH32 0x4E487B7100000000000000000000000000000000000000000000000000000000 PUSH0 MSTORE PUSH1 0x21 PUSH1 0x4 MSTORE PUSH1 0x24 PUSH0 REVERT JUMPDEST PUSH1 0x2 DUP2 LT PUSH2 0x28B JUMPI PUSH2 0x28A PUSH2 0x24D JUMP JUMPDEST JUMPDEST POP JUMP JUMPDEST PUSH0 DUP2 SWAP1 POP PUSH2 0x29B DUP3 PUSH2 0x27A JUMP JUMPDEST SWAP2 SWAP1 POP JUMP JUMPDEST PUSH0 PUSH2 0x2AA DUP3 PUSH2 0x28E JUMP JUMPDEST SWAP1 POP SWAP2 SWAP1 POP JUMP JUMPDEST PUSH2 0x2BA DUP2 PUSH2 0x2A0 JUMP JUMPDEST DUP3 MSTORE POP POP JUMP JUMPDEST PUSH0 PUSH1 0x20 DUP3 ADD SWAP1 POP PUSH2 0x2D3 PUSH0 DUP4 ADD DUP5 PUSH2 0x2B1 JUMP JUMPDEST SWAP3 SWAP2 POP POP JUMP JUMPDEST PUSH0 PUSH2 0x2E3 DUP3 PUSH2 0x1C2 JUMP JUMPDEST SWAP1 POP SWAP2 SWAP1 POP JUMP JUMPDEST PUSH2 0x2F3 DUP2 PUSH2 0x2D9 JUMP JUMPDEST DUP3 MSTORE POP POP JUMP JUMPDEST PUSH0 PUSH1 0x20 DUP3 ADD SWAP1 POP PUSH2 0x30C PUSH0 DUP4 ADD DUP5 PUSH2 0x2EA JUMP JUMPDEST SWAP3 SWAP2 POP POP JUMP JUMPDEST PUSH0 DUP2 SWAP1 POP SWAP2 SWAP1 POP JUMP JUMPDEST PUSH2 0x324 DUP2 PUSH2 0x312 JUMP JUMPDEST DUP3 MSTORE POP POP JUMP JUMPDEST PUSH0 PUSH1 0x20 DUP3 ADD SWAP1 POP PUSH2 0x33D PUSH0 DUP4 ADD DUP5 PUSH2 0x31B JUMP JUMPDEST SWAP3 SWAP2 POP POP JUMP INVALID LOG2 PUSH5 0x6970667358 0x22 SLT KECCAK256 0x24 0xCD 0xE9 GASPRICE MUL PUSH18 0x2C13398ED05F8AFA14D61E3D5C9560132EBD JUMPI PUSH25 0xAA67366629B264736F6C634300081400330000000000000000 "
				},
				"gasEstimates": {
					"creation": {
						"codeDepositCost": "177800",
						"executionCost": "143712",
						"totalCost": "321512"
					},
					"external": {
						"C()": "2649",
						"Ericaddr()": "2574",
						"I()": "2513",
						"PayEricAddr()": "2508",
						"U()": "2403",
						"isMerge()": "2485"
					}
				},
				"methodIdentifiers": {
					"C()": "83dfe5fd",
					"Ericaddr()": "d062dbdb",
					"I()": "d7260006",
					"PayEricAddr()": "344d3734",
					"U()": "2688454a",
					"isMerge()": "8221d9cd"
				}
			},
			"storageLayout": {
				"storage": [
					{
						"astId": 4,
						"contract": "day4.sol:Day4",
						"label": "isMerge",
						"offset": 0,
						"slot": "0",
						"type": "t_bool"
					},
					{
						"astId": 8,
						"contract": "day4.sol:Day4",
						"label": "I",
						"offset": 0,
						"slot": "1",
						"type": "t_int256"
					},
					{
						"astId": 11,
						"contract": "day4.sol:Day4",
						"label": "U",
						"offset": 0,
						"slot": "2",
						"type": "t_uint256"
					},
					{
						"astId": 14,
						"contract": "day4.sol:Day4",
						"label": "Ericaddr",
						"offset": 0,
						"slot": "3",
						"type": "t_address"
					},
					{
						"astId": 20,
						"contract": "day4.sol:Day4",
						"label": "PayEricAddr",
						"offset": 0,
						"slot": "4",
						"type": "t_address_payable"
					},
					{
						"astId": 28,
						"contract": "day4.sol:Day4",
						"label": "C",
						"offset": 20,
						"slot": "4",
						"type": "t_enum(Color)23"
					}
				],
				"types": {
					"t_address": {
						"encoding": "inplace",
						"label": "address",
						"numberOfBytes": "20"
					},
					"t_address_payable": {
						"encoding": "inplace",
						"label": "address payable",
						"numberOfBytes": "20"
					},
					"t_bool": {
						"encoding": "inplace",
						"label": "bool",
						"numberOfBytes": "1"
					},
					"t_enum(Color)23": {
						"encoding": "inplace",
						"label": "enum Day4.Color",
						"numberOfBytes": "1"
					},
					"t_int256": {
						"encoding": "inplace",
						"label": "int256",
						"numberOfBytes": "32"
					},
					"t_uint256": {
						"encoding": "inplace",
						"label": "uint256",
						"numberOfBytes": "32"
					}
				}
			},
			"userdoc": {
				"kind": "user",
				"methods": {},
				"version": 1
			}
		}
	}
}