{
	"contracts/vendor.sol": {
		"Vendor": {
			"abi": [
				{
					"inputs": [
						{
							"internalType": "address",
							"name": "tokenAddress",
							"type": "address"
						}
					],
					"stateMutability": "nonpayable",
					"type": "constructor"
				},
				{
					"anonymous": false,
					"inputs": [
						{
							"indexed": false,
							"internalType": "address",
							"name": "buyer",
							"type": "address"
						},
						{
							"indexed": false,
							"internalType": "uint256",
							"name": "amountOfETH",
							"type": "uint256"
						},
						{
							"indexed": false,
							"internalType": "uint256",
							"name": "amountOfTokens",
							"type": "uint256"
						}
					],
					"name": "BuyTokens",
					"type": "event"
				},
				{
					"anonymous": false,
					"inputs": [
						{
							"indexed": true,
							"internalType": "address",
							"name": "previousOwner",
							"type": "address"
						},
						{
							"indexed": true,
							"internalType": "address",
							"name": "newOwner",
							"type": "address"
						}
					],
					"name": "OwnershipTransferred",
					"type": "event"
				},
				{
					"inputs": [],
					"name": "buyTokens",
					"outputs": [
						{
							"internalType": "uint256",
							"name": "tokenAmount",
							"type": "uint256"
						}
					],
					"stateMutability": "payable",
					"type": "function"
				},
				{
					"inputs": [],
					"name": "owner",
					"outputs": [
						{
							"internalType": "address",
							"name": "",
							"type": "address"
						}
					],
					"stateMutability": "view",
					"type": "function"
				},
				{
					"inputs": [],
					"name": "renounceOwnership",
					"outputs": [],
					"stateMutability": "nonpayable",
					"type": "function"
				},
				{
					"inputs": [],
					"name": "tokensPerEth",
					"outputs": [
						{
							"internalType": "uint256",
							"name": "",
							"type": "uint256"
						}
					],
					"stateMutability": "view",
					"type": "function"
				},
				{
					"inputs": [
						{
							"internalType": "address",
							"name": "newOwner",
							"type": "address"
						}
					],
					"name": "transferOwnership",
					"outputs": [],
					"stateMutability": "nonpayable",
					"type": "function"
				},
				{
					"inputs": [],
					"name": "withdraw",
					"outputs": [],
					"stateMutability": "nonpayable",
					"type": "function"
				}
			],
			"devdoc": {
				"kind": "dev",
				"methods": {
					"owner()": {
						"details": "Returns the address of the current owner."
					},
					"renounceOwnership()": {
						"details": "Leaves the contract without owner. It will not be possible to call `onlyOwner` functions. Can only be called by the current owner. NOTE: Renouncing ownership will leave the contract without an owner, thereby disabling any functionality that is only available to the owner."
					},
					"transferOwnership(address)": {
						"details": "Transfers ownership of the contract to a new account (`newOwner`). Can only be called by the current owner."
					}
				},
				"version": 1
			},
			"evm": {
				"assembly": "    /* \"contracts/vendor.sol\":391:1903  contract Vendor is Ownable {... */\n  mstore(0x40, 0x80)\n    /* \"contracts/vendor.sol\":530:533  100 */\n  0x64\n    /* \"contracts/vendor.sol\":500:533  uint256 public tokensPerEth = 100 */\n  0x02\n  sstore\n    /* \"contracts/vendor.sol\":657:739  constructor(address tokenAddress) {... */\n  callvalue\n  dup1\n  iszero\n  tag_1\n  jumpi\n  0x00\n  dup1\n  revert\ntag_1:\n  pop\n  mload(0x40)\n  sub(codesize, bytecodeSize)\n  dup1\n  bytecodeSize\n  dup4\n  codecopy\n  dup2\n  dup2\n  add\n  0x40\n  mstore\n  dup2\n  add\n  swap1\n  tag_2\n  swap2\n  swap1\n  tag_3\n  jump\t// in\ntag_2:\n    /* \"@openzeppelin/contracts/access/Ownable.sol\":936:968  _transferOwnership(_msgSender()) */\n  tag_7\n    /* \"@openzeppelin/contracts/access/Ownable.sol\":955:967  _msgSender() */\n  tag_8\n    /* \"@openzeppelin/contracts/access/Ownable.sol\":955:965  _msgSender */\n  shl(0x20, tag_9)\n    /* \"@openzeppelin/contracts/access/Ownable.sol\":955:967  _msgSender() */\n  0x20\n  shr\n  jump\t// in\ntag_8:\n    /* \"@openzeppelin/contracts/access/Ownable.sol\":936:954  _transferOwnership */\n  shl(0x20, tag_10)\n    /* \"@openzeppelin/contracts/access/Ownable.sol\":936:968  _transferOwnership(_msgSender()) */\n  0x20\n  shr\n  jump\t// in\ntag_7:\n    /* \"contracts/vendor.sol\":720:732  tokenAddress */\n  dup1\n    /* \"contracts/vendor.sol\":698:707  yourToken */\n  0x01\n  0x00\n    /* \"contracts/vendor.sol\":698:733  yourToken = YourToken(tokenAddress) */\n  0x0100\n  exp\n  dup2\n  sload\n  dup2\n  0xffffffffffffffffffffffffffffffffffffffff\n  mul\n  not\n  and\n  swap1\n  dup4\n  0xffffffffffffffffffffffffffffffffffffffff\n  and\n  mul\n  or\n  swap1\n  sstore\n  pop\n    /* \"contracts/vendor.sol\":657:739  constructor(address tokenAddress) {... */\n  pop\n    /* \"contracts/vendor.sol\":391:1903  contract Vendor is Ownable {... */\n  jump(tag_12)\n    /* \"@openzeppelin/contracts/utils/Context.sol\":640:736  function _msgSender() internal view virtual returns (address) {... */\ntag_9:\n    /* \"@openzeppelin/contracts/utils/Context.sol\":693:700  address */\n  0x00\n    /* \"@openzeppelin/contracts/utils/Context.sol\":719:729  msg.sender */\n  caller\n    /* \"@openzeppelin/contracts/utils/Context.sol\":712:729  return msg.sender */\n  swap1\n  pop\n    /* \"@openzeppelin/contracts/utils/Context.sol\":640:736  function _msgSender() internal view virtual returns (address) {... */\n  swap1\n  jump\t// out\n    /* \"@openzeppelin/contracts/access/Ownable.sol\":2426:2613  function _transferOwnership(address newOwner) internal virtual {... */\ntag_10:\n    /* \"@openzeppelin/contracts/access/Ownable.sol\":2499:2515  address oldOwner */\n  0x00\n    /* \"@openzeppelin/contracts/access/Ownable.sol\":2518:2524  _owner */\n  dup1\n  0x00\n  swap1\n  sload\n  swap1\n  0x0100\n  exp\n  swap1\n  div\n  0xffffffffffffffffffffffffffffffffffffffff\n  and\n    /* \"@openzeppelin/contracts/access/Ownable.sol\":2499:2524  address oldOwner = _owner */\n  swap1\n  pop\n    /* \"@openzeppelin/contracts/access/Ownable.sol\":2543:2551  newOwner */\n  dup2\n    /* \"@openzeppelin/contracts/access/Ownable.sol\":2534:2540  _owner */\n  0x00\n  dup1\n    /* \"@openzeppelin/contracts/access/Ownable.sol\":2534:2551  _owner = newOwner */\n  0x0100\n  exp\n  dup2\n  sload\n  dup2\n  0xffffffffffffffffffffffffffffffffffffffff\n  mul\n  not\n  and\n  swap1\n  dup4\n  0xffffffffffffffffffffffffffffffffffffffff\n  and\n  mul\n  or\n  swap1\n  sstore\n  pop\n    /* \"@openzeppelin/contracts/access/Ownable.sol\":2597:2605  newOwner */\n  dup2\n    /* \"@openzeppelin/contracts/access/Ownable.sol\":2566:2606  OwnershipTransferred(oldOwner, newOwner) */\n  0xffffffffffffffffffffffffffffffffffffffff\n  and\n    /* \"@openzeppelin/contracts/access/Ownable.sol\":2587:2595  oldOwner */\n  dup2\n    /* \"@openzeppelin/contracts/access/Ownable.sol\":2566:2606  OwnershipTransferred(oldOwner, newOwner) */\n  0xffffffffffffffffffffffffffffffffffffffff\n  and\n  0x8be0079c531659141344cd1fd0a4f28419497f9722a3daafe3b4186f6b6457e0\n  mload(0x40)\n  mload(0x40)\n  dup1\n  swap2\n  sub\n  swap1\n  log3\n    /* \"@openzeppelin/contracts/access/Ownable.sol\":2489:2613  {... */\n  pop\n    /* \"@openzeppelin/contracts/access/Ownable.sol\":2426:2613  function _transferOwnership(address newOwner) internal virtual {... */\n  pop\n  jump\t// out\n    /* \"#utility.yul\":88:205   */\ntag_16:\n    /* \"#utility.yul\":197:198   */\n  0x00\n    /* \"#utility.yul\":194:195   */\n  dup1\n    /* \"#utility.yul\":187:199   */\n  revert\n    /* \"#utility.yul\":334:460   */\ntag_18:\n    /* \"#utility.yul\":371:378   */\n  0x00\n    /* \"#utility.yul\":411:453   */\n  0xffffffffffffffffffffffffffffffffffffffff\n    /* \"#utility.yul\":404:409   */\n  dup3\n    /* \"#utility.yul\":400:454   */\n  and\n    /* \"#utility.yul\":389:454   */\n  swap1\n  pop\n    /* \"#utility.yul\":334:460   */\n  swap2\n  swap1\n  pop\n  jump\t// out\n    /* \"#utility.yul\":466:562   */\ntag_19:\n    /* \"#utility.yul\":503:510   */\n  0x00\n    /* \"#utility.yul\":532:556   */\n  tag_28\n    /* \"#utility.yul\":550:555   */\n  dup3\n    /* \"#utility.yul\":532:556   */\n  tag_18\n  jump\t// in\ntag_28:\n    /* \"#utility.yul\":521:556   */\n  swap1\n  pop\n    /* \"#utility.yul\":466:562   */\n  swap2\n  swap1\n  pop\n  jump\t// out\n    /* \"#utility.yul\":568:690   */\ntag_20:\n    /* \"#utility.yul\":641:665   */\n  tag_30\n    /* \"#utility.yul\":659:664   */\n  dup2\n    /* \"#utility.yul\":641:665   */\n  tag_19\n  jump\t// in\ntag_30:\n    /* \"#utility.yul\":634:639   */\n  dup2\n    /* \"#utility.yul\":631:666   */\n  eq\n    /* \"#utility.yul\":621:684   */\n  tag_31\n  jumpi\n    /* \"#utility.yul\":680:681   */\n  0x00\n    /* \"#utility.yul\":677:678   */\n  dup1\n    /* \"#utility.yul\":670:682   */\n  revert\n    /* \"#utility.yul\":621:684   */\ntag_31:\n    /* \"#utility.yul\":568:690   */\n  pop\n  jump\t// out\n    /* \"#utility.yul\":696:839   */\ntag_21:\n    /* \"#utility.yul\":753:758   */\n  0x00\n    /* \"#utility.yul\":784:790   */\n  dup2\n    /* \"#utility.yul\":778:791   */\n  mload\n    /* \"#utility.yul\":769:791   */\n  swap1\n  pop\n    /* \"#utility.yul\":800:833   */\n  tag_33\n    /* \"#utility.yul\":827:832   */\n  dup2\n    /* \"#utility.yul\":800:833   */\n  tag_20\n  jump\t// in\ntag_33:\n    /* \"#utility.yul\":696:839   */\n  swap3\n  swap2\n  pop\n  pop\n  jump\t// out\n    /* \"#utility.yul\":845:1196   */\ntag_3:\n    /* \"#utility.yul\":915:921   */\n  0x00\n    /* \"#utility.yul\":964:966   */\n  0x20\n    /* \"#utility.yul\":952:961   */\n  dup3\n    /* \"#utility.yul\":943:950   */\n  dup5\n    /* \"#utility.yul\":939:962   */\n  sub\n    /* \"#utility.yul\":935:967   */\n  slt\n    /* \"#utility.yul\":932:1051   */\n  iszero\n  tag_35\n  jumpi\n    /* \"#utility.yul\":970:1049   */\n  tag_36\n  tag_16\n  jump\t// in\ntag_36:\n    /* \"#utility.yul\":932:1051   */\ntag_35:\n    /* \"#utility.yul\":1090:1091   */\n  0x00\n    /* \"#utility.yul\":1115:1179   */\n  tag_37\n    /* \"#utility.yul\":1171:1178   */\n  dup5\n    /* \"#utility.yul\":1162:1168   */\n  dup3\n    /* \"#utility.yul\":1151:1160   */\n  dup6\n    /* \"#utility.yul\":1147:1169   */\n  add\n    /* \"#utility.yul\":1115:1179   */\n  tag_21\n  jump\t// in\ntag_37:\n    /* \"#utility.yul\":1105:1179   */\n  swap2\n  pop\n    /* \"#utility.yul\":1061:1189   */\n  pop\n    /* \"#utility.yul\":845:1196   */\n  swap3\n  swap2\n  pop\n  pop\n  jump\t// out\n    /* \"contracts/vendor.sol\":391:1903  contract Vendor is Ownable {... */\ntag_12:\n  dataSize(sub_0)\n  dup1\n  dataOffset(sub_0)\n  0x00\n  codecopy\n  0x00\n  return\nstop\n\nsub_0: assembly {\n        /* \"contracts/vendor.sol\":391:1903  contract Vendor is Ownable {... */\n      mstore(0x40, 0x80)\n      jumpi(tag_1, lt(calldatasize, 0x04))\n      shr(0xe0, calldataload(0x00))\n      dup1\n      0x3ccfd60b\n      eq\n      tag_2\n      jumpi\n      dup1\n      0x715018a6\n      eq\n      tag_3\n      jumpi\n      dup1\n      0x8da5cb5b\n      eq\n      tag_4\n      jumpi\n      dup1\n      0xcbdd69b5\n      eq\n      tag_5\n      jumpi\n      dup1\n      0xd0febe4c\n      eq\n      tag_6\n      jumpi\n      dup1\n      0xf2fde38b\n      eq\n      tag_7\n      jumpi\n    tag_1:\n      0x00\n      dup1\n      revert\n        /* \"contracts/vendor.sol\":1595:1900  function withdraw() public onlyOwner {... */\n    tag_2:\n      callvalue\n      dup1\n      iszero\n      tag_8\n      jumpi\n      0x00\n      dup1\n      revert\n    tag_8:\n      pop\n      tag_9\n      tag_10\n      jump\t// in\n    tag_9:\n      stop\n        /* \"@openzeppelin/contracts/access/Ownable.sol\":1824:1925  function renounceOwnership() public virtual onlyOwner {... */\n    tag_3:\n      callvalue\n      dup1\n      iszero\n      tag_11\n      jumpi\n      0x00\n      dup1\n      revert\n    tag_11:\n      pop\n      tag_12\n      tag_13\n      jump\t// in\n    tag_12:\n      stop\n        /* \"@openzeppelin/contracts/access/Ownable.sol\":1201:1286  function owner() public view virtual returns (address) {... */\n    tag_4:\n      callvalue\n      dup1\n      iszero\n      tag_14\n      jumpi\n      0x00\n      dup1\n      revert\n    tag_14:\n      pop\n      tag_15\n      tag_16\n      jump\t// in\n    tag_15:\n      mload(0x40)\n      tag_17\n      swap2\n      swap1\n      tag_18\n      jump\t// in\n    tag_17:\n      mload(0x40)\n      dup1\n      swap2\n      sub\n      swap1\n      return\n        /* \"contracts/vendor.sol\":500:533  uint256 public tokensPerEth = 100 */\n    tag_5:\n      callvalue\n      dup1\n      iszero\n      tag_19\n      jumpi\n      0x00\n      dup1\n      revert\n    tag_19:\n      pop\n      tag_20\n      tag_21\n      jump\t// in\n    tag_20:\n      mload(0x40)\n      tag_22\n      swap2\n      swap1\n      tag_23\n      jump\t// in\n    tag_22:\n      mload(0x40)\n      dup1\n      swap2\n      sub\n      swap1\n      return\n        /* \"contracts/vendor.sol\":804:1515  function buyTokens() public payable returns (uint256 tokenAmount) {... */\n    tag_6:\n      tag_24\n      tag_25\n      jump\t// in\n    tag_24:\n      mload(0x40)\n      tag_26\n      swap2\n      swap1\n      tag_23\n      jump\t// in\n    tag_26:\n      mload(0x40)\n      dup1\n      swap2\n      sub\n      swap1\n      return\n        /* \"@openzeppelin/contracts/access/Ownable.sol\":2074:2272  function transferOwnership(address newOwner) public virtual onlyOwner {... */\n    tag_7:\n      callvalue\n      dup1\n      iszero\n      tag_27\n      jumpi\n      0x00\n      dup1\n      revert\n    tag_27:\n      pop\n      tag_28\n      0x04\n      dup1\n      calldatasize\n      sub\n      dup2\n      add\n      swap1\n      tag_29\n      swap2\n      swap1\n      tag_30\n      jump\t// in\n    tag_29:\n      tag_31\n      jump\t// in\n    tag_28:\n      stop\n        /* \"contracts/vendor.sol\":1595:1900  function withdraw() public onlyOwner {... */\n    tag_10:\n        /* \"@openzeppelin/contracts/access/Ownable.sol\":1094:1107  _checkOwner() */\n      tag_33\n        /* \"@openzeppelin/contracts/access/Ownable.sol\":1094:1105  _checkOwner */\n      tag_34\n        /* \"@openzeppelin/contracts/access/Ownable.sol\":1094:1107  _checkOwner() */\n      jump\t// in\n    tag_33:\n        /* \"contracts/vendor.sol\":1639:1659  uint256 ownerBalance */\n      0x00\n        /* \"contracts/vendor.sol\":1662:1683  address(this).balance */\n      selfbalance\n        /* \"contracts/vendor.sol\":1639:1683  uint256 ownerBalance = address(this).balance */\n      swap1\n      pop\n        /* \"contracts/vendor.sol\":1713:1714  0 */\n      0x00\n        /* \"contracts/vendor.sol\":1698:1710  ownerBalance */\n      dup2\n        /* \"contracts/vendor.sol\":1698:1714  ownerBalance > 0 */\n      gt\n        /* \"contracts/vendor.sol\":1690:1752  require(ownerBalance > 0, \"Owner has not balance to withdraw\") */\n      tag_36\n      jumpi\n      mload(0x40)\n      0x08c379a000000000000000000000000000000000000000000000000000000000\n      dup2\n      mstore\n      0x04\n      add\n      tag_37\n      swap1\n      tag_38\n      jump\t// in\n    tag_37:\n      mload(0x40)\n      dup1\n      swap2\n      sub\n      swap1\n      revert\n    tag_36:\n        /* \"contracts/vendor.sol\":1762:1771  bool sent */\n      0x00\n        /* \"contracts/vendor.sol\":1776:1786  msg.sender */\n      caller\n        /* \"contracts/vendor.sol\":1776:1791  msg.sender.call */\n      0xffffffffffffffffffffffffffffffffffffffff\n      and\n        /* \"contracts/vendor.sol\":1799:1820  address(this).balance */\n      selfbalance\n        /* \"contracts/vendor.sol\":1776:1825  msg.sender.call{value: address(this).balance}(\"\") */\n      mload(0x40)\n      tag_39\n      swap1\n      tag_40\n      jump\t// in\n    tag_39:\n      0x00\n      mload(0x40)\n      dup1\n      dup4\n      sub\n      dup2\n      dup6\n      dup8\n      gas\n      call\n      swap3\n      pop\n      pop\n      pop\n      returndatasize\n      dup1\n      0x00\n      dup2\n      eq\n      tag_43\n      jumpi\n      mload(0x40)\n      swap2\n      pop\n      and(add(returndatasize, 0x3f), not(0x1f))\n      dup3\n      add\n      0x40\n      mstore\n      returndatasize\n      dup3\n      mstore\n      returndatasize\n      0x00\n      0x20\n      dup5\n      add\n      returndatacopy\n      jump(tag_42)\n    tag_43:\n      0x60\n      swap2\n      pop\n    tag_42:\n      pop\n        /* \"contracts/vendor.sol\":1761:1825  (bool sent,) = msg.sender.call{value: address(this).balance}(\"\") */\n      pop\n      swap1\n      pop\n        /* \"contracts/vendor.sol\":1840:1844  sent */\n      dup1\n        /* \"contracts/vendor.sol\":1832:1894  require(sent, \"Failed to send user balance back to the owner\") */\n      tag_44\n      jumpi\n      mload(0x40)\n      0x08c379a000000000000000000000000000000000000000000000000000000000\n      dup2\n      mstore\n      0x04\n      add\n      tag_45\n      swap1\n      tag_46\n      jump\t// in\n    tag_45:\n      mload(0x40)\n      dup1\n      swap2\n      sub\n      swap1\n      revert\n    tag_44:\n        /* \"contracts/vendor.sol\":1632:1900  {... */\n      pop\n      pop\n        /* \"contracts/vendor.sol\":1595:1900  function withdraw() public onlyOwner {... */\n      jump\t// out\n        /* \"@openzeppelin/contracts/access/Ownable.sol\":1824:1925  function renounceOwnership() public virtual onlyOwner {... */\n    tag_13:\n        /* \"@openzeppelin/contracts/access/Ownable.sol\":1094:1107  _checkOwner() */\n      tag_48\n        /* \"@openzeppelin/contracts/access/Ownable.sol\":1094:1105  _checkOwner */\n      tag_34\n        /* \"@openzeppelin/contracts/access/Ownable.sol\":1094:1107  _checkOwner() */\n      jump\t// in\n    tag_48:\n        /* \"@openzeppelin/contracts/access/Ownable.sol\":1888:1918  _transferOwnership(address(0)) */\n      tag_50\n        /* \"@openzeppelin/contracts/access/Ownable.sol\":1915:1916  0 */\n      0x00\n        /* \"@openzeppelin/contracts/access/Ownable.sol\":1888:1906  _transferOwnership */\n      tag_51\n        /* \"@openzeppelin/contracts/access/Ownable.sol\":1888:1918  _transferOwnership(address(0)) */\n      jump\t// in\n    tag_50:\n        /* \"@openzeppelin/contracts/access/Ownable.sol\":1824:1925  function renounceOwnership() public virtual onlyOwner {... */\n      jump\t// out\n        /* \"@openzeppelin/contracts/access/Ownable.sol\":1201:1286  function owner() public view virtual returns (address) {... */\n    tag_16:\n        /* \"@openzeppelin/contracts/access/Ownable.sol\":1247:1254  address */\n      0x00\n        /* \"@openzeppelin/contracts/access/Ownable.sol\":1273:1279  _owner */\n      dup1\n      0x00\n      swap1\n      sload\n      swap1\n      0x0100\n      exp\n      swap1\n      div\n      0xffffffffffffffffffffffffffffffffffffffff\n      and\n        /* \"@openzeppelin/contracts/access/Ownable.sol\":1266:1279  return _owner */\n      swap1\n      pop\n        /* \"@openzeppelin/contracts/access/Ownable.sol\":1201:1286  function owner() public view virtual returns (address) {... */\n      swap1\n      jump\t// out\n        /* \"contracts/vendor.sol\":500:533  uint256 public tokensPerEth = 100 */\n    tag_21:\n      sload(0x02)\n      dup2\n      jump\t// out\n        /* \"contracts/vendor.sol\":804:1515  function buyTokens() public payable returns (uint256 tokenAmount) {... */\n    tag_25:\n        /* \"contracts/vendor.sol\":849:868  uint256 tokenAmount */\n      0x00\n        /* \"contracts/vendor.sol\":897:898  0 */\n      dup1\n        /* \"contracts/vendor.sol\":885:894  msg.value */\n      callvalue\n        /* \"contracts/vendor.sol\":885:898  msg.value > 0 */\n      gt\n        /* \"contracts/vendor.sol\":877:930  require(msg.value > 0, \"Send ETH to buy some tokens\") */\n      tag_54\n      jumpi\n      mload(0x40)\n      0x08c379a000000000000000000000000000000000000000000000000000000000\n      dup2\n      mstore\n      0x04\n      add\n      tag_55\n      swap1\n      tag_56\n      jump\t// in\n    tag_55:\n      mload(0x40)\n      dup1\n      swap2\n      sub\n      swap1\n      revert\n    tag_54:\n        /* \"contracts/vendor.sol\":939:958  uint256 amountToBuy */\n      0x00\n        /* \"contracts/vendor.sol\":973:985  tokensPerEth */\n      sload(0x02)\n        /* \"contracts/vendor.sol\":961:970  msg.value */\n      callvalue\n        /* \"contracts/vendor.sol\":961:985  msg.value * tokensPerEth */\n      tag_57\n      swap2\n      swap1\n      tag_58\n      jump\t// in\n    tag_57:\n        /* \"contracts/vendor.sol\":939:985  uint256 amountToBuy = msg.value * tokensPerEth */\n      swap1\n      pop\n        /* \"contracts/vendor.sol\":1079:1100  uint256 vendorBalance */\n      0x00\n        /* \"contracts/vendor.sol\":1103:1112  yourToken */\n      0x01\n      0x00\n      swap1\n      sload\n      swap1\n      0x0100\n      exp\n      swap1\n      div\n      0xffffffffffffffffffffffffffffffffffffffff\n      and\n        /* \"contracts/vendor.sol\":1103:1122  yourToken.balanceOf */\n      0xffffffffffffffffffffffffffffffffffffffff\n      and\n      0x70a08231\n        /* \"contracts/vendor.sol\":1131:1135  this */\n      address\n        /* \"contracts/vendor.sol\":1103:1137  yourToken.balanceOf(address(this)) */\n      mload(0x40)\n      dup3\n      0xffffffff\n      and\n      0xe0\n      shl\n      dup2\n      mstore\n      0x04\n      add\n      tag_59\n      swap2\n      swap1\n      tag_18\n      jump\t// in\n    tag_59:\n      0x20\n      mload(0x40)\n      dup1\n      dup4\n      sub\n      dup2\n      dup7\n      gas\n      staticcall\n      iszero\n      dup1\n      iszero\n      tag_61\n      jumpi\n      returndatasize\n      0x00\n      dup1\n      returndatacopy\n      revert(0x00, returndatasize)\n    tag_61:\n      pop\n      pop\n      pop\n      pop\n      mload(0x40)\n      returndatasize\n      not(0x1f)\n      0x1f\n      dup3\n      add\n      and\n      dup3\n      add\n      dup1\n      0x40\n      mstore\n      pop\n      dup2\n      add\n      swap1\n      tag_62\n      swap2\n      swap1\n      tag_63\n      jump\t// in\n    tag_62:\n        /* \"contracts/vendor.sol\":1079:1137  uint256 vendorBalance = yourToken.balanceOf(address(this)) */\n      swap1\n      pop\n        /* \"contracts/vendor.sol\":1169:1180  amountToBuy */\n      dup2\n        /* \"contracts/vendor.sol\":1152:1165  vendorBalance */\n      dup2\n        /* \"contracts/vendor.sol\":1152:1180  vendorBalance >= amountToBuy */\n      lt\n      iszero\n        /* \"contracts/vendor.sol\":1144:1237  require(vendorBalance >= amountToBuy, \"Vendor contract has not enough tokens in its balance\") */\n      tag_64\n      jumpi\n      mload(0x40)\n      0x08c379a000000000000000000000000000000000000000000000000000000000\n      dup2\n      mstore\n      0x04\n      add\n      tag_65\n      swap1\n      tag_66\n      jump\t// in\n    tag_65:\n      mload(0x40)\n      dup1\n      swap2\n      sub\n      swap1\n      revert\n    tag_64:\n        /* \"contracts/vendor.sol\":1288:1297  bool sent */\n      0x00\n        /* \"contracts/vendor.sol\":1301:1310  yourToken */\n      0x01\n      0x00\n      swap1\n      sload\n      swap1\n      0x0100\n      exp\n      swap1\n      div\n      0xffffffffffffffffffffffffffffffffffffffff\n      and\n        /* \"contracts/vendor.sol\":1301:1319  yourToken.transfer */\n      0xffffffffffffffffffffffffffffffffffffffff\n      and\n      0xa9059cbb\n        /* \"contracts/vendor.sol\":1320:1330  msg.sender */\n      caller\n        /* \"contracts/vendor.sol\":1332:1343  amountToBuy */\n      dup6\n        /* \"contracts/vendor.sol\":1301:1344  yourToken.transfer(msg.sender, amountToBuy) */\n      mload(0x40)\n      dup4\n      0xffffffff\n      and\n      0xe0\n      shl\n      dup2\n      mstore\n      0x04\n      add\n      tag_67\n      swap3\n      swap2\n      swap1\n      tag_68\n      jump\t// in\n    tag_67:\n      0x20\n      mload(0x40)\n      dup1\n      dup4\n      sub\n      dup2\n      0x00\n      dup8\n      gas\n      call\n      iszero\n      dup1\n      iszero\n      tag_70\n      jumpi\n      returndatasize\n      0x00\n      dup1\n      returndatacopy\n      revert(0x00, returndatasize)\n    tag_70:\n      pop\n      pop\n      pop\n      pop\n      mload(0x40)\n      returndatasize\n      not(0x1f)\n      0x1f\n      dup3\n      add\n      and\n      dup3\n      add\n      dup1\n      0x40\n      mstore\n      pop\n      dup2\n      add\n      swap1\n      tag_71\n      swap2\n      swap1\n      tag_72\n      jump\t// in\n    tag_71:\n        /* \"contracts/vendor.sol\":1287:1344  (bool sent) = yourToken.transfer(msg.sender, amountToBuy) */\n      swap1\n      pop\n        /* \"contracts/vendor.sol\":1359:1363  sent */\n      dup1\n        /* \"contracts/vendor.sol\":1351:1400  require(sent, \"Failed to transfer token to user\") */\n      tag_73\n      jumpi\n      mload(0x40)\n      0x08c379a000000000000000000000000000000000000000000000000000000000\n      dup2\n      mstore\n      0x04\n      add\n      tag_74\n      swap1\n      tag_75\n      jump\t// in\n    tag_74:\n      mload(0x40)\n      dup1\n      swap2\n      sub\n      swap1\n      revert\n    tag_73:\n        /* \"contracts/vendor.sol\":1437:1482  BuyTokens(msg.sender, msg.value, amountToBuy) */\n      0x0a37b72bb67eee30e09084cf386f8a17817c57f620c3ab95fb25d6a20356ec77\n        /* \"contracts/vendor.sol\":1447:1457  msg.sender */\n      caller\n        /* \"contracts/vendor.sol\":1459:1468  msg.value */\n      callvalue\n        /* \"contracts/vendor.sol\":1470:1481  amountToBuy */\n      dup6\n        /* \"contracts/vendor.sol\":1437:1482  BuyTokens(msg.sender, msg.value, amountToBuy) */\n      mload(0x40)\n      tag_76\n      swap4\n      swap3\n      swap2\n      swap1\n      tag_77\n      jump\t// in\n    tag_76:\n      mload(0x40)\n      dup1\n      swap2\n      sub\n      swap1\n      log1\n        /* \"contracts/vendor.sol\":1498:1509  amountToBuy */\n      dup3\n        /* \"contracts/vendor.sol\":1491:1509  return amountToBuy */\n      swap4\n      pop\n      pop\n      pop\n      pop\n        /* \"contracts/vendor.sol\":804:1515  function buyTokens() public payable returns (uint256 tokenAmount) {... */\n      swap1\n      jump\t// out\n        /* \"@openzeppelin/contracts/access/Ownable.sol\":2074:2272  function transferOwnership(address newOwner) public virtual onlyOwner {... */\n    tag_31:\n        /* \"@openzeppelin/contracts/access/Ownable.sol\":1094:1107  _checkOwner() */\n      tag_79\n        /* \"@openzeppelin/contracts/access/Ownable.sol\":1094:1105  _checkOwner */\n      tag_34\n        /* \"@openzeppelin/contracts/access/Ownable.sol\":1094:1107  _checkOwner() */\n      jump\t// in\n    tag_79:\n        /* \"@openzeppelin/contracts/access/Ownable.sol\":2182:2183  0 */\n      0x00\n        /* \"@openzeppelin/contracts/access/Ownable.sol\":2162:2184  newOwner != address(0) */\n      0xffffffffffffffffffffffffffffffffffffffff\n      and\n        /* \"@openzeppelin/contracts/access/Ownable.sol\":2162:2170  newOwner */\n      dup2\n        /* \"@openzeppelin/contracts/access/Ownable.sol\":2162:2184  newOwner != address(0) */\n      0xffffffffffffffffffffffffffffffffffffffff\n      and\n      sub\n        /* \"@openzeppelin/contracts/access/Ownable.sol\":2154:2227  require(newOwner != address(0), \"Ownable: new owner is the zero address\") */\n      tag_81\n      jumpi\n      mload(0x40)\n      0x08c379a000000000000000000000000000000000000000000000000000000000\n      dup2\n      mstore\n      0x04\n      add\n      tag_82\n      swap1\n      tag_83\n      jump\t// in\n    tag_82:\n      mload(0x40)\n      dup1\n      swap2\n      sub\n      swap1\n      revert\n    tag_81:\n        /* \"@openzeppelin/contracts/access/Ownable.sol\":2237:2265  _transferOwnership(newOwner) */\n      tag_84\n        /* \"@openzeppelin/contracts/access/Ownable.sol\":2256:2264  newOwner */\n      dup2\n        /* \"@openzeppelin/contracts/access/Ownable.sol\":2237:2255  _transferOwnership */\n      tag_51\n        /* \"@openzeppelin/contracts/access/Ownable.sol\":2237:2265  _transferOwnership(newOwner) */\n      jump\t// in\n    tag_84:\n        /* \"@openzeppelin/contracts/access/Ownable.sol\":2074:2272  function transferOwnership(address newOwner) public virtual onlyOwner {... */\n      pop\n      jump\t// out\n        /* \"@openzeppelin/contracts/access/Ownable.sol\":1359:1489  function _checkOwner() internal view virtual {... */\n    tag_34:\n        /* \"@openzeppelin/contracts/access/Ownable.sol\":1433:1445  _msgSender() */\n      tag_86\n        /* \"@openzeppelin/contracts/access/Ownable.sol\":1433:1443  _msgSender */\n      tag_87\n        /* \"@openzeppelin/contracts/access/Ownable.sol\":1433:1445  _msgSender() */\n      jump\t// in\n    tag_86:\n        /* \"@openzeppelin/contracts/access/Ownable.sol\":1422:1445  owner() == _msgSender() */\n      0xffffffffffffffffffffffffffffffffffffffff\n      and\n        /* \"@openzeppelin/contracts/access/Ownable.sol\":1422:1429  owner() */\n      tag_88\n        /* \"@openzeppelin/contracts/access/Ownable.sol\":1422:1427  owner */\n      tag_16\n        /* \"@openzeppelin/contracts/access/Ownable.sol\":1422:1429  owner() */\n      jump\t// in\n    tag_88:\n        /* \"@openzeppelin/contracts/access/Ownable.sol\":1422:1445  owner() == _msgSender() */\n      0xffffffffffffffffffffffffffffffffffffffff\n      and\n      eq\n        /* \"@openzeppelin/contracts/access/Ownable.sol\":1414:1482  require(owner() == _msgSender(), \"Ownable: caller is not the owner\") */\n      tag_89\n      jumpi\n      mload(0x40)\n      0x08c379a000000000000000000000000000000000000000000000000000000000\n      dup2\n      mstore\n      0x04\n      add\n      tag_90\n      swap1\n      tag_91\n      jump\t// in\n    tag_90:\n      mload(0x40)\n      dup1\n      swap2\n      sub\n      swap1\n      revert\n    tag_89:\n        /* \"@openzeppelin/contracts/access/Ownable.sol\":1359:1489  function _checkOwner() internal view virtual {... */\n      jump\t// out\n        /* \"@openzeppelin/contracts/access/Ownable.sol\":2426:2613  function _transferOwnership(address newOwner) internal virtual {... */\n    tag_51:\n        /* \"@openzeppelin/contracts/access/Ownable.sol\":2499:2515  address oldOwner */\n      0x00\n        /* \"@openzeppelin/contracts/access/Ownable.sol\":2518:2524  _owner */\n      dup1\n      0x00\n      swap1\n      sload\n      swap1\n      0x0100\n      exp\n      swap1\n      div\n      0xffffffffffffffffffffffffffffffffffffffff\n      and\n        /* \"@openzeppelin/contracts/access/Ownable.sol\":2499:2524  address oldOwner = _owner */\n      swap1\n      pop\n        /* \"@openzeppelin/contracts/access/Ownable.sol\":2543:2551  newOwner */\n      dup2\n        /* \"@openzeppelin/contracts/access/Ownable.sol\":2534:2540  _owner */\n      0x00\n      dup1\n        /* \"@openzeppelin/contracts/access/Ownable.sol\":2534:2551  _owner = newOwner */\n      0x0100\n      exp\n      dup2\n      sload\n      dup2\n      0xffffffffffffffffffffffffffffffffffffffff\n      mul\n      not\n      and\n      swap1\n      dup4\n      0xffffffffffffffffffffffffffffffffffffffff\n      and\n      mul\n      or\n      swap1\n      sstore\n      pop\n        /* \"@openzeppelin/contracts/access/Ownable.sol\":2597:2605  newOwner */\n      dup2\n        /* \"@openzeppelin/contracts/access/Ownable.sol\":2566:2606  OwnershipTransferred(oldOwner, newOwner) */\n      0xffffffffffffffffffffffffffffffffffffffff\n      and\n        /* \"@openzeppelin/contracts/access/Ownable.sol\":2587:2595  oldOwner */\n      dup2\n        /* \"@openzeppelin/contracts/access/Ownable.sol\":2566:2606  OwnershipTransferred(oldOwner, newOwner) */\n      0xffffffffffffffffffffffffffffffffffffffff\n      and\n      0x8be0079c531659141344cd1fd0a4f28419497f9722a3daafe3b4186f6b6457e0\n      mload(0x40)\n      mload(0x40)\n      dup1\n      swap2\n      sub\n      swap1\n      log3\n        /* \"@openzeppelin/contracts/access/Ownable.sol\":2489:2613  {... */\n      pop\n        /* \"@openzeppelin/contracts/access/Ownable.sol\":2426:2613  function _transferOwnership(address newOwner) internal virtual {... */\n      pop\n      jump\t// out\n        /* \"@openzeppelin/contracts/utils/Context.sol\":640:736  function _msgSender() internal view virtual returns (address) {... */\n    tag_87:\n        /* \"@openzeppelin/contracts/utils/Context.sol\":693:700  address */\n      0x00\n        /* \"@openzeppelin/contracts/utils/Context.sol\":719:729  msg.sender */\n      caller\n        /* \"@openzeppelin/contracts/utils/Context.sol\":712:729  return msg.sender */\n      swap1\n      pop\n        /* \"@openzeppelin/contracts/utils/Context.sol\":640:736  function _msgSender() internal view virtual returns (address) {... */\n      swap1\n      jump\t// out\n        /* \"#utility.yul\":7:133   */\n    tag_94:\n        /* \"#utility.yul\":44:51   */\n      0x00\n        /* \"#utility.yul\":84:126   */\n      0xffffffffffffffffffffffffffffffffffffffff\n        /* \"#utility.yul\":77:82   */\n      dup3\n        /* \"#utility.yul\":73:127   */\n      and\n        /* \"#utility.yul\":62:127   */\n      swap1\n      pop\n        /* \"#utility.yul\":7:133   */\n      swap2\n      swap1\n      pop\n      jump\t// out\n        /* \"#utility.yul\":139:235   */\n    tag_95:\n        /* \"#utility.yul\":176:183   */\n      0x00\n        /* \"#utility.yul\":205:229   */\n      tag_131\n        /* \"#utility.yul\":223:228   */\n      dup3\n        /* \"#utility.yul\":205:229   */\n      tag_94\n      jump\t// in\n    tag_131:\n        /* \"#utility.yul\":194:229   */\n      swap1\n      pop\n        /* \"#utility.yul\":139:235   */\n      swap2\n      swap1\n      pop\n      jump\t// out\n        /* \"#utility.yul\":241:359   */\n    tag_96:\n        /* \"#utility.yul\":328:352   */\n      tag_133\n        /* \"#utility.yul\":346:351   */\n      dup2\n        /* \"#utility.yul\":328:352   */\n      tag_95\n      jump\t// in\n    tag_133:\n        /* \"#utility.yul\":323:326   */\n      dup3\n        /* \"#utility.yul\":316:353   */\n      mstore\n        /* \"#utility.yul\":241:359   */\n      pop\n      pop\n      jump\t// out\n        /* \"#utility.yul\":365:587   */\n    tag_18:\n        /* \"#utility.yul\":458:462   */\n      0x00\n        /* \"#utility.yul\":496:498   */\n      0x20\n        /* \"#utility.yul\":485:494   */\n      dup3\n        /* \"#utility.yul\":481:499   */\n      add\n        /* \"#utility.yul\":473:499   */\n      swap1\n      pop\n        /* \"#utility.yul\":509:580   */\n      tag_135\n        /* \"#utility.yul\":577:578   */\n      0x00\n        /* \"#utility.yul\":566:575   */\n      dup4\n        /* \"#utility.yul\":562:579   */\n      add\n        /* \"#utility.yul\":553:559   */\n      dup5\n        /* \"#utility.yul\":509:580   */\n      tag_96\n      jump\t// in\n    tag_135:\n        /* \"#utility.yul\":365:587   */\n      swap3\n      swap2\n      pop\n      pop\n      jump\t// out\n        /* \"#utility.yul\":593:670   */\n    tag_97:\n        /* \"#utility.yul\":630:637   */\n      0x00\n        /* \"#utility.yul\":659:664   */\n      dup2\n        /* \"#utility.yul\":648:664   */\n      swap1\n      pop\n        /* \"#utility.yul\":593:670   */\n      swap2\n      swap1\n      pop\n      jump\t// out\n        /* \"#utility.yul\":676:794   */\n    tag_98:\n        /* \"#utility.yul\":763:787   */\n      tag_138\n        /* \"#utility.yul\":781:786   */\n      dup2\n        /* \"#utility.yul\":763:787   */\n      tag_97\n      jump\t// in\n    tag_138:\n        /* \"#utility.yul\":758:761   */\n      dup3\n        /* \"#utility.yul\":751:788   */\n      mstore\n        /* \"#utility.yul\":676:794   */\n      pop\n      pop\n      jump\t// out\n        /* \"#utility.yul\":800:1022   */\n    tag_23:\n        /* \"#utility.yul\":893:897   */\n      0x00\n        /* \"#utility.yul\":931:933   */\n      0x20\n        /* \"#utility.yul\":920:929   */\n      dup3\n        /* \"#utility.yul\":916:934   */\n      add\n        /* \"#utility.yul\":908:934   */\n      swap1\n      pop\n        /* \"#utility.yul\":944:1015   */\n      tag_140\n        /* \"#utility.yul\":1012:1013   */\n      0x00\n        /* \"#utility.yul\":1001:1010   */\n      dup4\n        /* \"#utility.yul\":997:1014   */\n      add\n        /* \"#utility.yul\":988:994   */\n      dup5\n        /* \"#utility.yul\":944:1015   */\n      tag_98\n      jump\t// in\n    tag_140:\n        /* \"#utility.yul\":800:1022   */\n      swap3\n      swap2\n      pop\n      pop\n      jump\t// out\n        /* \"#utility.yul\":1109:1226   */\n    tag_100:\n        /* \"#utility.yul\":1218:1219   */\n      0x00\n        /* \"#utility.yul\":1215:1216   */\n      dup1\n        /* \"#utility.yul\":1208:1220   */\n      revert\n        /* \"#utility.yul\":1355:1477   */\n    tag_102:\n        /* \"#utility.yul\":1428:1452   */\n      tag_145\n        /* \"#utility.yul\":1446:1451   */\n      dup2\n        /* \"#utility.yul\":1428:1452   */\n      tag_95\n      jump\t// in\n    tag_145:\n        /* \"#utility.yul\":1421:1426   */\n      dup2\n        /* \"#utility.yul\":1418:1453   */\n      eq\n        /* \"#utility.yul\":1408:1471   */\n      tag_146\n      jumpi\n        /* \"#utility.yul\":1467:1468   */\n      0x00\n        /* \"#utility.yul\":1464:1465   */\n      dup1\n        /* \"#utility.yul\":1457:1469   */\n      revert\n        /* \"#utility.yul\":1408:1471   */\n    tag_146:\n        /* \"#utility.yul\":1355:1477   */\n      pop\n      jump\t// out\n        /* \"#utility.yul\":1483:1622   */\n    tag_103:\n        /* \"#utility.yul\":1529:1534   */\n      0x00\n        /* \"#utility.yul\":1567:1573   */\n      dup2\n        /* \"#utility.yul\":1554:1574   */\n      calldataload\n        /* \"#utility.yul\":1545:1574   */\n      swap1\n      pop\n        /* \"#utility.yul\":1583:1616   */\n      tag_148\n        /* \"#utility.yul\":1610:1615   */\n      dup2\n        /* \"#utility.yul\":1583:1616   */\n      tag_102\n      jump\t// in\n    tag_148:\n        /* \"#utility.yul\":1483:1622   */\n      swap3\n      swap2\n      pop\n      pop\n      jump\t// out\n        /* \"#utility.yul\":1628:1957   */\n    tag_30:\n        /* \"#utility.yul\":1687:1693   */\n      0x00\n        /* \"#utility.yul\":1736:1738   */\n      0x20\n        /* \"#utility.yul\":1724:1733   */\n      dup3\n        /* \"#utility.yul\":1715:1722   */\n      dup5\n        /* \"#utility.yul\":1711:1734   */\n      sub\n        /* \"#utility.yul\":1707:1739   */\n      slt\n        /* \"#utility.yul\":1704:1823   */\n      iszero\n      tag_150\n      jumpi\n        /* \"#utility.yul\":1742:1821   */\n      tag_151\n      tag_100\n      jump\t// in\n    tag_151:\n        /* \"#utility.yul\":1704:1823   */\n    tag_150:\n        /* \"#utility.yul\":1862:1863   */\n      0x00\n        /* \"#utility.yul\":1887:1940   */\n      tag_152\n        /* \"#utility.yul\":1932:1939   */\n      dup5\n        /* \"#utility.yul\":1923:1929   */\n      dup3\n        /* \"#utility.yul\":1912:1921   */\n      dup6\n        /* \"#utility.yul\":1908:1930   */\n      add\n        /* \"#utility.yul\":1887:1940   */\n      tag_103\n      jump\t// in\n    tag_152:\n        /* \"#utility.yul\":1877:1940   */\n      swap2\n      pop\n        /* \"#utility.yul\":1833:1950   */\n      pop\n        /* \"#utility.yul\":1628:1957   */\n      swap3\n      swap2\n      pop\n      pop\n      jump\t// out\n        /* \"#utility.yul\":1963:2132   */\n    tag_104:\n        /* \"#utility.yul\":2047:2058   */\n      0x00\n        /* \"#utility.yul\":2081:2087   */\n      dup3\n        /* \"#utility.yul\":2076:2079   */\n      dup3\n        /* \"#utility.yul\":2069:2088   */\n      mstore\n        /* \"#utility.yul\":2121:2125   */\n      0x20\n        /* \"#utility.yul\":2116:2119   */\n      dup3\n        /* \"#utility.yul\":2112:2126   */\n      add\n        /* \"#utility.yul\":2097:2126   */\n      swap1\n      pop\n        /* \"#utility.yul\":1963:2132   */\n      swap3\n      swap2\n      pop\n      pop\n      jump\t// out\n        /* \"#utility.yul\":2138:2358   */\n    tag_105:\n        /* \"#utility.yul\":2278:2312   */\n      0x4f776e657220686173206e6f742062616c616e636520746f2077697468647261\n        /* \"#utility.yul\":2274:2275   */\n      0x00\n        /* \"#utility.yul\":2266:2272   */\n      dup3\n        /* \"#utility.yul\":2262:2276   */\n      add\n        /* \"#utility.yul\":2255:2313   */\n      mstore\n        /* \"#utility.yul\":2347:2350   */\n      0x7700000000000000000000000000000000000000000000000000000000000000\n        /* \"#utility.yul\":2342:2344   */\n      0x20\n        /* \"#utility.yul\":2334:2340   */\n      dup3\n        /* \"#utility.yul\":2330:2345   */\n      add\n        /* \"#utility.yul\":2323:2351   */\n      mstore\n        /* \"#utility.yul\":2138:2358   */\n      pop\n      jump\t// out\n        /* \"#utility.yul\":2364:2730   */\n    tag_106:\n        /* \"#utility.yul\":2506:2509   */\n      0x00\n        /* \"#utility.yul\":2527:2594   */\n      tag_156\n        /* \"#utility.yul\":2591:2593   */\n      0x21\n        /* \"#utility.yul\":2586:2589   */\n      dup4\n        /* \"#utility.yul\":2527:2594   */\n      tag_104\n      jump\t// in\n    tag_156:\n        /* \"#utility.yul\":2520:2594   */\n      swap2\n      pop\n        /* \"#utility.yul\":2603:2696   */\n      tag_157\n        /* \"#utility.yul\":2692:2695   */\n      dup3\n        /* \"#utility.yul\":2603:2696   */\n      tag_105\n      jump\t// in\n    tag_157:\n        /* \"#utility.yul\":2721:2723   */\n      0x40\n        /* \"#utility.yul\":2716:2719   */\n      dup3\n        /* \"#utility.yul\":2712:2724   */\n      add\n        /* \"#utility.yul\":2705:2724   */\n      swap1\n      pop\n        /* \"#utility.yul\":2364:2730   */\n      swap2\n      swap1\n      pop\n      jump\t// out\n        /* \"#utility.yul\":2736:3155   */\n    tag_38:\n        /* \"#utility.yul\":2902:2906   */\n      0x00\n        /* \"#utility.yul\":2940:2942   */\n      0x20\n        /* \"#utility.yul\":2929:2938   */\n      dup3\n        /* \"#utility.yul\":2925:2943   */\n      add\n        /* \"#utility.yul\":2917:2943   */\n      swap1\n      pop\n        /* \"#utility.yul\":2989:2998   */\n      dup2\n        /* \"#utility.yul\":2983:2987   */\n      dup2\n        /* \"#utility.yul\":2979:2999   */\n      sub\n        /* \"#utility.yul\":2975:2976   */\n      0x00\n        /* \"#utility.yul\":2964:2973   */\n      dup4\n        /* \"#utility.yul\":2960:2977   */\n      add\n        /* \"#utility.yul\":2953:3000   */\n      mstore\n        /* \"#utility.yul\":3017:3148   */\n      tag_159\n        /* \"#utility.yul\":3143:3147   */\n      dup2\n        /* \"#utility.yul\":3017:3148   */\n      tag_106\n      jump\t// in\n    tag_159:\n        /* \"#utility.yul\":3009:3148   */\n      swap1\n      pop\n        /* \"#utility.yul\":2736:3155   */\n      swap2\n      swap1\n      pop\n      jump\t// out\n        /* \"#utility.yul\":3161:3308   */\n    tag_107:\n        /* \"#utility.yul\":3262:3273   */\n      0x00\n        /* \"#utility.yul\":3299:3302   */\n      dup2\n        /* \"#utility.yul\":3284:3302   */\n      swap1\n      pop\n        /* \"#utility.yul\":3161:3308   */\n      swap3\n      swap2\n      pop\n      pop\n      jump\t// out\n        /* \"#utility.yul\":3314:3428   */\n    tag_108:\n      pop\n      jump\t// out\n        /* \"#utility.yul\":3434:3832   */\n    tag_109:\n        /* \"#utility.yul\":3593:3596   */\n      0x00\n        /* \"#utility.yul\":3614:3697   */\n      tag_163\n        /* \"#utility.yul\":3695:3696   */\n      0x00\n        /* \"#utility.yul\":3690:3693   */\n      dup4\n        /* \"#utility.yul\":3614:3697   */\n      tag_107\n      jump\t// in\n    tag_163:\n        /* \"#utility.yul\":3607:3697   */\n      swap2\n      pop\n        /* \"#utility.yul\":3706:3799   */\n      tag_164\n        /* \"#utility.yul\":3795:3798   */\n      dup3\n        /* \"#utility.yul\":3706:3799   */\n      tag_108\n      jump\t// in\n    tag_164:\n        /* \"#utility.yul\":3824:3825   */\n      0x00\n        /* \"#utility.yul\":3819:3822   */\n      dup3\n        /* \"#utility.yul\":3815:3826   */\n      add\n        /* \"#utility.yul\":3808:3826   */\n      swap1\n      pop\n        /* \"#utility.yul\":3434:3832   */\n      swap2\n      swap1\n      pop\n      jump\t// out\n        /* \"#utility.yul\":3838:4217   */\n    tag_40:\n        /* \"#utility.yul\":4022:4025   */\n      0x00\n        /* \"#utility.yul\":4044:4191   */\n      tag_166\n        /* \"#utility.yul\":4187:4190   */\n      dup3\n        /* \"#utility.yul\":4044:4191   */\n      tag_109\n      jump\t// in\n    tag_166:\n        /* \"#utility.yul\":4037:4191   */\n      swap2\n      pop\n        /* \"#utility.yul\":4208:4211   */\n      dup2\n        /* \"#utility.yul\":4201:4211   */\n      swap1\n      pop\n        /* \"#utility.yul\":3838:4217   */\n      swap2\n      swap1\n      pop\n      jump\t// out\n        /* \"#utility.yul\":4223:4455   */\n    tag_110:\n        /* \"#utility.yul\":4363:4397   */\n      0x4661696c656420746f2073656e6420757365722062616c616e6365206261636b\n        /* \"#utility.yul\":4359:4360   */\n      0x00\n        /* \"#utility.yul\":4351:4357   */\n      dup3\n        /* \"#utility.yul\":4347:4361   */\n      add\n        /* \"#utility.yul\":4340:4398   */\n      mstore\n        /* \"#utility.yul\":4432:4447   */\n      0x20746f20746865206f776e657200000000000000000000000000000000000000\n        /* \"#utility.yul\":4427:4429   */\n      0x20\n        /* \"#utility.yul\":4419:4425   */\n      dup3\n        /* \"#utility.yul\":4415:4430   */\n      add\n        /* \"#utility.yul\":4408:4448   */\n      mstore\n        /* \"#utility.yul\":4223:4455   */\n      pop\n      jump\t// out\n        /* \"#utility.yul\":4461:4827   */\n    tag_111:\n        /* \"#utility.yul\":4603:4606   */\n      0x00\n        /* \"#utility.yul\":4624:4691   */\n      tag_169\n        /* \"#utility.yul\":4688:4690   */\n      0x2d\n        /* \"#utility.yul\":4683:4686   */\n      dup4\n        /* \"#utility.yul\":4624:4691   */\n      tag_104\n      jump\t// in\n    tag_169:\n        /* \"#utility.yul\":4617:4691   */\n      swap2\n      pop\n        /* \"#utility.yul\":4700:4793   */\n      tag_170\n        /* \"#utility.yul\":4789:4792   */\n      dup3\n        /* \"#utility.yul\":4700:4793   */\n      tag_110\n      jump\t// in\n    tag_170:\n        /* \"#utility.yul\":4818:4820   */\n      0x40\n        /* \"#utility.yul\":4813:4816   */\n      dup3\n        /* \"#utility.yul\":4809:4821   */\n      add\n        /* \"#utility.yul\":4802:4821   */\n      swap1\n      pop\n        /* \"#utility.yul\":4461:4827   */\n      swap2\n      swap1\n      pop\n      jump\t// out\n        /* \"#utility.yul\":4833:5252   */\n    tag_46:\n        /* \"#utility.yul\":4999:5003   */\n      0x00\n        /* \"#utility.yul\":5037:5039   */\n      0x20\n        /* \"#utility.yul\":5026:5035   */\n      dup3\n        /* \"#utility.yul\":5022:5040   */\n      add\n        /* \"#utility.yul\":5014:5040   */\n      swap1\n      pop\n        /* \"#utility.yul\":5086:5095   */\n      dup2\n        /* \"#utility.yul\":5080:5084   */\n      dup2\n        /* \"#utility.yul\":5076:5096   */\n      sub\n        /* \"#utility.yul\":5072:5073   */\n      0x00\n        /* \"#utility.yul\":5061:5070   */\n      dup4\n        /* \"#utility.yul\":5057:5074   */\n      add\n        /* \"#utility.yul\":5050:5097   */\n      mstore\n        /* \"#utility.yul\":5114:5245   */\n      tag_172\n        /* \"#utility.yul\":5240:5244   */\n      dup2\n        /* \"#utility.yul\":5114:5245   */\n      tag_111\n      jump\t// in\n    tag_172:\n        /* \"#utility.yul\":5106:5245   */\n      swap1\n      pop\n        /* \"#utility.yul\":4833:5252   */\n      swap2\n      swap1\n      pop\n      jump\t// out\n        /* \"#utility.yul\":5258:5435   */\n    tag_112:\n        /* \"#utility.yul\":5398:5427   */\n      0x53656e642045544820746f2062757920736f6d6520746f6b656e730000000000\n        /* \"#utility.yul\":5394:5395   */\n      0x00\n        /* \"#utility.yul\":5386:5392   */\n      dup3\n        /* \"#utility.yul\":5382:5396   */\n      add\n        /* \"#utility.yul\":5375:5428   */\n      mstore\n        /* \"#utility.yul\":5258:5435   */\n      pop\n      jump\t// out\n        /* \"#utility.yul\":5441:5807   */\n    tag_113:\n        /* \"#utility.yul\":5583:5586   */\n      0x00\n        /* \"#utility.yul\":5604:5671   */\n      tag_175\n        /* \"#utility.yul\":5668:5670   */\n      0x1b\n        /* \"#utility.yul\":5663:5666   */\n      dup4\n        /* \"#utility.yul\":5604:5671   */\n      tag_104\n      jump\t// in\n    tag_175:\n        /* \"#utility.yul\":5597:5671   */\n      swap2\n      pop\n        /* \"#utility.yul\":5680:5773   */\n      tag_176\n        /* \"#utility.yul\":5769:5772   */\n      dup3\n        /* \"#utility.yul\":5680:5773   */\n      tag_112\n      jump\t// in\n    tag_176:\n        /* \"#utility.yul\":5798:5800   */\n      0x20\n        /* \"#utility.yul\":5793:5796   */\n      dup3\n        /* \"#utility.yul\":5789:5801   */\n      add\n        /* \"#utility.yul\":5782:5801   */\n      swap1\n      pop\n        /* \"#utility.yul\":5441:5807   */\n      swap2\n      swap1\n      pop\n      jump\t// out\n        /* \"#utility.yul\":5813:6232   */\n    tag_56:\n        /* \"#utility.yul\":5979:5983   */\n      0x00\n        /* \"#utility.yul\":6017:6019   */\n      0x20\n        /* \"#utility.yul\":6006:6015   */\n      dup3\n        /* \"#utility.yul\":6002:6020   */\n      add\n        /* \"#utility.yul\":5994:6020   */\n      swap1\n      pop\n        /* \"#utility.yul\":6066:6075   */\n      dup2\n        /* \"#utility.yul\":6060:6064   */\n      dup2\n        /* \"#utility.yul\":6056:6076   */\n      sub\n        /* \"#utility.yul\":6052:6053   */\n      0x00\n        /* \"#utility.yul\":6041:6050   */\n      dup4\n        /* \"#utility.yul\":6037:6054   */\n      add\n        /* \"#utility.yul\":6030:6077   */\n      mstore\n        /* \"#utility.yul\":6094:6225   */\n      tag_178\n        /* \"#utility.yul\":6220:6224   */\n      dup2\n        /* \"#utility.yul\":6094:6225   */\n      tag_113\n      jump\t// in\n    tag_178:\n        /* \"#utility.yul\":6086:6225   */\n      swap1\n      pop\n        /* \"#utility.yul\":5813:6232   */\n      swap2\n      swap1\n      pop\n      jump\t// out\n        /* \"#utility.yul\":6238:6418   */\n    tag_114:\n        /* \"#utility.yul\":6286:6363   */\n      0x4e487b7100000000000000000000000000000000000000000000000000000000\n        /* \"#utility.yul\":6283:6284   */\n      0x00\n        /* \"#utility.yul\":6276:6364   */\n      mstore\n        /* \"#utility.yul\":6383:6387   */\n      0x11\n        /* \"#utility.yul\":6380:6381   */\n      0x04\n        /* \"#utility.yul\":6373:6388   */\n      mstore\n        /* \"#utility.yul\":6407:6411   */\n      0x24\n        /* \"#utility.yul\":6404:6405   */\n      0x00\n        /* \"#utility.yul\":6397:6412   */\n      revert\n        /* \"#utility.yul\":6424:6834   */\n    tag_58:\n        /* \"#utility.yul\":6464:6471   */\n      0x00\n        /* \"#utility.yul\":6487:6507   */\n      tag_181\n        /* \"#utility.yul\":6505:6506   */\n      dup3\n        /* \"#utility.yul\":6487:6507   */\n      tag_97\n      jump\t// in\n    tag_181:\n        /* \"#utility.yul\":6482:6507   */\n      swap2\n      pop\n        /* \"#utility.yul\":6521:6541   */\n      tag_182\n        /* \"#utility.yul\":6539:6540   */\n      dup4\n        /* \"#utility.yul\":6521:6541   */\n      tag_97\n      jump\t// in\n    tag_182:\n        /* \"#utility.yul\":6516:6541   */\n      swap3\n      pop\n        /* \"#utility.yul\":6576:6577   */\n      dup3\n        /* \"#utility.yul\":6573:6574   */\n      dup3\n        /* \"#utility.yul\":6569:6578   */\n      mul\n        /* \"#utility.yul\":6598:6628   */\n      tag_183\n        /* \"#utility.yul\":6616:6627   */\n      dup2\n        /* \"#utility.yul\":6598:6628   */\n      tag_97\n      jump\t// in\n    tag_183:\n        /* \"#utility.yul\":6587:6628   */\n      swap2\n      pop\n        /* \"#utility.yul\":6777:6778   */\n      dup3\n        /* \"#utility.yul\":6768:6775   */\n      dup3\n        /* \"#utility.yul\":6764:6779   */\n      div\n        /* \"#utility.yul\":6761:6762   */\n      dup5\n        /* \"#utility.yul\":6758:6780   */\n      eq\n        /* \"#utility.yul\":6738:6739   */\n      dup4\n        /* \"#utility.yul\":6731:6740   */\n      iszero\n        /* \"#utility.yul\":6711:6794   */\n      or\n        /* \"#utility.yul\":6688:6827   */\n      tag_184\n      jumpi\n        /* \"#utility.yul\":6807:6825   */\n      tag_185\n      tag_114\n      jump\t// in\n    tag_185:\n        /* \"#utility.yul\":6688:6827   */\n    tag_184:\n        /* \"#utility.yul\":6472:6834   */\n      pop\n        /* \"#utility.yul\":6424:6834   */\n      swap3\n      swap2\n      pop\n      pop\n      jump\t// out\n        /* \"#utility.yul\":6840:6962   */\n    tag_115:\n        /* \"#utility.yul\":6913:6937   */\n      tag_187\n        /* \"#utility.yul\":6931:6936   */\n      dup2\n        /* \"#utility.yul\":6913:6937   */\n      tag_97\n      jump\t// in\n    tag_187:\n        /* \"#utility.yul\":6906:6911   */\n      dup2\n        /* \"#utility.yul\":6903:6938   */\n      eq\n        /* \"#utility.yul\":6893:6956   */\n      tag_188\n      jumpi\n        /* \"#utility.yul\":6952:6953   */\n      0x00\n        /* \"#utility.yul\":6949:6950   */\n      dup1\n        /* \"#utility.yul\":6942:6954   */\n      revert\n        /* \"#utility.yul\":6893:6956   */\n    tag_188:\n        /* \"#utility.yul\":6840:6962   */\n      pop\n      jump\t// out\n        /* \"#utility.yul\":6968:7111   */\n    tag_116:\n        /* \"#utility.yul\":7025:7030   */\n      0x00\n        /* \"#utility.yul\":7056:7062   */\n      dup2\n        /* \"#utility.yul\":7050:7063   */\n      mload\n        /* \"#utility.yul\":7041:7063   */\n      swap1\n      pop\n        /* \"#utility.yul\":7072:7105   */\n      tag_190\n        /* \"#utility.yul\":7099:7104   */\n      dup2\n        /* \"#utility.yul\":7072:7105   */\n      tag_115\n      jump\t// in\n    tag_190:\n        /* \"#utility.yul\":6968:7111   */\n      swap3\n      swap2\n      pop\n      pop\n      jump\t// out\n        /* \"#utility.yul\":7117:7468   */\n    tag_63:\n        /* \"#utility.yul\":7187:7193   */\n      0x00\n        /* \"#utility.yul\":7236:7238   */\n      0x20\n        /* \"#utility.yul\":7224:7233   */\n      dup3\n        /* \"#utility.yul\":7215:7222   */\n      dup5\n        /* \"#utility.yul\":7211:7234   */\n      sub\n        /* \"#utility.yul\":7207:7239   */\n      slt\n        /* \"#utility.yul\":7204:7323   */\n      iszero\n      tag_192\n      jumpi\n        /* \"#utility.yul\":7242:7321   */\n      tag_193\n      tag_100\n      jump\t// in\n    tag_193:\n        /* \"#utility.yul\":7204:7323   */\n    tag_192:\n        /* \"#utility.yul\":7362:7363   */\n      0x00\n        /* \"#utility.yul\":7387:7451   */\n      tag_194\n        /* \"#utility.yul\":7443:7450   */\n      dup5\n        /* \"#utility.yul\":7434:7440   */\n      dup3\n        /* \"#utility.yul\":7423:7432   */\n      dup6\n        /* \"#utility.yul\":7419:7441   */\n      add\n        /* \"#utility.yul\":7387:7451   */\n      tag_116\n      jump\t// in\n    tag_194:\n        /* \"#utility.yul\":7377:7451   */\n      swap2\n      pop\n        /* \"#utility.yul\":7333:7461   */\n      pop\n        /* \"#utility.yul\":7117:7468   */\n      swap3\n      swap2\n      pop\n      pop\n      jump\t// out\n        /* \"#utility.yul\":7474:7713   */\n    tag_117:\n        /* \"#utility.yul\":7614:7648   */\n      0x56656e646f7220636f6e747261637420686173206e6f7420656e6f7567682074\n        /* \"#utility.yul\":7610:7611   */\n      0x00\n        /* \"#utility.yul\":7602:7608   */\n      dup3\n        /* \"#utility.yul\":7598:7612   */\n      add\n        /* \"#utility.yul\":7591:7649   */\n      mstore\n        /* \"#utility.yul\":7683:7705   */\n      0x6f6b656e7320696e206974732062616c616e6365000000000000000000000000\n        /* \"#utility.yul\":7678:7680   */\n      0x20\n        /* \"#utility.yul\":7670:7676   */\n      dup3\n        /* \"#utility.yul\":7666:7681   */\n      add\n        /* \"#utility.yul\":7659:7706   */\n      mstore\n        /* \"#utility.yul\":7474:7713   */\n      pop\n      jump\t// out\n        /* \"#utility.yul\":7719:8085   */\n    tag_118:\n        /* \"#utility.yul\":7861:7864   */\n      0x00\n        /* \"#utility.yul\":7882:7949   */\n      tag_197\n        /* \"#utility.yul\":7946:7948   */\n      0x34\n        /* \"#utility.yul\":7941:7944   */\n      dup4\n        /* \"#utility.yul\":7882:7949   */\n      tag_104\n      jump\t// in\n    tag_197:\n        /* \"#utility.yul\":7875:7949   */\n      swap2\n      pop\n        /* \"#utility.yul\":7958:8051   */\n      tag_198\n        /* \"#utility.yul\":8047:8050   */\n      dup3\n        /* \"#utility.yul\":7958:8051   */\n      tag_117\n      jump\t// in\n    tag_198:\n        /* \"#utility.yul\":8076:8078   */\n      0x40\n        /* \"#utility.yul\":8071:8074   */\n      dup3\n        /* \"#utility.yul\":8067:8079   */\n      add\n        /* \"#utility.yul\":8060:8079   */\n      swap1\n      pop\n        /* \"#utility.yul\":7719:8085   */\n      swap2\n      swap1\n      pop\n      jump\t// out\n        /* \"#utility.yul\":8091:8510   */\n    tag_66:\n        /* \"#utility.yul\":8257:8261   */\n      0x00\n        /* \"#utility.yul\":8295:8297   */\n      0x20\n        /* \"#utility.yul\":8284:8293   */\n      dup3\n        /* \"#utility.yul\":8280:8298   */\n      add\n        /* \"#utility.yul\":8272:8298   */\n      swap1\n      pop\n        /* \"#utility.yul\":8344:8353   */\n      dup2\n        /* \"#utility.yul\":8338:8342   */\n      dup2\n        /* \"#utility.yul\":8334:8354   */\n      sub\n        /* \"#utility.yul\":8330:8331   */\n      0x00\n        /* \"#utility.yul\":8319:8328   */\n      dup4\n        /* \"#utility.yul\":8315:8332   */\n      add\n        /* \"#utility.yul\":8308:8355   */\n      mstore\n        /* \"#utility.yul\":8372:8503   */\n      tag_200\n        /* \"#utility.yul\":8498:8502   */\n      dup2\n        /* \"#utility.yul\":8372:8503   */\n      tag_118\n      jump\t// in\n    tag_200:\n        /* \"#utility.yul\":8364:8503   */\n      swap1\n      pop\n        /* \"#utility.yul\":8091:8510   */\n      swap2\n      swap1\n      pop\n      jump\t// out\n        /* \"#utility.yul\":8516:8848   */\n    tag_68:\n        /* \"#utility.yul\":8637:8641   */\n      0x00\n        /* \"#utility.yul\":8675:8677   */\n      0x40\n        /* \"#utility.yul\":8664:8673   */\n      dup3\n        /* \"#utility.yul\":8660:8678   */\n      add\n        /* \"#utility.yul\":8652:8678   */\n      swap1\n      pop\n        /* \"#utility.yul\":8688:8759   */\n      tag_202\n        /* \"#utility.yul\":8756:8757   */\n      0x00\n        /* \"#utility.yul\":8745:8754   */\n      dup4\n        /* \"#utility.yul\":8741:8758   */\n      add\n        /* \"#utility.yul\":8732:8738   */\n      dup6\n        /* \"#utility.yul\":8688:8759   */\n      tag_96\n      jump\t// in\n    tag_202:\n        /* \"#utility.yul\":8769:8841   */\n      tag_203\n        /* \"#utility.yul\":8837:8839   */\n      0x20\n        /* \"#utility.yul\":8826:8835   */\n      dup4\n        /* \"#utility.yul\":8822:8840   */\n      add\n        /* \"#utility.yul\":8813:8819   */\n      dup5\n        /* \"#utility.yul\":8769:8841   */\n      tag_98\n      jump\t// in\n    tag_203:\n        /* \"#utility.yul\":8516:8848   */\n      swap4\n      swap3\n      pop\n      pop\n      pop\n      jump\t// out\n        /* \"#utility.yul\":8854:8944   */\n    tag_119:\n        /* \"#utility.yul\":8888:8895   */\n      0x00\n        /* \"#utility.yul\":8931:8936   */\n      dup2\n        /* \"#utility.yul\":8924:8937   */\n      iszero\n        /* \"#utility.yul\":8917:8938   */\n      iszero\n        /* \"#utility.yul\":8906:8938   */\n      swap1\n      pop\n        /* \"#utility.yul\":8854:8944   */\n      swap2\n      swap1\n      pop\n      jump\t// out\n        /* \"#utility.yul\":8950:9066   */\n    tag_120:\n        /* \"#utility.yul\":9020:9041   */\n      tag_206\n        /* \"#utility.yul\":9035:9040   */\n      dup2\n        /* \"#utility.yul\":9020:9041   */\n      tag_119\n      jump\t// in\n    tag_206:\n        /* \"#utility.yul\":9013:9018   */\n      dup2\n        /* \"#utility.yul\":9010:9042   */\n      eq\n        /* \"#utility.yul\":9000:9060   */\n      tag_207\n      jumpi\n        /* \"#utility.yul\":9056:9057   */\n      0x00\n        /* \"#utility.yul\":9053:9054   */\n      dup1\n        /* \"#utility.yul\":9046:9058   */\n      revert\n        /* \"#utility.yul\":9000:9060   */\n    tag_207:\n        /* \"#utility.yul\":8950:9066   */\n      pop\n      jump\t// out\n        /* \"#utility.yul\":9072:9209   */\n    tag_121:\n        /* \"#utility.yul\":9126:9131   */\n      0x00\n        /* \"#utility.yul\":9157:9163   */\n      dup2\n        /* \"#utility.yul\":9151:9164   */\n      mload\n        /* \"#utility.yul\":9142:9164   */\n      swap1\n      pop\n        /* \"#utility.yul\":9173:9203   */\n      tag_209\n        /* \"#utility.yul\":9197:9202   */\n      dup2\n        /* \"#utility.yul\":9173:9203   */\n      tag_120\n      jump\t// in\n    tag_209:\n        /* \"#utility.yul\":9072:9209   */\n      swap3\n      swap2\n      pop\n      pop\n      jump\t// out\n        /* \"#utility.yul\":9215:9560   */\n    tag_72:\n        /* \"#utility.yul\":9282:9288   */\n      0x00\n        /* \"#utility.yul\":9331:9333   */\n      0x20\n        /* \"#utility.yul\":9319:9328   */\n      dup3\n        /* \"#utility.yul\":9310:9317   */\n      dup5\n        /* \"#utility.yul\":9306:9329   */\n      sub\n        /* \"#utility.yul\":9302:9334   */\n      slt\n        /* \"#utility.yul\":9299:9418   */\n      iszero\n      tag_211\n      jumpi\n        /* \"#utility.yul\":9337:9416   */\n      tag_212\n      tag_100\n      jump\t// in\n    tag_212:\n        /* \"#utility.yul\":9299:9418   */\n    tag_211:\n        /* \"#utility.yul\":9457:9458   */\n      0x00\n        /* \"#utility.yul\":9482:9543   */\n      tag_213\n        /* \"#utility.yul\":9535:9542   */\n      dup5\n        /* \"#utility.yul\":9526:9532   */\n      dup3\n        /* \"#utility.yul\":9515:9524   */\n      dup6\n        /* \"#utility.yul\":9511:9533   */\n      add\n        /* \"#utility.yul\":9482:9543   */\n      tag_121\n      jump\t// in\n    tag_213:\n        /* \"#utility.yul\":9472:9543   */\n      swap2\n      pop\n        /* \"#utility.yul\":9428:9553   */\n      pop\n        /* \"#utility.yul\":9215:9560   */\n      swap3\n      swap2\n      pop\n      pop\n      jump\t// out\n        /* \"#utility.yul\":9566:9748   */\n    tag_122:\n        /* \"#utility.yul\":9706:9740   */\n      0x4661696c656420746f207472616e7366657220746f6b656e20746f2075736572\n        /* \"#utility.yul\":9702:9703   */\n      0x00\n        /* \"#utility.yul\":9694:9700   */\n      dup3\n        /* \"#utility.yul\":9690:9704   */\n      add\n        /* \"#utility.yul\":9683:9741   */\n      mstore\n        /* \"#utility.yul\":9566:9748   */\n      pop\n      jump\t// out\n        /* \"#utility.yul\":9754:10120   */\n    tag_123:\n        /* \"#utility.yul\":9896:9899   */\n      0x00\n        /* \"#utility.yul\":9917:9984   */\n      tag_216\n        /* \"#utility.yul\":9981:9983   */\n      0x20\n        /* \"#utility.yul\":9976:9979   */\n      dup4\n        /* \"#utility.yul\":9917:9984   */\n      tag_104\n      jump\t// in\n    tag_216:\n        /* \"#utility.yul\":9910:9984   */\n      swap2\n      pop\n        /* \"#utility.yul\":9993:10086   */\n      tag_217\n        /* \"#utility.yul\":10082:10085   */\n      dup3\n        /* \"#utility.yul\":9993:10086   */\n      tag_122\n      jump\t// in\n    tag_217:\n        /* \"#utility.yul\":10111:10113   */\n      0x20\n        /* \"#utility.yul\":10106:10109   */\n      dup3\n        /* \"#utility.yul\":10102:10114   */\n      add\n        /* \"#utility.yul\":10095:10114   */\n      swap1\n      pop\n        /* \"#utility.yul\":9754:10120   */\n      swap2\n      swap1\n      pop\n      jump\t// out\n        /* \"#utility.yul\":10126:10545   */\n    tag_75:\n        /* \"#utility.yul\":10292:10296   */\n      0x00\n        /* \"#utility.yul\":10330:10332   */\n      0x20\n        /* \"#utility.yul\":10319:10328   */\n      dup3\n        /* \"#utility.yul\":10315:10333   */\n      add\n        /* \"#utility.yul\":10307:10333   */\n      swap1\n      pop\n        /* \"#utility.yul\":10379:10388   */\n      dup2\n        /* \"#utility.yul\":10373:10377   */\n      dup2\n        /* \"#utility.yul\":10369:10389   */\n      sub\n        /* \"#utility.yul\":10365:10366   */\n      0x00\n        /* \"#utility.yul\":10354:10363   */\n      dup4\n        /* \"#utility.yul\":10350:10367   */\n      add\n        /* \"#utility.yul\":10343:10390   */\n      mstore\n        /* \"#utility.yul\":10407:10538   */\n      tag_219\n        /* \"#utility.yul\":10533:10537   */\n      dup2\n        /* \"#utility.yul\":10407:10538   */\n      tag_123\n      jump\t// in\n    tag_219:\n        /* \"#utility.yul\":10399:10538   */\n      swap1\n      pop\n        /* \"#utility.yul\":10126:10545   */\n      swap2\n      swap1\n      pop\n      jump\t// out\n        /* \"#utility.yul\":10551:10993   */\n    tag_77:\n        /* \"#utility.yul\":10700:10704   */\n      0x00\n        /* \"#utility.yul\":10738:10740   */\n      0x60\n        /* \"#utility.yul\":10727:10736   */\n      dup3\n        /* \"#utility.yul\":10723:10741   */\n      add\n        /* \"#utility.yul\":10715:10741   */\n      swap1\n      pop\n        /* \"#utility.yul\":10751:10822   */\n      tag_221\n        /* \"#utility.yul\":10819:10820   */\n      0x00\n        /* \"#utility.yul\":10808:10817   */\n      dup4\n        /* \"#utility.yul\":10804:10821   */\n      add\n        /* \"#utility.yul\":10795:10801   */\n      dup7\n        /* \"#utility.yul\":10751:10822   */\n      tag_96\n      jump\t// in\n    tag_221:\n        /* \"#utility.yul\":10832:10904   */\n      tag_222\n        /* \"#utility.yul\":10900:10902   */\n      0x20\n        /* \"#utility.yul\":10889:10898   */\n      dup4\n        /* \"#utility.yul\":10885:10903   */\n      add\n        /* \"#utility.yul\":10876:10882   */\n      dup6\n        /* \"#utility.yul\":10832:10904   */\n      tag_98\n      jump\t// in\n    tag_222:\n        /* \"#utility.yul\":10914:10986   */\n      tag_223\n        /* \"#utility.yul\":10982:10984   */\n      0x40\n        /* \"#utility.yul\":10971:10980   */\n      dup4\n        /* \"#utility.yul\":10967:10985   */\n      add\n        /* \"#utility.yul\":10958:10964   */\n      dup5\n        /* \"#utility.yul\":10914:10986   */\n      tag_98\n      jump\t// in\n    tag_223:\n        /* \"#utility.yul\":10551:10993   */\n      swap5\n      swap4\n      pop\n      pop\n      pop\n      pop\n      jump\t// out\n        /* \"#utility.yul\":10999:11224   */\n    tag_124:\n        /* \"#utility.yul\":11139:11173   */\n      0x4f776e61626c653a206e6577206f776e657220697320746865207a65726f2061\n        /* \"#utility.yul\":11135:11136   */\n      0x00\n        /* \"#utility.yul\":11127:11133   */\n      dup3\n        /* \"#utility.yul\":11123:11137   */\n      add\n        /* \"#utility.yul\":11116:11174   */\n      mstore\n        /* \"#utility.yul\":11208:11216   */\n      0x6464726573730000000000000000000000000000000000000000000000000000\n        /* \"#utility.yul\":11203:11205   */\n      0x20\n        /* \"#utility.yul\":11195:11201   */\n      dup3\n        /* \"#utility.yul\":11191:11206   */\n      add\n        /* \"#utility.yul\":11184:11217   */\n      mstore\n        /* \"#utility.yul\":10999:11224   */\n      pop\n      jump\t// out\n        /* \"#utility.yul\":11230:11596   */\n    tag_125:\n        /* \"#utility.yul\":11372:11375   */\n      0x00\n        /* \"#utility.yul\":11393:11460   */\n      tag_226\n        /* \"#utility.yul\":11457:11459   */\n      0x26\n        /* \"#utility.yul\":11452:11455   */\n      dup4\n        /* \"#utility.yul\":11393:11460   */\n      tag_104\n      jump\t// in\n    tag_226:\n        /* \"#utility.yul\":11386:11460   */\n      swap2\n      pop\n        /* \"#utility.yul\":11469:11562   */\n      tag_227\n        /* \"#utility.yul\":11558:11561   */\n      dup3\n        /* \"#utility.yul\":11469:11562   */\n      tag_124\n      jump\t// in\n    tag_227:\n        /* \"#utility.yul\":11587:11589   */\n      0x40\n        /* \"#utility.yul\":11582:11585   */\n      dup3\n        /* \"#utility.yul\":11578:11590   */\n      add\n        /* \"#utility.yul\":11571:11590   */\n      swap1\n      pop\n        /* \"#utility.yul\":11230:11596   */\n      swap2\n      swap1\n      pop\n      jump\t// out\n        /* \"#utility.yul\":11602:12021   */\n    tag_83:\n        /* \"#utility.yul\":11768:11772   */\n      0x00\n        /* \"#utility.yul\":11806:11808   */\n      0x20\n        /* \"#utility.yul\":11795:11804   */\n      dup3\n        /* \"#utility.yul\":11791:11809   */\n      add\n        /* \"#utility.yul\":11783:11809   */\n      swap1\n      pop\n        /* \"#utility.yul\":11855:11864   */\n      dup2\n        /* \"#utility.yul\":11849:11853   */\n      dup2\n        /* \"#utility.yul\":11845:11865   */\n      sub\n        /* \"#utility.yul\":11841:11842   */\n      0x00\n        /* \"#utility.yul\":11830:11839   */\n      dup4\n        /* \"#utility.yul\":11826:11843   */\n      add\n        /* \"#utility.yul\":11819:11866   */\n      mstore\n        /* \"#utility.yul\":11883:12014   */\n      tag_229\n        /* \"#utility.yul\":12009:12013   */\n      dup2\n        /* \"#utility.yul\":11883:12014   */\n      tag_125\n      jump\t// in\n    tag_229:\n        /* \"#utility.yul\":11875:12014   */\n      swap1\n      pop\n        /* \"#utility.yul\":11602:12021   */\n      swap2\n      swap1\n      pop\n      jump\t// out\n        /* \"#utility.yul\":12027:12209   */\n    tag_126:\n        /* \"#utility.yul\":12167:12201   */\n      0x4f776e61626c653a2063616c6c6572206973206e6f7420746865206f776e6572\n        /* \"#utility.yul\":12163:12164   */\n      0x00\n        /* \"#utility.yul\":12155:12161   */\n      dup3\n        /* \"#utility.yul\":12151:12165   */\n      add\n        /* \"#utility.yul\":12144:12202   */\n      mstore\n        /* \"#utility.yul\":12027:12209   */\n      pop\n      jump\t// out\n        /* \"#utility.yul\":12215:12581   */\n    tag_127:\n        /* \"#utility.yul\":12357:12360   */\n      0x00\n        /* \"#utility.yul\":12378:12445   */\n      tag_232\n        /* \"#utility.yul\":12442:12444   */\n      0x20\n        /* \"#utility.yul\":12437:12440   */\n      dup4\n        /* \"#utility.yul\":12378:12445   */\n      tag_104\n      jump\t// in\n    tag_232:\n        /* \"#utility.yul\":12371:12445   */\n      swap2\n      pop\n        /* \"#utility.yul\":12454:12547   */\n      tag_233\n        /* \"#utility.yul\":12543:12546   */\n      dup3\n        /* \"#utility.yul\":12454:12547   */\n      tag_126\n      jump\t// in\n    tag_233:\n        /* \"#utility.yul\":12572:12574   */\n      0x20\n        /* \"#utility.yul\":12567:12570   */\n      dup3\n        /* \"#utility.yul\":12563:12575   */\n      add\n        /* \"#utility.yul\":12556:12575   */\n      swap1\n      pop\n        /* \"#utility.yul\":12215:12581   */\n      swap2\n      swap1\n      pop\n      jump\t// out\n        /* \"#utility.yul\":12587:13006   */\n    tag_91:\n        /* \"#utility.yul\":12753:12757   */\n      0x00\n        /* \"#utility.yul\":12791:12793   */\n      0x20\n        /* \"#utility.yul\":12780:12789   */\n      dup3\n        /* \"#utility.yul\":12776:12794   */\n      add\n        /* \"#utility.yul\":12768:12794   */\n      swap1\n      pop\n        /* \"#utility.yul\":12840:12849   */\n      dup2\n        /* \"#utility.yul\":12834:12838   */\n      dup2\n        /* \"#utility.yul\":12830:12850   */\n      sub\n        /* \"#utility.yul\":12826:12827   */\n      0x00\n        /* \"#utility.yul\":12815:12824   */\n      dup4\n        /* \"#utility.yul\":12811:12828   */\n      add\n        /* \"#utility.yul\":12804:12851   */\n      mstore\n        /* \"#utility.yul\":12868:12999   */\n      tag_235\n        /* \"#utility.yul\":12994:12998   */\n      dup2\n        /* \"#utility.yul\":12868:12999   */\n      tag_127\n      jump\t// in\n    tag_235:\n        /* \"#utility.yul\":12860:12999   */\n      swap1\n      pop\n        /* \"#utility.yul\":12587:13006   */\n      swap2\n      swap1\n      pop\n      jump\t// out\n\n    auxdata: 0xa2646970667358221220a5c8dd23896ae6926c611efa1da514111db67a34dbe1b20f4dcb645002199ab764736f6c63430008120033\n}\n",
				"bytecode": {
					"linkReferences": {},
					"object": "608060405260646002553480156200001657600080fd5b5060405162000f4838038062000f4883398181016040528101906200003c9190620001da565b6200005c62000050620000a460201b60201c565b620000ac60201b60201c565b80600160006101000a81548173ffffffffffffffffffffffffffffffffffffffff021916908373ffffffffffffffffffffffffffffffffffffffff160217905550506200020c565b600033905090565b60008060009054906101000a900473ffffffffffffffffffffffffffffffffffffffff169050816000806101000a81548173ffffffffffffffffffffffffffffffffffffffff021916908373ffffffffffffffffffffffffffffffffffffffff1602179055508173ffffffffffffffffffffffffffffffffffffffff168173ffffffffffffffffffffffffffffffffffffffff167f8be0079c531659141344cd1fd0a4f28419497f9722a3daafe3b4186f6b6457e060405160405180910390a35050565b600080fd5b600073ffffffffffffffffffffffffffffffffffffffff82169050919050565b6000620001a28262000175565b9050919050565b620001b48162000195565b8114620001c057600080fd5b50565b600081519050620001d481620001a9565b92915050565b600060208284031215620001f357620001f262000170565b5b60006200020384828501620001c3565b91505092915050565b610d2c806200021c6000396000f3fe6080604052600436106100555760003560e01c80633ccfd60b1461005a578063715018a6146100715780638da5cb5b14610088578063cbdd69b5146100b3578063d0febe4c146100de578063f2fde38b146100fc575b600080fd5b34801561006657600080fd5b5061006f610125565b005b34801561007d57600080fd5b50610086610225565b005b34801561009457600080fd5b5061009d610239565b6040516100aa91906106d7565b60405180910390f35b3480156100bf57600080fd5b506100c8610262565b6040516100d5919061070b565b60405180910390f35b6100e6610268565b6040516100f3919061070b565b60405180910390f35b34801561010857600080fd5b50610123600480360381019061011e9190610757565b6104c9565b005b61012d61054c565b600047905060008111610175576040517f08c379a000000000000000000000000000000000000000000000000000000000815260040161016c90610807565b60405180910390fd5b60003373ffffffffffffffffffffffffffffffffffffffff164760405161019b90610858565b60006040518083038185875af1925050503d80600081146101d8576040519150601f19603f3d011682016040523d82523d6000602084013e6101dd565b606091505b5050905080610221576040517f08c379a0000000000000000000000000000000000000000000000000000000008152600401610218906108df565b60405180910390fd5b5050565b61022d61054c565b61023760006105ca565b565b60008060009054906101000a900473ffffffffffffffffffffffffffffffffffffffff16905090565b60025481565b60008034116102ac576040517f08c379a00000000000000000000000000000000000000000000000000000000081526004016102a39061094b565b60405180910390fd5b6000600254346102bc919061099a565b90506000600160009054906101000a900473ffffffffffffffffffffffffffffffffffffffff1673ffffffffffffffffffffffffffffffffffffffff166370a08231306040518263ffffffff1660e01b815260040161031b91906106d7565b602060405180830381865afa158015610338573d6000803e3d6000fd5b505050506040513d601f19601f8201168201806040525081019061035c9190610a08565b9050818110156103a1576040517f08c379a000000000000000000000000000000000000000000000000000000000815260040161039890610aa7565b60405180910390fd5b6000600160009054906101000a900473ffffffffffffffffffffffffffffffffffffffff1673ffffffffffffffffffffffffffffffffffffffff1663a9059cbb33856040518363ffffffff1660e01b8152600401610400929190610ac7565b6020604051808303816000875af115801561041f573d6000803e3d6000fd5b505050506040513d601f19601f820116820180604052508101906104439190610b28565b905080610485576040517f08c379a000000000000000000000000000000000000000000000000000000000815260040161047c90610ba1565b60405180910390fd5b7f0a37b72bb67eee30e09084cf386f8a17817c57f620c3ab95fb25d6a20356ec773334856040516104b893929190610bc1565b60405180910390a182935050505090565b6104d161054c565b600073ffffffffffffffffffffffffffffffffffffffff168173ffffffffffffffffffffffffffffffffffffffff1603610540576040517f08c379a000000000000000000000000000000000000000000000000000000000815260040161053790610c6a565b60405180910390fd5b610549816105ca565b50565b61055461068e565b73ffffffffffffffffffffffffffffffffffffffff16610572610239565b73ffffffffffffffffffffffffffffffffffffffff16146105c8576040517f08c379a00000000000000000000000000000000000000000000000000000000081526004016105bf90610cd6565b60405180910390fd5b565b60008060009054906101000a900473ffffffffffffffffffffffffffffffffffffffff169050816000806101000a81548173ffffffffffffffffffffffffffffffffffffffff021916908373ffffffffffffffffffffffffffffffffffffffff1602179055508173ffffffffffffffffffffffffffffffffffffffff168173ffffffffffffffffffffffffffffffffffffffff167f8be0079c531659141344cd1fd0a4f28419497f9722a3daafe3b4186f6b6457e060405160405180910390a35050565b600033905090565b600073ffffffffffffffffffffffffffffffffffffffff82169050919050565b60006106c182610696565b9050919050565b6106d1816106b6565b82525050565b60006020820190506106ec60008301846106c8565b92915050565b6000819050919050565b610705816106f2565b82525050565b600060208201905061072060008301846106fc565b92915050565b600080fd5b610734816106b6565b811461073f57600080fd5b50565b6000813590506107518161072b565b92915050565b60006020828403121561076d5761076c610726565b5b600061077b84828501610742565b91505092915050565b600082825260208201905092915050565b7f4f776e657220686173206e6f742062616c616e636520746f207769746864726160008201527f7700000000000000000000000000000000000000000000000000000000000000602082015250565b60006107f1602183610784565b91506107fc82610795565b604082019050919050565b60006020820190508181036000830152610820816107e4565b9050919050565b600081905092915050565b50565b6000610842600083610827565b915061084d82610832565b600082019050919050565b600061086382610835565b9150819050919050565b7f4661696c656420746f2073656e6420757365722062616c616e6365206261636b60008201527f20746f20746865206f776e657200000000000000000000000000000000000000602082015250565b60006108c9602d83610784565b91506108d48261086d565b604082019050919050565b600060208201905081810360008301526108f8816108bc565b9050919050565b7f53656e642045544820746f2062757920736f6d6520746f6b656e730000000000600082015250565b6000610935601b83610784565b9150610940826108ff565b602082019050919050565b6000602082019050818103600083015261096481610928565b9050919050565b7f4e487b7100000000000000000000000000000000000000000000000000000000600052601160045260246000fd5b60006109a5826106f2565b91506109b0836106f2565b92508282026109be816106f2565b915082820484148315176109d5576109d461096b565b5b5092915050565b6109e5816106f2565b81146109f057600080fd5b50565b600081519050610a02816109dc565b92915050565b600060208284031215610a1e57610a1d610726565b5b6000610a2c848285016109f3565b91505092915050565b7f56656e646f7220636f6e747261637420686173206e6f7420656e6f756768207460008201527f6f6b656e7320696e206974732062616c616e6365000000000000000000000000602082015250565b6000610a91603483610784565b9150610a9c82610a35565b604082019050919050565b60006020820190508181036000830152610ac081610a84565b9050919050565b6000604082019050610adc60008301856106c8565b610ae960208301846106fc565b9392505050565b60008115159050919050565b610b0581610af0565b8114610b1057600080fd5b50565b600081519050610b2281610afc565b92915050565b600060208284031215610b3e57610b3d610726565b5b6000610b4c84828501610b13565b91505092915050565b7f4661696c656420746f207472616e7366657220746f6b656e20746f2075736572600082015250565b6000610b8b602083610784565b9150610b9682610b55565b602082019050919050565b60006020820190508181036000830152610bba81610b7e565b9050919050565b6000606082019050610bd660008301866106c8565b610be360208301856106fc565b610bf060408301846106fc565b949350505050565b7f4f776e61626c653a206e6577206f776e657220697320746865207a65726f206160008201527f6464726573730000000000000000000000000000000000000000000000000000602082015250565b6000610c54602683610784565b9150610c5f82610bf8565b604082019050919050565b60006020820190508181036000830152610c8381610c47565b9050919050565b7f4f776e61626c653a2063616c6c6572206973206e6f7420746865206f776e6572600082015250565b6000610cc0602083610784565b9150610ccb82610c8a565b602082019050919050565b60006020820190508181036000830152610cef81610cb3565b905091905056fea2646970667358221220a5c8dd23896ae6926c611efa1da514111db67a34dbe1b20f4dcb645002199ab764736f6c63430008120033",
					"opcodes": "PUSH1 0x80 PUSH1 0x40 MSTORE PUSH1 0x64 PUSH1 0x2 SSTORE CALLVALUE DUP1 ISZERO PUSH3 0x16 JUMPI PUSH1 0x0 DUP1 REVERT JUMPDEST POP PUSH1 0x40 MLOAD PUSH3 0xF48 CODESIZE SUB DUP1 PUSH3 0xF48 DUP4 CODECOPY DUP2 DUP2 ADD PUSH1 0x40 MSTORE DUP2 ADD SWAP1 PUSH3 0x3C SWAP2 SWAP1 PUSH3 0x1DA JUMP JUMPDEST PUSH3 0x5C PUSH3 0x50 PUSH3 0xA4 PUSH1 0x20 SHL PUSH1 0x20 SHR JUMP JUMPDEST PUSH3 0xAC PUSH1 0x20 SHL PUSH1 0x20 SHR JUMP JUMPDEST DUP1 PUSH1 0x1 PUSH1 0x0 PUSH2 0x100 EXP DUP2 SLOAD DUP2 PUSH20 0xFFFFFFFFFFFFFFFFFFFFFFFFFFFFFFFFFFFFFFFF MUL NOT AND SWAP1 DUP4 PUSH20 0xFFFFFFFFFFFFFFFFFFFFFFFFFFFFFFFFFFFFFFFF AND MUL OR SWAP1 SSTORE POP POP PUSH3 0x20C JUMP JUMPDEST PUSH1 0x0 CALLER SWAP1 POP SWAP1 JUMP JUMPDEST PUSH1 0x0 DUP1 PUSH1 0x0 SWAP1 SLOAD SWAP1 PUSH2 0x100 EXP SWAP1 DIV PUSH20 0xFFFFFFFFFFFFFFFFFFFFFFFFFFFFFFFFFFFFFFFF AND SWAP1 POP DUP2 PUSH1 0x0 DUP1 PUSH2 0x100 EXP DUP2 SLOAD DUP2 PUSH20 0xFFFFFFFFFFFFFFFFFFFFFFFFFFFFFFFFFFFFFFFF MUL NOT AND SWAP1 DUP4 PUSH20 0xFFFFFFFFFFFFFFFFFFFFFFFFFFFFFFFFFFFFFFFF AND MUL OR SWAP1 SSTORE POP DUP2 PUSH20 0xFFFFFFFFFFFFFFFFFFFFFFFFFFFFFFFFFFFFFFFF AND DUP2 PUSH20 0xFFFFFFFFFFFFFFFFFFFFFFFFFFFFFFFFFFFFFFFF AND PUSH32 0x8BE0079C531659141344CD1FD0A4F28419497F9722A3DAAFE3B4186F6B6457E0 PUSH1 0x40 MLOAD PUSH1 0x40 MLOAD DUP1 SWAP2 SUB SWAP1 LOG3 POP POP JUMP JUMPDEST PUSH1 0x0 DUP1 REVERT JUMPDEST PUSH1 0x0 PUSH20 0xFFFFFFFFFFFFFFFFFFFFFFFFFFFFFFFFFFFFFFFF DUP3 AND SWAP1 POP SWAP2 SWAP1 POP JUMP JUMPDEST PUSH1 0x0 PUSH3 0x1A2 DUP3 PUSH3 0x175 JUMP JUMPDEST SWAP1 POP SWAP2 SWAP1 POP JUMP JUMPDEST PUSH3 0x1B4 DUP2 PUSH3 0x195 JUMP JUMPDEST DUP2 EQ PUSH3 0x1C0 JUMPI PUSH1 0x0 DUP1 REVERT JUMPDEST POP JUMP JUMPDEST PUSH1 0x0 DUP2 MLOAD SWAP1 POP PUSH3 0x1D4 DUP2 PUSH3 0x1A9 JUMP JUMPDEST SWAP3 SWAP2 POP POP JUMP JUMPDEST PUSH1 0x0 PUSH1 0x20 DUP3 DUP5 SUB SLT ISZERO PUSH3 0x1F3 JUMPI PUSH3 0x1F2 PUSH3 0x170 JUMP JUMPDEST JUMPDEST PUSH1 0x0 PUSH3 0x203 DUP5 DUP3 DUP6 ADD PUSH3 0x1C3 JUMP JUMPDEST SWAP2 POP POP SWAP3 SWAP2 POP POP JUMP JUMPDEST PUSH2 0xD2C DUP1 PUSH3 0x21C PUSH1 0x0 CODECOPY PUSH1 0x0 RETURN INVALID PUSH1 0x80 PUSH1 0x40 MSTORE PUSH1 0x4 CALLDATASIZE LT PUSH2 0x55 JUMPI PUSH1 0x0 CALLDATALOAD PUSH1 0xE0 SHR DUP1 PUSH4 0x3CCFD60B EQ PUSH2 0x5A JUMPI DUP1 PUSH4 0x715018A6 EQ PUSH2 0x71 JUMPI DUP1 PUSH4 0x8DA5CB5B EQ PUSH2 0x88 JUMPI DUP1 PUSH4 0xCBDD69B5 EQ PUSH2 0xB3 JUMPI DUP1 PUSH4 0xD0FEBE4C EQ PUSH2 0xDE JUMPI DUP1 PUSH4 0xF2FDE38B EQ PUSH2 0xFC JUMPI JUMPDEST PUSH1 0x0 DUP1 REVERT JUMPDEST CALLVALUE DUP1 ISZERO PUSH2 0x66 JUMPI PUSH1 0x0 DUP1 REVERT JUMPDEST POP PUSH2 0x6F PUSH2 0x125 JUMP JUMPDEST STOP JUMPDEST CALLVALUE DUP1 ISZERO PUSH2 0x7D JUMPI PUSH1 0x0 DUP1 REVERT JUMPDEST POP PUSH2 0x86 PUSH2 0x225 JUMP JUMPDEST STOP JUMPDEST CALLVALUE DUP1 ISZERO PUSH2 0x94 JUMPI PUSH1 0x0 DUP1 REVERT JUMPDEST POP PUSH2 0x9D PUSH2 0x239 JUMP JUMPDEST PUSH1 0x40 MLOAD PUSH2 0xAA SWAP2 SWAP1 PUSH2 0x6D7 JUMP JUMPDEST PUSH1 0x40 MLOAD DUP1 SWAP2 SUB SWAP1 RETURN JUMPDEST CALLVALUE DUP1 ISZERO PUSH2 0xBF JUMPI PUSH1 0x0 DUP1 REVERT JUMPDEST POP PUSH2 0xC8 PUSH2 0x262 JUMP JUMPDEST PUSH1 0x40 MLOAD PUSH2 0xD5 SWAP2 SWAP1 PUSH2 0x70B JUMP JUMPDEST PUSH1 0x40 MLOAD DUP1 SWAP2 SUB SWAP1 RETURN JUMPDEST PUSH2 0xE6 PUSH2 0x268 JUMP JUMPDEST PUSH1 0x40 MLOAD PUSH2 0xF3 SWAP2 SWAP1 PUSH2 0x70B JUMP JUMPDEST PUSH1 0x40 MLOAD DUP1 SWAP2 SUB SWAP1 RETURN JUMPDEST CALLVALUE DUP1 ISZERO PUSH2 0x108 JUMPI PUSH1 0x0 DUP1 REVERT JUMPDEST POP PUSH2 0x123 PUSH1 0x4 DUP1 CALLDATASIZE SUB DUP2 ADD SWAP1 PUSH2 0x11E SWAP2 SWAP1 PUSH2 0x757 JUMP JUMPDEST PUSH2 0x4C9 JUMP JUMPDEST STOP JUMPDEST PUSH2 0x12D PUSH2 0x54C JUMP JUMPDEST PUSH1 0x0 SELFBALANCE SWAP1 POP PUSH1 0x0 DUP2 GT PUSH2 0x175 JUMPI PUSH1 0x40 MLOAD PUSH32 0x8C379A000000000000000000000000000000000000000000000000000000000 DUP2 MSTORE PUSH1 0x4 ADD PUSH2 0x16C SWAP1 PUSH2 0x807 JUMP JUMPDEST PUSH1 0x40 MLOAD DUP1 SWAP2 SUB SWAP1 REVERT JUMPDEST PUSH1 0x0 CALLER PUSH20 0xFFFFFFFFFFFFFFFFFFFFFFFFFFFFFFFFFFFFFFFF AND SELFBALANCE PUSH1 0x40 MLOAD PUSH2 0x19B SWAP1 PUSH2 0x858 JUMP JUMPDEST PUSH1 0x0 PUSH1 0x40 MLOAD DUP1 DUP4 SUB DUP2 DUP6 DUP8 GAS CALL SWAP3 POP POP POP RETURNDATASIZE DUP1 PUSH1 0x0 DUP2 EQ PUSH2 0x1D8 JUMPI PUSH1 0x40 MLOAD SWAP2 POP PUSH1 0x1F NOT PUSH1 0x3F RETURNDATASIZE ADD AND DUP3 ADD PUSH1 0x40 MSTORE RETURNDATASIZE DUP3 MSTORE RETURNDATASIZE PUSH1 0x0 PUSH1 0x20 DUP5 ADD RETURNDATACOPY PUSH2 0x1DD JUMP JUMPDEST PUSH1 0x60 SWAP2 POP JUMPDEST POP POP SWAP1 POP DUP1 PUSH2 0x221 JUMPI PUSH1 0x40 MLOAD PUSH32 0x8C379A000000000000000000000000000000000000000000000000000000000 DUP2 MSTORE PUSH1 0x4 ADD PUSH2 0x218 SWAP1 PUSH2 0x8DF JUMP JUMPDEST PUSH1 0x40 MLOAD DUP1 SWAP2 SUB SWAP1 REVERT JUMPDEST POP POP JUMP JUMPDEST PUSH2 0x22D PUSH2 0x54C JUMP JUMPDEST PUSH2 0x237 PUSH1 0x0 PUSH2 0x5CA JUMP JUMPDEST JUMP JUMPDEST PUSH1 0x0 DUP1 PUSH1 0x0 SWAP1 SLOAD SWAP1 PUSH2 0x100 EXP SWAP1 DIV PUSH20 0xFFFFFFFFFFFFFFFFFFFFFFFFFFFFFFFFFFFFFFFF AND SWAP1 POP SWAP1 JUMP JUMPDEST PUSH1 0x2 SLOAD DUP2 JUMP JUMPDEST PUSH1 0x0 DUP1 CALLVALUE GT PUSH2 0x2AC JUMPI PUSH1 0x40 MLOAD PUSH32 0x8C379A000000000000000000000000000000000000000000000000000000000 DUP2 MSTORE PUSH1 0x4 ADD PUSH2 0x2A3 SWAP1 PUSH2 0x94B JUMP JUMPDEST PUSH1 0x40 MLOAD DUP1 SWAP2 SUB SWAP1 REVERT JUMPDEST PUSH1 0x0 PUSH1 0x2 SLOAD CALLVALUE PUSH2 0x2BC SWAP2 SWAP1 PUSH2 0x99A JUMP JUMPDEST SWAP1 POP PUSH1 0x0 PUSH1 0x1 PUSH1 0x0 SWAP1 SLOAD SWAP1 PUSH2 0x100 EXP SWAP1 DIV PUSH20 0xFFFFFFFFFFFFFFFFFFFFFFFFFFFFFFFFFFFFFFFF AND PUSH20 0xFFFFFFFFFFFFFFFFFFFFFFFFFFFFFFFFFFFFFFFF AND PUSH4 0x70A08231 ADDRESS PUSH1 0x40 MLOAD DUP3 PUSH4 0xFFFFFFFF AND PUSH1 0xE0 SHL DUP2 MSTORE PUSH1 0x4 ADD PUSH2 0x31B SWAP2 SWAP1 PUSH2 0x6D7 JUMP JUMPDEST PUSH1 0x20 PUSH1 0x40 MLOAD DUP1 DUP4 SUB DUP2 DUP7 GAS STATICCALL ISZERO DUP1 ISZERO PUSH2 0x338 JUMPI RETURNDATASIZE PUSH1 0x0 DUP1 RETURNDATACOPY RETURNDATASIZE PUSH1 0x0 REVERT JUMPDEST POP POP POP POP PUSH1 0x40 MLOAD RETURNDATASIZE PUSH1 0x1F NOT PUSH1 0x1F DUP3 ADD AND DUP3 ADD DUP1 PUSH1 0x40 MSTORE POP DUP2 ADD SWAP1 PUSH2 0x35C SWAP2 SWAP1 PUSH2 0xA08 JUMP JUMPDEST SWAP1 POP DUP2 DUP2 LT ISZERO PUSH2 0x3A1 JUMPI PUSH1 0x40 MLOAD PUSH32 0x8C379A000000000000000000000000000000000000000000000000000000000 DUP2 MSTORE PUSH1 0x4 ADD PUSH2 0x398 SWAP1 PUSH2 0xAA7 JUMP JUMPDEST PUSH1 0x40 MLOAD DUP1 SWAP2 SUB SWAP1 REVERT JUMPDEST PUSH1 0x0 PUSH1 0x1 PUSH1 0x0 SWAP1 SLOAD SWAP1 PUSH2 0x100 EXP SWAP1 DIV PUSH20 0xFFFFFFFFFFFFFFFFFFFFFFFFFFFFFFFFFFFFFFFF AND PUSH20 0xFFFFFFFFFFFFFFFFFFFFFFFFFFFFFFFFFFFFFFFF AND PUSH4 0xA9059CBB CALLER DUP6 PUSH1 0x40 MLOAD DUP4 PUSH4 0xFFFFFFFF AND PUSH1 0xE0 SHL DUP2 MSTORE PUSH1 0x4 ADD PUSH2 0x400 SWAP3 SWAP2 SWAP1 PUSH2 0xAC7 JUMP JUMPDEST PUSH1 0x20 PUSH1 0x40 MLOAD DUP1 DUP4 SUB DUP2 PUSH1 0x0 DUP8 GAS CALL ISZERO DUP1 ISZERO PUSH2 0x41F JUMPI RETURNDATASIZE PUSH1 0x0 DUP1 RETURNDATACOPY RETURNDATASIZE PUSH1 0x0 REVERT JUMPDEST POP POP POP POP PUSH1 0x40 MLOAD RETURNDATASIZE PUSH1 0x1F NOT PUSH1 0x1F DUP3 ADD AND DUP3 ADD DUP1 PUSH1 0x40 MSTORE POP DUP2 ADD SWAP1 PUSH2 0x443 SWAP2 SWAP1 PUSH2 0xB28 JUMP JUMPDEST SWAP1 POP DUP1 PUSH2 0x485 JUMPI PUSH1 0x40 MLOAD PUSH32 0x8C379A000000000000000000000000000000000000000000000000000000000 DUP2 MSTORE PUSH1 0x4 ADD PUSH2 0x47C SWAP1 PUSH2 0xBA1 JUMP JUMPDEST PUSH1 0x40 MLOAD DUP1 SWAP2 SUB SWAP1 REVERT JUMPDEST PUSH32 0xA37B72BB67EEE30E09084CF386F8A17817C57F620C3AB95FB25D6A20356EC77 CALLER CALLVALUE DUP6 PUSH1 0x40 MLOAD PUSH2 0x4B8 SWAP4 SWAP3 SWAP2 SWAP1 PUSH2 0xBC1 JUMP JUMPDEST PUSH1 0x40 MLOAD DUP1 SWAP2 SUB SWAP1 LOG1 DUP3 SWAP4 POP POP POP POP SWAP1 JUMP JUMPDEST PUSH2 0x4D1 PUSH2 0x54C JUMP JUMPDEST PUSH1 0x0 PUSH20 0xFFFFFFFFFFFFFFFFFFFFFFFFFFFFFFFFFFFFFFFF AND DUP2 PUSH20 0xFFFFFFFFFFFFFFFFFFFFFFFFFFFFFFFFFFFFFFFF AND SUB PUSH2 0x540 JUMPI PUSH1 0x40 MLOAD PUSH32 0x8C379A000000000000000000000000000000000000000000000000000000000 DUP2 MSTORE PUSH1 0x4 ADD PUSH2 0x537 SWAP1 PUSH2 0xC6A JUMP JUMPDEST PUSH1 0x40 MLOAD DUP1 SWAP2 SUB SWAP1 REVERT JUMPDEST PUSH2 0x549 DUP2 PUSH2 0x5CA JUMP JUMPDEST POP JUMP JUMPDEST PUSH2 0x554 PUSH2 0x68E JUMP JUMPDEST PUSH20 0xFFFFFFFFFFFFFFFFFFFFFFFFFFFFFFFFFFFFFFFF AND PUSH2 0x572 PUSH2 0x239 JUMP JUMPDEST PUSH20 0xFFFFFFFFFFFFFFFFFFFFFFFFFFFFFFFFFFFFFFFF AND EQ PUSH2 0x5C8 JUMPI PUSH1 0x40 MLOAD PUSH32 0x8C379A000000000000000000000000000000000000000000000000000000000 DUP2 MSTORE PUSH1 0x4 ADD PUSH2 0x5BF SWAP1 PUSH2 0xCD6 JUMP JUMPDEST PUSH1 0x40 MLOAD DUP1 SWAP2 SUB SWAP1 REVERT JUMPDEST JUMP JUMPDEST PUSH1 0x0 DUP1 PUSH1 0x0 SWAP1 SLOAD SWAP1 PUSH2 0x100 EXP SWAP1 DIV PUSH20 0xFFFFFFFFFFFFFFFFFFFFFFFFFFFFFFFFFFFFFFFF AND SWAP1 POP DUP2 PUSH1 0x0 DUP1 PUSH2 0x100 EXP DUP2 SLOAD DUP2 PUSH20 0xFFFFFFFFFFFFFFFFFFFFFFFFFFFFFFFFFFFFFFFF MUL NOT AND SWAP1 DUP4 PUSH20 0xFFFFFFFFFFFFFFFFFFFFFFFFFFFFFFFFFFFFFFFF AND MUL OR SWAP1 SSTORE POP DUP2 PUSH20 0xFFFFFFFFFFFFFFFFFFFFFFFFFFFFFFFFFFFFFFFF AND DUP2 PUSH20 0xFFFFFFFFFFFFFFFFFFFFFFFFFFFFFFFFFFFFFFFF AND PUSH32 0x8BE0079C531659141344CD1FD0A4F28419497F9722A3DAAFE3B4186F6B6457E0 PUSH1 0x40 MLOAD PUSH1 0x40 MLOAD DUP1 SWAP2 SUB SWAP1 LOG3 POP POP JUMP JUMPDEST PUSH1 0x0 CALLER SWAP1 POP SWAP1 JUMP JUMPDEST PUSH1 0x0 PUSH20 0xFFFFFFFFFFFFFFFFFFFFFFFFFFFFFFFFFFFFFFFF DUP3 AND SWAP1 POP SWAP2 SWAP1 POP JUMP JUMPDEST PUSH1 0x0 PUSH2 0x6C1 DUP3 PUSH2 0x696 JUMP JUMPDEST SWAP1 POP SWAP2 SWAP1 POP JUMP JUMPDEST PUSH2 0x6D1 DUP2 PUSH2 0x6B6 JUMP JUMPDEST DUP3 MSTORE POP POP JUMP JUMPDEST PUSH1 0x0 PUSH1 0x20 DUP3 ADD SWAP1 POP PUSH2 0x6EC PUSH1 0x0 DUP4 ADD DUP5 PUSH2 0x6C8 JUMP JUMPDEST SWAP3 SWAP2 POP POP JUMP JUMPDEST PUSH1 0x0 DUP2 SWAP1 POP SWAP2 SWAP1 POP JUMP JUMPDEST PUSH2 0x705 DUP2 PUSH2 0x6F2 JUMP JUMPDEST DUP3 MSTORE POP POP JUMP JUMPDEST PUSH1 0x0 PUSH1 0x20 DUP3 ADD SWAP1 POP PUSH2 0x720 PUSH1 0x0 DUP4 ADD DUP5 PUSH2 0x6FC JUMP JUMPDEST SWAP3 SWAP2 POP POP JUMP JUMPDEST PUSH1 0x0 DUP1 REVERT JUMPDEST PUSH2 0x734 DUP2 PUSH2 0x6B6 JUMP JUMPDEST DUP2 EQ PUSH2 0x73F JUMPI PUSH1 0x0 DUP1 REVERT JUMPDEST POP JUMP JUMPDEST PUSH1 0x0 DUP2 CALLDATALOAD SWAP1 POP PUSH2 0x751 DUP2 PUSH2 0x72B JUMP JUMPDEST SWAP3 SWAP2 POP POP JUMP JUMPDEST PUSH1 0x0 PUSH1 0x20 DUP3 DUP5 SUB SLT ISZERO PUSH2 0x76D JUMPI PUSH2 0x76C PUSH2 0x726 JUMP JUMPDEST JUMPDEST PUSH1 0x0 PUSH2 0x77B DUP5 DUP3 DUP6 ADD PUSH2 0x742 JUMP JUMPDEST SWAP2 POP POP SWAP3 SWAP2 POP POP JUMP JUMPDEST PUSH1 0x0 DUP3 DUP3 MSTORE PUSH1 0x20 DUP3 ADD SWAP1 POP SWAP3 SWAP2 POP POP JUMP JUMPDEST PUSH32 0x4F776E657220686173206E6F742062616C616E636520746F2077697468647261 PUSH1 0x0 DUP3 ADD MSTORE PUSH32 0x7700000000000000000000000000000000000000000000000000000000000000 PUSH1 0x20 DUP3 ADD MSTORE POP JUMP JUMPDEST PUSH1 0x0 PUSH2 0x7F1 PUSH1 0x21 DUP4 PUSH2 0x784 JUMP JUMPDEST SWAP2 POP PUSH2 0x7FC DUP3 PUSH2 0x795 JUMP JUMPDEST PUSH1 0x40 DUP3 ADD SWAP1 POP SWAP2 SWAP1 POP JUMP JUMPDEST PUSH1 0x0 PUSH1 0x20 DUP3 ADD SWAP1 POP DUP2 DUP2 SUB PUSH1 0x0 DUP4 ADD MSTORE PUSH2 0x820 DUP2 PUSH2 0x7E4 JUMP JUMPDEST SWAP1 POP SWAP2 SWAP1 POP JUMP JUMPDEST PUSH1 0x0 DUP2 SWAP1 POP SWAP3 SWAP2 POP POP JUMP JUMPDEST POP JUMP JUMPDEST PUSH1 0x0 PUSH2 0x842 PUSH1 0x0 DUP4 PUSH2 0x827 JUMP JUMPDEST SWAP2 POP PUSH2 0x84D DUP3 PUSH2 0x832 JUMP JUMPDEST PUSH1 0x0 DUP3 ADD SWAP1 POP SWAP2 SWAP1 POP JUMP JUMPDEST PUSH1 0x0 PUSH2 0x863 DUP3 PUSH2 0x835 JUMP JUMPDEST SWAP2 POP DUP2 SWAP1 POP SWAP2 SWAP1 POP JUMP JUMPDEST PUSH32 0x4661696C656420746F2073656E6420757365722062616C616E6365206261636B PUSH1 0x0 DUP3 ADD MSTORE PUSH32 0x20746F20746865206F776E657200000000000000000000000000000000000000 PUSH1 0x20 DUP3 ADD MSTORE POP JUMP JUMPDEST PUSH1 0x0 PUSH2 0x8C9 PUSH1 0x2D DUP4 PUSH2 0x784 JUMP JUMPDEST SWAP2 POP PUSH2 0x8D4 DUP3 PUSH2 0x86D JUMP JUMPDEST PUSH1 0x40 DUP3 ADD SWAP1 POP SWAP2 SWAP1 POP JUMP JUMPDEST PUSH1 0x0 PUSH1 0x20 DUP3 ADD SWAP1 POP DUP2 DUP2 SUB PUSH1 0x0 DUP4 ADD MSTORE PUSH2 0x8F8 DUP2 PUSH2 0x8BC JUMP JUMPDEST SWAP1 POP SWAP2 SWAP1 POP JUMP JUMPDEST PUSH32 0x53656E642045544820746F2062757920736F6D6520746F6B656E730000000000 PUSH1 0x0 DUP3 ADD MSTORE POP JUMP JUMPDEST PUSH1 0x0 PUSH2 0x935 PUSH1 0x1B DUP4 PUSH2 0x784 JUMP JUMPDEST SWAP2 POP PUSH2 0x940 DUP3 PUSH2 0x8FF JUMP JUMPDEST PUSH1 0x20 DUP3 ADD SWAP1 POP SWAP2 SWAP1 POP JUMP JUMPDEST PUSH1 0x0 PUSH1 0x20 DUP3 ADD SWAP1 POP DUP2 DUP2 SUB PUSH1 0x0 DUP4 ADD MSTORE PUSH2 0x964 DUP2 PUSH2 0x928 JUMP JUMPDEST SWAP1 POP SWAP2 SWAP1 POP JUMP JUMPDEST PUSH32 0x4E487B7100000000000000000000000000000000000000000000000000000000 PUSH1 0x0 MSTORE PUSH1 0x11 PUSH1 0x4 MSTORE PUSH1 0x24 PUSH1 0x0 REVERT JUMPDEST PUSH1 0x0 PUSH2 0x9A5 DUP3 PUSH2 0x6F2 JUMP JUMPDEST SWAP2 POP PUSH2 0x9B0 DUP4 PUSH2 0x6F2 JUMP JUMPDEST SWAP3 POP DUP3 DUP3 MUL PUSH2 0x9BE DUP2 PUSH2 0x6F2 JUMP JUMPDEST SWAP2 POP DUP3 DUP3 DIV DUP5 EQ DUP4 ISZERO OR PUSH2 0x9D5 JUMPI PUSH2 0x9D4 PUSH2 0x96B JUMP JUMPDEST JUMPDEST POP SWAP3 SWAP2 POP POP JUMP JUMPDEST PUSH2 0x9E5 DUP2 PUSH2 0x6F2 JUMP JUMPDEST DUP2 EQ PUSH2 0x9F0 JUMPI PUSH1 0x0 DUP1 REVERT JUMPDEST POP JUMP JUMPDEST PUSH1 0x0 DUP2 MLOAD SWAP1 POP PUSH2 0xA02 DUP2 PUSH2 0x9DC JUMP JUMPDEST SWAP3 SWAP2 POP POP JUMP JUMPDEST PUSH1 0x0 PUSH1 0x20 DUP3 DUP5 SUB SLT ISZERO PUSH2 0xA1E JUMPI PUSH2 0xA1D PUSH2 0x726 JUMP JUMPDEST JUMPDEST PUSH1 0x0 PUSH2 0xA2C DUP5 DUP3 DUP6 ADD PUSH2 0x9F3 JUMP JUMPDEST SWAP2 POP POP SWAP3 SWAP2 POP POP JUMP JUMPDEST PUSH32 0x56656E646F7220636F6E747261637420686173206E6F7420656E6F7567682074 PUSH1 0x0 DUP3 ADD MSTORE PUSH32 0x6F6B656E7320696E206974732062616C616E6365000000000000000000000000 PUSH1 0x20 DUP3 ADD MSTORE POP JUMP JUMPDEST PUSH1 0x0 PUSH2 0xA91 PUSH1 0x34 DUP4 PUSH2 0x784 JUMP JUMPDEST SWAP2 POP PUSH2 0xA9C DUP3 PUSH2 0xA35 JUMP JUMPDEST PUSH1 0x40 DUP3 ADD SWAP1 POP SWAP2 SWAP1 POP JUMP JUMPDEST PUSH1 0x0 PUSH1 0x20 DUP3 ADD SWAP1 POP DUP2 DUP2 SUB PUSH1 0x0 DUP4 ADD MSTORE PUSH2 0xAC0 DUP2 PUSH2 0xA84 JUMP JUMPDEST SWAP1 POP SWAP2 SWAP1 POP JUMP JUMPDEST PUSH1 0x0 PUSH1 0x40 DUP3 ADD SWAP1 POP PUSH2 0xADC PUSH1 0x0 DUP4 ADD DUP6 PUSH2 0x6C8 JUMP JUMPDEST PUSH2 0xAE9 PUSH1 0x20 DUP4 ADD DUP5 PUSH2 0x6FC JUMP JUMPDEST SWAP4 SWAP3 POP POP POP JUMP JUMPDEST PUSH1 0x0 DUP2 ISZERO ISZERO SWAP1 POP SWAP2 SWAP1 POP JUMP JUMPDEST PUSH2 0xB05 DUP2 PUSH2 0xAF0 JUMP JUMPDEST DUP2 EQ PUSH2 0xB10 JUMPI PUSH1 0x0 DUP1 REVERT JUMPDEST POP JUMP JUMPDEST PUSH1 0x0 DUP2 MLOAD SWAP1 POP PUSH2 0xB22 DUP2 PUSH2 0xAFC JUMP JUMPDEST SWAP3 SWAP2 POP POP JUMP JUMPDEST PUSH1 0x0 PUSH1 0x20 DUP3 DUP5 SUB SLT ISZERO PUSH2 0xB3E JUMPI PUSH2 0xB3D PUSH2 0x726 JUMP JUMPDEST JUMPDEST PUSH1 0x0 PUSH2 0xB4C DUP5 DUP3 DUP6 ADD PUSH2 0xB13 JUMP JUMPDEST SWAP2 POP POP SWAP3 SWAP2 POP POP JUMP JUMPDEST PUSH32 0x4661696C656420746F207472616E7366657220746F6B656E20746F2075736572 PUSH1 0x0 DUP3 ADD MSTORE POP JUMP JUMPDEST PUSH1 0x0 PUSH2 0xB8B PUSH1 0x20 DUP4 PUSH2 0x784 JUMP JUMPDEST SWAP2 POP PUSH2 0xB96 DUP3 PUSH2 0xB55 JUMP JUMPDEST PUSH1 0x20 DUP3 ADD SWAP1 POP SWAP2 SWAP1 POP JUMP JUMPDEST PUSH1 0x0 PUSH1 0x20 DUP3 ADD SWAP1 POP DUP2 DUP2 SUB PUSH1 0x0 DUP4 ADD MSTORE PUSH2 0xBBA DUP2 PUSH2 0xB7E JUMP JUMPDEST SWAP1 POP SWAP2 SWAP1 POP JUMP JUMPDEST PUSH1 0x0 PUSH1 0x60 DUP3 ADD SWAP1 POP PUSH2 0xBD6 PUSH1 0x0 DUP4 ADD DUP7 PUSH2 0x6C8 JUMP JUMPDEST PUSH2 0xBE3 PUSH1 0x20 DUP4 ADD DUP6 PUSH2 0x6FC JUMP JUMPDEST PUSH2 0xBF0 PUSH1 0x40 DUP4 ADD DUP5 PUSH2 0x6FC JUMP JUMPDEST SWAP5 SWAP4 POP POP POP POP JUMP JUMPDEST PUSH32 0x4F776E61626C653A206E6577206F776E657220697320746865207A65726F2061 PUSH1 0x0 DUP3 ADD MSTORE PUSH32 0x6464726573730000000000000000000000000000000000000000000000000000 PUSH1 0x20 DUP3 ADD MSTORE POP JUMP JUMPDEST PUSH1 0x0 PUSH2 0xC54 PUSH1 0x26 DUP4 PUSH2 0x784 JUMP JUMPDEST SWAP2 POP PUSH2 0xC5F DUP3 PUSH2 0xBF8 JUMP JUMPDEST PUSH1 0x40 DUP3 ADD SWAP1 POP SWAP2 SWAP1 POP JUMP JUMPDEST PUSH1 0x0 PUSH1 0x20 DUP3 ADD SWAP1 POP DUP2 DUP2 SUB PUSH1 0x0 DUP4 ADD MSTORE PUSH2 0xC83 DUP2 PUSH2 0xC47 JUMP JUMPDEST SWAP1 POP SWAP2 SWAP1 POP JUMP JUMPDEST PUSH32 0x4F776E61626C653A2063616C6C6572206973206E6F7420746865206F776E6572 PUSH1 0x0 DUP3 ADD MSTORE POP JUMP JUMPDEST PUSH1 0x0 PUSH2 0xCC0 PUSH1 0x20 DUP4 PUSH2 0x784 JUMP JUMPDEST SWAP2 POP PUSH2 0xCCB DUP3 PUSH2 0xC8A JUMP JUMPDEST PUSH1 0x20 DUP3 ADD SWAP1 POP SWAP2 SWAP1 POP JUMP JUMPDEST PUSH1 0x0 PUSH1 0x20 DUP3 ADD SWAP1 POP DUP2 DUP2 SUB PUSH1 0x0 DUP4 ADD MSTORE PUSH2 0xCEF DUP2 PUSH2 0xCB3 JUMP JUMPDEST SWAP1 POP SWAP2 SWAP1 POP JUMP INVALID LOG2 PUSH5 0x6970667358 0x22 SLT KECCAK256 0xA5 0xC8 0xDD 0x23 DUP10 PUSH11 0xE6926C611EFA1DA514111D 0xB6 PUSH27 0x34DBE1B20F4DCB645002199AB764736F6C63430008120033000000 "
				},
				"gasEstimates": {
					"creation": {
						"codeDepositCost": "674400",
						"executionCost": "infinite",
						"totalCost": "infinite"
					},
					"external": {
						"buyTokens()": "infinite",
						"owner()": "2544",
						"renounceOwnership()": "30398",
						"tokensPerEth()": "2473",
						"transferOwnership(address)": "30832",
						"withdraw()": "infinite"
					}
				},
				"methodIdentifiers": {
					"buyTokens()": "d0febe4c",
					"owner()": "8da5cb5b",
					"renounceOwnership()": "715018a6",
					"tokensPerEth()": "cbdd69b5",
					"transferOwnership(address)": "f2fde38b",
					"withdraw()": "3ccfd60b"
				}
			},
			"storageLayout": {
				"storage": [
					{
						"astId": 7,
						"contract": "contracts/vendor.sol:Vendor",
						"label": "_owner",
						"offset": 0,
						"slot": "0",
						"type": "t_address"
					},
					{
						"astId": 857,
						"contract": "contracts/vendor.sol:Vendor",
						"label": "yourToken",
						"offset": 0,
						"slot": "1",
						"type": "t_contract(YourToken)848"
					},
					{
						"astId": 860,
						"contract": "contracts/vendor.sol:Vendor",
						"label": "tokensPerEth",
						"offset": 0,
						"slot": "2",
						"type": "t_uint256"
					}
				],
				"types": {
					"t_address": {
						"encoding": "inplace",
						"label": "address",
						"numberOfBytes": "20"
					},
					"t_contract(YourToken)848": {
						"encoding": "inplace",
						"label": "contract YourToken",
						"numberOfBytes": "20"
					},
					"t_uint256": {
						"encoding": "inplace",
						"label": "uint256",
						"numberOfBytes": "32"
					}
				}
			},
			"userdoc": {
				"kind": "user",
				"methods": {
					"buyTokens()": {
						"notice": "Allow users to buy token for ETH"
					},
					"withdraw()": {
						"notice": "Allow the owner of the contract to withdraw ETH"
					}
				},
				"version": 1
			}
		}
	}
}