{
	"contracts/number.sol": {
		"Number": {
			"abi": [
				{
					"anonymous": false,
					"inputs": [
						{
							"indexed": true,
							"internalType": "address",
							"name": "from",
							"type": "address"
						},
						{
							"indexed": true,
							"internalType": "uint256",
							"name": "randomNumber",
							"type": "uint256"
						}
					],
					"name": "MyEvent",
					"type": "event"
				},
				{
					"inputs": [],
					"name": "deposit",
					"outputs": [],
					"stateMutability": "payable",
					"type": "function"
				},
				{
					"inputs": [],
					"name": "emitAnEvent",
					"outputs": [],
					"stateMutability": "nonpayable",
					"type": "function"
				},
				{
					"inputs": [],
					"name": "getBalance",
					"outputs": [
						{
							"internalType": "uint256",
							"name": "",
							"type": "uint256"
						}
					],
					"stateMutability": "view",
					"type": "function"
				},
				{
					"inputs": [],
					"name": "increnmentNmber",
					"outputs": [],
					"stateMutability": "nonpayable",
					"type": "function"
				},
				{
					"inputs": [],
					"name": "number",
					"outputs": [
						{
							"internalType": "uint256",
							"name": "",
							"type": "uint256"
						}
					],
					"stateMutability": "view",
					"type": "function"
				}
			],
			"devdoc": {
				"kind": "dev",
				"methods": {},
				"version": 1
			},
			"evm": {
				"assembly": "    /* \"contracts/number.sol\":59:503  contract Number {... */\n  mstore(0x40, 0x80)\n    /* \"contracts/number.sol\":103:104  1 */\n  0x01\n    /* \"contracts/number.sol\":82:104  uint public number = 1 */\n  0x00\n  sstore\n    /* \"contracts/number.sol\":59:503  contract Number {... */\n  callvalue\n  dup1\n  iszero\n  tag_1\n  jumpi\n  0x00\n  dup1\n  revert\ntag_1:\n  pop\n  dataSize(sub_0)\n  dup1\n  dataOffset(sub_0)\n  0x00\n  codecopy\n  0x00\n  return\nstop\n\nsub_0: assembly {\n        /* \"contracts/number.sol\":59:503  contract Number {... */\n      mstore(0x40, 0x80)\n      jumpi(tag_1, lt(calldatasize, 0x04))\n      shr(0xe0, calldataload(0x00))\n      dup1\n      0x12065fe0\n      eq\n      tag_2\n      jumpi\n      dup1\n      0x18fd5524\n      eq\n      tag_3\n      jumpi\n      dup1\n      0x8381f58a\n      eq\n      tag_4\n      jumpi\n      dup1\n      0x910220cf\n      eq\n      tag_5\n      jumpi\n      dup1\n      0xd0e30db0\n      eq\n      tag_6\n      jumpi\n    tag_1:\n      0x00\n      dup1\n      revert\n        /* \"contracts/number.sol\":324:421  function getBalance() external view returns(uint) {... */\n    tag_2:\n      callvalue\n      dup1\n      iszero\n      tag_7\n      jumpi\n      0x00\n      dup1\n      revert\n    tag_7:\n      pop\n      tag_8\n      tag_9\n      jump\t// in\n    tag_8:\n      mload(0x40)\n      tag_10\n      swap2\n      swap1\n      tag_11\n      jump\t// in\n    tag_10:\n      mload(0x40)\n      dup1\n      swap2\n      sub\n      swap1\n      return\n        /* \"contracts/number.sol\":113:179  function increnmentNmber() external {... */\n    tag_3:\n      callvalue\n      dup1\n      iszero\n      tag_12\n      jumpi\n      0x00\n      dup1\n      revert\n    tag_12:\n      pop\n      tag_13\n      tag_14\n      jump\t// in\n    tag_13:\n      stop\n        /* \"contracts/number.sol\":82:104  uint public number = 1 */\n    tag_4:\n      callvalue\n      dup1\n      iszero\n      tag_15\n      jumpi\n      0x00\n      dup1\n      revert\n    tag_15:\n      pop\n      tag_16\n      tag_17\n      jump\t// in\n    tag_16:\n      mload(0x40)\n      tag_18\n      swap2\n      swap1\n      tag_11\n      jump\t// in\n    tag_18:\n      mload(0x40)\n      dup1\n      swap2\n      sub\n      swap1\n      return\n        /* \"contracts/number.sol\":187:266  function emitAnEvent() external {... */\n    tag_5:\n      callvalue\n      dup1\n      iszero\n      tag_19\n      jumpi\n      0x00\n      dup1\n      revert\n    tag_19:\n      pop\n      tag_20\n      tag_21\n      jump\t// in\n    tag_20:\n      stop\n        /* \"contracts/number.sol\":274:312  function deposit() external payable {} */\n    tag_6:\n      tag_22\n      tag_23\n      jump\t// in\n    tag_22:\n      stop\n        /* \"contracts/number.sol\":324:421  function getBalance() external view returns(uint) {... */\n    tag_9:\n        /* \"contracts/number.sol\":368:372  uint */\n      0x00\n        /* \"contracts/number.sol\":392:413  address(this).balance */\n      selfbalance\n        /* \"contracts/number.sol\":385:413  return address(this).balance */\n      swap1\n      pop\n        /* \"contracts/number.sol\":324:421  function getBalance() external view returns(uint) {... */\n      swap1\n      jump\t// out\n        /* \"contracts/number.sol\":113:179  function increnmentNmber() external {... */\n    tag_14:\n        /* \"contracts/number.sol\":170:171  1 */\n      0x01\n        /* \"contracts/number.sol\":160:166  number */\n      0x00\n      dup1\n        /* \"contracts/number.sol\":160:171  number += 1 */\n      dup3\n      dup3\n      sload\n      tag_26\n      swap2\n      swap1\n      tag_27\n      jump\t// in\n    tag_26:\n      swap3\n      pop\n      pop\n      dup2\n      swap1\n      sstore\n      pop\n        /* \"contracts/number.sol\":113:179  function increnmentNmber() external {... */\n      jump\t// out\n        /* \"contracts/number.sol\":82:104  uint public number = 1 */\n    tag_17:\n      sload(0x00)\n      dup2\n      jump\t// out\n        /* \"contracts/number.sol\":187:266  function emitAnEvent() external {... */\n    tag_21:\n        /* \"contracts/number.sol\":255:257  99 */\n      0x63\n        /* \"contracts/number.sol\":243:253  msg.sender */\n      caller\n        /* \"contracts/number.sol\":235:258  MyEvent(msg.sender, 99) */\n      0xffffffffffffffffffffffffffffffffffffffff\n      and\n      0xdf50c7bb3b25f812aedef81bc334454040e7b27e27de95a79451d663013b7e17\n      mload(0x40)\n      mload(0x40)\n      dup1\n      swap2\n      sub\n      swap1\n      log3\n        /* \"contracts/number.sol\":187:266  function emitAnEvent() external {... */\n      jump\t// out\n        /* \"contracts/number.sol\":274:312  function deposit() external payable {} */\n    tag_23:\n      jump\t// out\n        /* \"#utility.yul\":7:84   */\n    tag_30:\n        /* \"#utility.yul\":44:51   */\n      0x00\n        /* \"#utility.yul\":73:78   */\n      dup2\n        /* \"#utility.yul\":62:78   */\n      swap1\n      pop\n        /* \"#utility.yul\":7:84   */\n      swap2\n      swap1\n      pop\n      jump\t// out\n        /* \"#utility.yul\":90:208   */\n    tag_31:\n        /* \"#utility.yul\":177:201   */\n      tag_36\n        /* \"#utility.yul\":195:200   */\n      dup2\n        /* \"#utility.yul\":177:201   */\n      tag_30\n      jump\t// in\n    tag_36:\n        /* \"#utility.yul\":172:175   */\n      dup3\n        /* \"#utility.yul\":165:202   */\n      mstore\n        /* \"#utility.yul\":90:208   */\n      pop\n      pop\n      jump\t// out\n        /* \"#utility.yul\":214:436   */\n    tag_11:\n        /* \"#utility.yul\":307:311   */\n      0x00\n        /* \"#utility.yul\":345:347   */\n      0x20\n        /* \"#utility.yul\":334:343   */\n      dup3\n        /* \"#utility.yul\":330:348   */\n      add\n        /* \"#utility.yul\":322:348   */\n      swap1\n      pop\n        /* \"#utility.yul\":358:429   */\n      tag_38\n        /* \"#utility.yul\":426:427   */\n      0x00\n        /* \"#utility.yul\":415:424   */\n      dup4\n        /* \"#utility.yul\":411:428   */\n      add\n        /* \"#utility.yul\":402:408   */\n      dup5\n        /* \"#utility.yul\":358:429   */\n      tag_31\n      jump\t// in\n    tag_38:\n        /* \"#utility.yul\":214:436   */\n      swap3\n      swap2\n      pop\n      pop\n      jump\t// out\n        /* \"#utility.yul\":442:622   */\n    tag_32:\n        /* \"#utility.yul\":490:567   */\n      0x4e487b7100000000000000000000000000000000000000000000000000000000\n        /* \"#utility.yul\":487:488   */\n      0x00\n        /* \"#utility.yul\":480:568   */\n      mstore\n        /* \"#utility.yul\":587:591   */\n      0x11\n        /* \"#utility.yul\":584:585   */\n      0x04\n        /* \"#utility.yul\":577:592   */\n      mstore\n        /* \"#utility.yul\":611:615   */\n      0x24\n        /* \"#utility.yul\":608:609   */\n      0x00\n        /* \"#utility.yul\":601:616   */\n      revert\n        /* \"#utility.yul\":628:819   */\n    tag_27:\n        /* \"#utility.yul\":668:671   */\n      0x00\n        /* \"#utility.yul\":687:707   */\n      tag_41\n        /* \"#utility.yul\":705:706   */\n      dup3\n        /* \"#utility.yul\":687:707   */\n      tag_30\n      jump\t// in\n    tag_41:\n        /* \"#utility.yul\":682:707   */\n      swap2\n      pop\n        /* \"#utility.yul\":721:741   */\n      tag_42\n        /* \"#utility.yul\":739:740   */\n      dup4\n        /* \"#utility.yul\":721:741   */\n      tag_30\n      jump\t// in\n    tag_42:\n        /* \"#utility.yul\":716:741   */\n      swap3\n      pop\n        /* \"#utility.yul\":764:765   */\n      dup3\n        /* \"#utility.yul\":761:762   */\n      dup3\n        /* \"#utility.yul\":757:766   */\n      add\n        /* \"#utility.yul\":750:766   */\n      swap1\n      pop\n        /* \"#utility.yul\":785:788   */\n      dup1\n        /* \"#utility.yul\":782:783   */\n      dup3\n        /* \"#utility.yul\":779:789   */\n      gt\n        /* \"#utility.yul\":776:812   */\n      iszero\n      tag_43\n      jumpi\n        /* \"#utility.yul\":792:810   */\n      tag_44\n      tag_32\n      jump\t// in\n    tag_44:\n        /* \"#utility.yul\":776:812   */\n    tag_43:\n        /* \"#utility.yul\":628:819   */\n      swap3\n      swap2\n      pop\n      pop\n      jump\t// out\n\n    auxdata: 0xa26469706673582212206f0bb94262cfc572734794ffa126fdff41a4dfa5d1b861fe9189841e763fe98e64736f6c63430008120033\n}\n",
				"bytecode": {
					"linkReferences": {},
					"object": "6080604052600160005534801561001557600080fd5b5061021c806100256000396000f3fe60806040526004361061004a5760003560e01c806312065fe01461004f57806318fd55241461007a5780638381f58a14610091578063910220cf146100bc578063d0e30db0146100d3575b600080fd5b34801561005b57600080fd5b506100646100dd565b6040516100719190610168565b60405180910390f35b34801561008657600080fd5b5061008f6100e5565b005b34801561009d57600080fd5b506100a6610100565b6040516100b39190610168565b60405180910390f35b3480156100c857600080fd5b506100d1610106565b005b6100db61014d565b005b600047905090565b60016000808282546100f791906101b2565b92505081905550565b60005481565b60633373ffffffffffffffffffffffffffffffffffffffff167fdf50c7bb3b25f812aedef81bc334454040e7b27e27de95a79451d663013b7e1760405160405180910390a3565b565b6000819050919050565b6101628161014f565b82525050565b600060208201905061017d6000830184610159565b92915050565b7f4e487b7100000000000000000000000000000000000000000000000000000000600052601160045260246000fd5b60006101bd8261014f565b91506101c88361014f565b92508282019050808211156101e0576101df610183565b5b9291505056fea26469706673582212206f0bb94262cfc572734794ffa126fdff41a4dfa5d1b861fe9189841e763fe98e64736f6c63430008120033",
					"opcodes": "PUSH1 0x80 PUSH1 0x40 MSTORE PUSH1 0x1 PUSH1 0x0 SSTORE CALLVALUE DUP1 ISZERO PUSH2 0x15 JUMPI PUSH1 0x0 DUP1 REVERT JUMPDEST POP PUSH2 0x21C DUP1 PUSH2 0x25 PUSH1 0x0 CODECOPY PUSH1 0x0 RETURN INVALID PUSH1 0x80 PUSH1 0x40 MSTORE PUSH1 0x4 CALLDATASIZE LT PUSH2 0x4A JUMPI PUSH1 0x0 CALLDATALOAD PUSH1 0xE0 SHR DUP1 PUSH4 0x12065FE0 EQ PUSH2 0x4F JUMPI DUP1 PUSH4 0x18FD5524 EQ PUSH2 0x7A JUMPI DUP1 PUSH4 0x8381F58A EQ PUSH2 0x91 JUMPI DUP1 PUSH4 0x910220CF EQ PUSH2 0xBC JUMPI DUP1 PUSH4 0xD0E30DB0 EQ PUSH2 0xD3 JUMPI JUMPDEST PUSH1 0x0 DUP1 REVERT JUMPDEST CALLVALUE DUP1 ISZERO PUSH2 0x5B JUMPI PUSH1 0x0 DUP1 REVERT JUMPDEST POP PUSH2 0x64 PUSH2 0xDD JUMP JUMPDEST PUSH1 0x40 MLOAD PUSH2 0x71 SWAP2 SWAP1 PUSH2 0x168 JUMP JUMPDEST PUSH1 0x40 MLOAD DUP1 SWAP2 SUB SWAP1 RETURN JUMPDEST CALLVALUE DUP1 ISZERO PUSH2 0x86 JUMPI PUSH1 0x0 DUP1 REVERT JUMPDEST POP PUSH2 0x8F PUSH2 0xE5 JUMP JUMPDEST STOP JUMPDEST CALLVALUE DUP1 ISZERO PUSH2 0x9D JUMPI PUSH1 0x0 DUP1 REVERT JUMPDEST POP PUSH2 0xA6 PUSH2 0x100 JUMP JUMPDEST PUSH1 0x40 MLOAD PUSH2 0xB3 SWAP2 SWAP1 PUSH2 0x168 JUMP JUMPDEST PUSH1 0x40 MLOAD DUP1 SWAP2 SUB SWAP1 RETURN JUMPDEST CALLVALUE DUP1 ISZERO PUSH2 0xC8 JUMPI PUSH1 0x0 DUP1 REVERT JUMPDEST POP PUSH2 0xD1 PUSH2 0x106 JUMP JUMPDEST STOP JUMPDEST PUSH2 0xDB PUSH2 0x14D JUMP JUMPDEST STOP JUMPDEST PUSH1 0x0 SELFBALANCE SWAP1 POP SWAP1 JUMP JUMPDEST PUSH1 0x1 PUSH1 0x0 DUP1 DUP3 DUP3 SLOAD PUSH2 0xF7 SWAP2 SWAP1 PUSH2 0x1B2 JUMP JUMPDEST SWAP3 POP POP DUP2 SWAP1 SSTORE POP JUMP JUMPDEST PUSH1 0x0 SLOAD DUP2 JUMP JUMPDEST PUSH1 0x63 CALLER PUSH20 0xFFFFFFFFFFFFFFFFFFFFFFFFFFFFFFFFFFFFFFFF AND PUSH32 0xDF50C7BB3B25F812AEDEF81BC334454040E7B27E27DE95A79451D663013B7E17 PUSH1 0x40 MLOAD PUSH1 0x40 MLOAD DUP1 SWAP2 SUB SWAP1 LOG3 JUMP JUMPDEST JUMP JUMPDEST PUSH1 0x0 DUP2 SWAP1 POP SWAP2 SWAP1 POP JUMP JUMPDEST PUSH2 0x162 DUP2 PUSH2 0x14F JUMP JUMPDEST DUP3 MSTORE POP POP JUMP JUMPDEST PUSH1 0x0 PUSH1 0x20 DUP3 ADD SWAP1 POP PUSH2 0x17D PUSH1 0x0 DUP4 ADD DUP5 PUSH2 0x159 JUMP JUMPDEST SWAP3 SWAP2 POP POP JUMP JUMPDEST PUSH32 0x4E487B7100000000000000000000000000000000000000000000000000000000 PUSH1 0x0 MSTORE PUSH1 0x11 PUSH1 0x4 MSTORE PUSH1 0x24 PUSH1 0x0 REVERT JUMPDEST PUSH1 0x0 PUSH2 0x1BD DUP3 PUSH2 0x14F JUMP JUMPDEST SWAP2 POP PUSH2 0x1C8 DUP4 PUSH2 0x14F JUMP JUMPDEST SWAP3 POP DUP3 DUP3 ADD SWAP1 POP DUP1 DUP3 GT ISZERO PUSH2 0x1E0 JUMPI PUSH2 0x1DF PUSH2 0x183 JUMP JUMPDEST JUMPDEST SWAP3 SWAP2 POP POP JUMP INVALID LOG2 PUSH5 0x6970667358 0x22 SLT KECCAK256 PUSH16 0xBB94262CFC572734794FFA126FDFF41 LOG4 0xDF 0xA5 0xD1 0xB8 PUSH2 0xFE91 DUP10 DUP5 0x1E PUSH23 0x3FE98E64736F6C63430008120033000000000000000000 "
				},
				"gasEstimates": {
					"creation": {
						"codeDepositCost": "108000",
						"executionCost": "22259",
						"totalCost": "130259"
					},
					"external": {
						"deposit()": "186",
						"emitAnEvent()": "1726",
						"getBalance()": "317",
						"increnmentNmber()": "infinite",
						"number()": "2451"
					}
				},
				"methodIdentifiers": {
					"deposit()": "d0e30db0",
					"emitAnEvent()": "910220cf",
					"getBalance()": "12065fe0",
					"increnmentNmber()": "18fd5524",
					"number()": "8381f58a"
				}
			},
			"storageLayout": {
				"storage": [
					{
						"astId": 4,
						"contract": "contracts/number.sol:Number",
						"label": "number",
						"offset": 0,
						"slot": "0",
						"type": "t_uint256"
					}
				],
				"types": {
					"t_uint256": {
						"encoding": "inplace",
						"label": "uint256",
						"numberOfBytes": "32"
					}
				}
			},
			"userdoc": {
				"kind": "user",
				"methods": {},
				"version": 1
			}
		}
	}
}