{
	"data": {
		"bytecode": {
			"linkReferences": {},
			"object": "608060405234801561001057600080fd5b50336000806101000a81548173ffffffffffffffffffffffffffffffffffffffff021916908373ffffffffffffffffffffffffffffffffffffffff160217905550610416806100606000396000f3fe60806040526004361061004a5760003560e01c806312065fe01461004f578063481c6a751461007a578063756af45f146100a5578063c1756a2c146100ce578063d7bb99ba146100f7575b600080fd5b34801561005b57600080fd5b50610064610101565b604051610071919061028d565b60405180910390f35b34801561008657600080fd5b5061008f610109565b60405161009c91906102e9565b60405180910390f35b3480156100b157600080fd5b506100cc60048036038101906100c79190610347565b61012d565b005b3480156100da57600080fd5b506100f560048036038101906100f091906103a0565b6101cf565b005b6100ff610272565b005b600047905090565b60008054906101000a900473ffffffffffffffffffffffffffffffffffffffff1681565b60008054906101000a900473ffffffffffffffffffffffffffffffffffffffff1673ffffffffffffffffffffffffffffffffffffffff163373ffffffffffffffffffffffffffffffffffffffff161461018557600080fd5b8073ffffffffffffffffffffffffffffffffffffffff166108fc479081150290604051600060405180830381858888f193505050501580156101cb573d6000803e3d6000fd5b5050565b60008054906101000a900473ffffffffffffffffffffffffffffffffffffffff1673ffffffffffffffffffffffffffffffffffffffff163373ffffffffffffffffffffffffffffffffffffffff161461022757600080fd5b8173ffffffffffffffffffffffffffffffffffffffff166108fc829081150290604051600060405180830381858888f1935050505015801561026d573d6000803e3d6000fd5b505050565b565b6000819050919050565b61028781610274565b82525050565b60006020820190506102a2600083018461027e565b92915050565b600073ffffffffffffffffffffffffffffffffffffffff82169050919050565b60006102d3826102a8565b9050919050565b6102e3816102c8565b82525050565b60006020820190506102fe60008301846102da565b92915050565b600080fd5b6000610314826102a8565b9050919050565b61032481610309565b811461032f57600080fd5b50565b6000813590506103418161031b565b92915050565b60006020828403121561035d5761035c610304565b5b600061036b84828501610332565b91505092915050565b61037d81610274565b811461038857600080fd5b50565b60008135905061039a81610374565b92915050565b600080604083850312156103b7576103b6610304565b5b60006103c585828601610332565b92505060206103d68582860161038b565b915050925092905056fea2646970667358221220baa12a12e09a442ee68252ae9795e2a85c47ed2055c90ee77f48978d4167465264736f6c63430008120033",
			"opcodes": "PUSH1 0x80 PUSH1 0x40 MSTORE CALLVALUE DUP1 ISZERO PUSH2 0x10 JUMPI PUSH1 0x0 DUP1 REVERT JUMPDEST POP CALLER PUSH1 0x0 DUP1 PUSH2 0x100 EXP DUP2 SLOAD DUP2 PUSH20 0xFFFFFFFFFFFFFFFFFFFFFFFFFFFFFFFFFFFFFFFF MUL NOT AND SWAP1 DUP4 PUSH20 0xFFFFFFFFFFFFFFFFFFFFFFFFFFFFFFFFFFFFFFFF AND MUL OR SWAP1 SSTORE POP PUSH2 0x416 DUP1 PUSH2 0x60 PUSH1 0x0 CODECOPY PUSH1 0x0 RETURN INVALID PUSH1 0x80 PUSH1 0x40 MSTORE PUSH1 0x4 CALLDATASIZE LT PUSH2 0x4A JUMPI PUSH1 0x0 CALLDATALOAD PUSH1 0xE0 SHR DUP1 PUSH4 0x12065FE0 EQ PUSH2 0x4F JUMPI DUP1 PUSH4 0x481C6A75 EQ PUSH2 0x7A JUMPI DUP1 PUSH4 0x756AF45F EQ PUSH2 0xA5 JUMPI DUP1 PUSH4 0xC1756A2C EQ PUSH2 0xCE JUMPI DUP1 PUSH4 0xD7BB99BA EQ PUSH2 0xF7 JUMPI JUMPDEST PUSH1 0x0 DUP1 REVERT JUMPDEST CALLVALUE DUP1 ISZERO PUSH2 0x5B JUMPI PUSH1 0x0 DUP1 REVERT JUMPDEST POP PUSH2 0x64 PUSH2 0x101 JUMP JUMPDEST PUSH1 0x40 MLOAD PUSH2 0x71 SWAP2 SWAP1 PUSH2 0x28D JUMP JUMPDEST PUSH1 0x40 MLOAD DUP1 SWAP2 SUB SWAP1 RETURN JUMPDEST CALLVALUE DUP1 ISZERO PUSH2 0x86 JUMPI PUSH1 0x0 DUP1 REVERT JUMPDEST POP PUSH2 0x8F PUSH2 0x109 JUMP JUMPDEST PUSH1 0x40 MLOAD PUSH2 0x9C SWAP2 SWAP1 PUSH2 0x2E9 JUMP JUMPDEST PUSH1 0x40 MLOAD DUP1 SWAP2 SUB SWAP1 RETURN JUMPDEST CALLVALUE DUP1 ISZERO PUSH2 0xB1 JUMPI PUSH1 0x0 DUP1 REVERT JUMPDEST POP PUSH2 0xCC PUSH1 0x4 DUP1 CALLDATASIZE SUB DUP2 ADD SWAP1 PUSH2 0xC7 SWAP2 SWAP1 PUSH2 0x347 JUMP JUMPDEST PUSH2 0x12D JUMP JUMPDEST STOP JUMPDEST CALLVALUE DUP1 ISZERO PUSH2 0xDA JUMPI PUSH1 0x0 DUP1 REVERT JUMPDEST POP PUSH2 0xF5 PUSH1 0x4 DUP1 CALLDATASIZE SUB DUP2 ADD SWAP1 PUSH2 0xF0 SWAP2 SWAP1 PUSH2 0x3A0 JUMP JUMPDEST PUSH2 0x1CF JUMP JUMPDEST STOP JUMPDEST PUSH2 0xFF PUSH2 0x272 JUMP JUMPDEST STOP JUMPDEST PUSH1 0x0 SELFBALANCE SWAP1 POP SWAP1 JUMP JUMPDEST PUSH1 0x0 DUP1 SLOAD SWAP1 PUSH2 0x100 EXP SWAP1 DIV PUSH20 0xFFFFFFFFFFFFFFFFFFFFFFFFFFFFFFFFFFFFFFFF AND DUP2 JUMP JUMPDEST PUSH1 0x0 DUP1 SLOAD SWAP1 PUSH2 0x100 EXP SWAP1 DIV PUSH20 0xFFFFFFFFFFFFFFFFFFFFFFFFFFFFFFFFFFFFFFFF AND PUSH20 0xFFFFFFFFFFFFFFFFFFFFFFFFFFFFFFFFFFFFFFFF AND CALLER PUSH20 0xFFFFFFFFFFFFFFFFFFFFFFFFFFFFFFFFFFFFFFFF AND EQ PUSH2 0x185 JUMPI PUSH1 0x0 DUP1 REVERT JUMPDEST DUP1 PUSH20 0xFFFFFFFFFFFFFFFFFFFFFFFFFFFFFFFFFFFFFFFF AND PUSH2 0x8FC SELFBALANCE SWAP1 DUP2 ISZERO MUL SWAP1 PUSH1 0x40 MLOAD PUSH1 0x0 PUSH1 0x40 MLOAD DUP1 DUP4 SUB DUP2 DUP6 DUP9 DUP9 CALL SWAP4 POP POP POP POP ISZERO DUP1 ISZERO PUSH2 0x1CB JUMPI RETURNDATASIZE PUSH1 0x0 DUP1 RETURNDATACOPY RETURNDATASIZE PUSH1 0x0 REVERT JUMPDEST POP POP JUMP JUMPDEST PUSH1 0x0 DUP1 SLOAD SWAP1 PUSH2 0x100 EXP SWAP1 DIV PUSH20 0xFFFFFFFFFFFFFFFFFFFFFFFFFFFFFFFFFFFFFFFF AND PUSH20 0xFFFFFFFFFFFFFFFFFFFFFFFFFFFFFFFFFFFFFFFF AND CALLER PUSH20 0xFFFFFFFFFFFFFFFFFFFFFFFFFFFFFFFFFFFFFFFF AND EQ PUSH2 0x227 JUMPI PUSH1 0x0 DUP1 REVERT JUMPDEST DUP2 PUSH20 0xFFFFFFFFFFFFFFFFFFFFFFFFFFFFFFFFFFFFFFFF AND PUSH2 0x8FC DUP3 SWAP1 DUP2 ISZERO MUL SWAP1 PUSH1 0x40 MLOAD PUSH1 0x0 PUSH1 0x40 MLOAD DUP1 DUP4 SUB DUP2 DUP6 DUP9 DUP9 CALL SWAP4 POP POP POP POP ISZERO DUP1 ISZERO PUSH2 0x26D JUMPI RETURNDATASIZE PUSH1 0x0 DUP1 RETURNDATACOPY RETURNDATASIZE PUSH1 0x0 REVERT JUMPDEST POP POP POP JUMP JUMPDEST JUMP JUMPDEST PUSH1 0x0 DUP2 SWAP1 POP SWAP2 SWAP1 POP JUMP JUMPDEST PUSH2 0x287 DUP2 PUSH2 0x274 JUMP JUMPDEST DUP3 MSTORE POP POP JUMP JUMPDEST PUSH1 0x0 PUSH1 0x20 DUP3 ADD SWAP1 POP PUSH2 0x2A2 PUSH1 0x0 DUP4 ADD DUP5 PUSH2 0x27E JUMP JUMPDEST SWAP3 SWAP2 POP POP JUMP JUMPDEST PUSH1 0x0 PUSH20 0xFFFFFFFFFFFFFFFFFFFFFFFFFFFFFFFFFFFFFFFF DUP3 AND SWAP1 POP SWAP2 SWAP1 POP JUMP JUMPDEST PUSH1 0x0 PUSH2 0x2D3 DUP3 PUSH2 0x2A8 JUMP JUMPDEST SWAP1 POP SWAP2 SWAP1 POP JUMP JUMPDEST PUSH2 0x2E3 DUP2 PUSH2 0x2C8 JUMP JUMPDEST DUP3 MSTORE POP POP JUMP JUMPDEST PUSH1 0x0 PUSH1 0x20 DUP3 ADD SWAP1 POP PUSH2 0x2FE PUSH1 0x0 DUP4 ADD DUP5 PUSH2 0x2DA JUMP JUMPDEST SWAP3 SWAP2 POP POP JUMP JUMPDEST PUSH1 0x0 DUP1 REVERT JUMPDEST PUSH1 0x0 PUSH2 0x314 DUP3 PUSH2 0x2A8 JUMP JUMPDEST SWAP1 POP SWAP2 SWAP1 POP JUMP JUMPDEST PUSH2 0x324 DUP2 PUSH2 0x309 JUMP JUMPDEST DUP2 EQ PUSH2 0x32F JUMPI PUSH1 0x0 DUP1 REVERT JUMPDEST POP JUMP JUMPDEST PUSH1 0x0 DUP2 CALLDATALOAD SWAP1 POP PUSH2 0x341 DUP2 PUSH2 0x31B JUMP JUMPDEST SWAP3 SWAP2 POP POP JUMP JUMPDEST PUSH1 0x0 PUSH1 0x20 DUP3 DUP5 SUB SLT ISZERO PUSH2 0x35D JUMPI PUSH2 0x35C PUSH2 0x304 JUMP JUMPDEST JUMPDEST PUSH1 0x0 PUSH2 0x36B DUP5 DUP3 DUP6 ADD PUSH2 0x332 JUMP JUMPDEST SWAP2 POP POP SWAP3 SWAP2 POP POP JUMP JUMPDEST PUSH2 0x37D DUP2 PUSH2 0x274 JUMP JUMPDEST DUP2 EQ PUSH2 0x388 JUMPI PUSH1 0x0 DUP1 REVERT JUMPDEST POP JUMP JUMPDEST PUSH1 0x0 DUP2 CALLDATALOAD SWAP1 POP PUSH2 0x39A DUP2 PUSH2 0x374 JUMP JUMPDEST SWAP3 SWAP2 POP POP JUMP JUMPDEST PUSH1 0x0 DUP1 PUSH1 0x40 DUP4 DUP6 SUB SLT ISZERO PUSH2 0x3B7 JUMPI PUSH2 0x3B6 PUSH2 0x304 JUMP JUMPDEST JUMPDEST PUSH1 0x0 PUSH2 0x3C5 DUP6 DUP3 DUP7 ADD PUSH2 0x332 JUMP JUMPDEST SWAP3 POP POP PUSH1 0x20 PUSH2 0x3D6 DUP6 DUP3 DUP7 ADD PUSH2 0x38B JUMP JUMPDEST SWAP2 POP POP SWAP3 POP SWAP3 SWAP1 POP JUMP INVALID LOG2 PUSH5 0x6970667358 0x22 SLT KECCAK256 0xBA LOG1 0x2A SLT 0xE0 SWAP11 PREVRANDAO 0x2E 0xE6 DUP3 MSTORE 0xAE SWAP8 SWAP6 0xE2 0xA8 0x5C SELFBALANCE 0xED KECCAK256 SSTORE 0xC9 0xE 0xE7 PUSH32 0x48978D4167465264736F6C634300081200330000000000000000000000000000 "
		},
		"gasEstimates": {
			"creation": {
				"codeDepositCost": "209200",
				"executionCost": "24517",
				"totalCost": "233717"
			},
			"external": {
				"contribute()": "186",
				"getBalance()": "317",
				"manager()": "2511",
				"sendEther(address,uint256)": "infinite",
				"withdrawBalance(address)": "infinite"
			}
		},
		"methodIdentifiers": {
			"contribute()": "d7bb99ba",
			"getBalance()": "12065fe0",
			"manager()": "481c6a75",
			"sendEther(address,uint256)": "c1756a2c",
			"withdrawBalance(address)": "756af45f"
		}
	},
	"abi": [
		{
			"inputs": [],
			"stateMutability": "nonpayable",
			"type": "constructor"
		},
		{
			"inputs": [],
			"name": "contribute",
			"outputs": [],
			"stateMutability": "payable",
			"type": "function"
		},
		{
			"inputs": [],
			"name": "getBalance",
			"outputs": [
				{
					"internalType": "uint256",
					"name": "",
					"type": "uint256"
				}
			],
			"stateMutability": "view",
			"type": "function"
		},
		{
			"inputs": [],
			"name": "manager",
			"outputs": [
				{
					"internalType": "address",
					"name": "",
					"type": "address"
				}
			],
			"stateMutability": "view",
			"type": "function"
		},
		{
			"inputs": [
				{
					"internalType": "address payable",
					"name": "recipient",
					"type": "address"
				},
				{
					"internalType": "uint256",
					"name": "weiAmount",
					"type": "uint256"
				}
			],
			"name": "sendEther",
			"outputs": [],
			"stateMutability": "nonpayable",
			"type": "function"
		},
		{
			"inputs": [
				{
					"internalType": "address payable",
					"name": "recipient",
					"type": "address"
				}
			],
			"name": "withdrawBalance",
			"outputs": [],
			"stateMutability": "nonpayable",
			"type": "function"
		}
	]
}