{
	"data": {
		"bytecode": {
			"linkReferences": {},
			"object": "608060405260646002553480156200001657600080fd5b50604051620010fd380380620010fd83398181016040528101906200003c9190620001da565b6200005c62000050620000a460201b60201c565b620000ac60201b60201c565b80600160006101000a81548173ffffffffffffffffffffffffffffffffffffffff021916908373ffffffffffffffffffffffffffffffffffffffff160217905550506200020c565b600033905090565b60008060009054906101000a900473ffffffffffffffffffffffffffffffffffffffff169050816000806101000a81548173ffffffffffffffffffffffffffffffffffffffff021916908373ffffffffffffffffffffffffffffffffffffffff1602179055508173ffffffffffffffffffffffffffffffffffffffff168173ffffffffffffffffffffffffffffffffffffffff167f8be0079c531659141344cd1fd0a4f28419497f9722a3daafe3b4186f6b6457e060405160405180910390a35050565b600080fd5b600073ffffffffffffffffffffffffffffffffffffffff82169050919050565b6000620001a28262000175565b9050919050565b620001b48162000195565b8114620001c057600080fd5b50565b600081519050620001d481620001a9565b92915050565b600060208284031215620001f357620001f262000170565b5b60006200020384828501620001c3565b91505092915050565b610ee1806200021c6000396000f3fe6080604052600436106100865760003560e01c806382b2e2571161005957806382b2e2571461010f5780638da5cb5b1461013a578063cbdd69b514610165578063d0febe4c14610190578063f2fde38b146101ae57610086565b806312065fe01461008b5780633ccfd60b146100b6578063715018a6146100cd57806371d40e8b146100e4575b600080fd5b34801561009757600080fd5b506100a06101d7565b6040516100ad919061083a565b60405180910390f35b3480156100c257600080fd5b506100cb6101df565b005b3480156100d957600080fd5b506100e26102df565b005b3480156100f057600080fd5b506100f96102f3565b6040516101069190610870565b60405180910390f35b34801561011b57600080fd5b50610124610306565b604051610131919061083a565b60405180910390f35b34801561014657600080fd5b5061014f6103a9565b60405161015c91906108cc565b60405180910390f35b34801561017157600080fd5b5061017a6103d2565b604051610187919061083a565b60405180910390f35b6101986103d8565b6040516101a5919061083a565b60405180910390f35b3480156101ba57600080fd5b506101d560048036038101906101d09190610918565b610654565b005b600047905090565b6101e76106d7565b60004790506000811161022f576040517f08c379a0000000000000000000000000000000000000000000000000000000008152600401610226906109c8565b60405180910390fd5b60003373ffffffffffffffffffffffffffffffffffffffff164760405161025590610a19565b60006040518083038185875af1925050503d8060008114610292576040519150601f19603f3d011682016040523d82523d6000602084013e610297565b606091505b50509050806102db576040517f08c379a00000000000000000000000000000000000000000000000000000000081526004016102d290610aa0565b60405180910390fd5b5050565b6102e76106d7565b6102f16000610755565b565b600360009054906101000a900460ff1681565b6000600160009054906101000a900473ffffffffffffffffffffffffffffffffffffffff1673ffffffffffffffffffffffffffffffffffffffff166370a08231306040518263ffffffff1660e01b815260040161036391906108cc565b602060405180830381865afa158015610380573d6000803e3d6000fd5b505050506040513d601f19601f820116820180604052508101906103a49190610aec565b905090565b60008060009054906101000a900473ffffffffffffffffffffffffffffffffffffffff16905090565b60025481565b600080341161041c576040517f08c379a000000000000000000000000000000000000000000000000000000000815260040161041390610b65565b60405180910390fd5b60006002543461042c9190610bb4565b90506000600160009054906101000a900473ffffffffffffffffffffffffffffffffffffffff1673ffffffffffffffffffffffffffffffffffffffff166370a08231306040518263ffffffff1660e01b815260040161048b91906108cc565b602060405180830381865afa1580156104a8573d6000803e3d6000fd5b505050506040513d601f19601f820116820180604052508101906104cc9190610aec565b905081811015610511576040517f08c379a000000000000000000000000000000000000000000000000000000000815260040161050890610c68565b60405180910390fd5b6000600160009054906101000a900473ffffffffffffffffffffffffffffffffffffffff1673ffffffffffffffffffffffffffffffffffffffff1663a9059cbb33856040518363ffffffff1660e01b8152600401610570929190610c88565b6020604051808303816000875af115801561058f573d6000803e3d6000fd5b505050506040513d601f19601f820116820180604052508101906105b39190610cdd565b9050806105f5576040517f08c379a00000000000000000000000000000000000000000000000000000000081526004016105ec90610d56565b60405180910390fd5b6001600360006101000a81548160ff0219169083151502179055507f0a37b72bb67eee30e09084cf386f8a17817c57f620c3ab95fb25d6a20356ec7733348560405161064393929190610d76565b60405180910390a182935050505090565b61065c6106d7565b600073ffffffffffffffffffffffffffffffffffffffff168173ffffffffffffffffffffffffffffffffffffffff16036106cb576040517f08c379a00000000000000000000000000000000000000000000000000000000081526004016106c290610e1f565b60405180910390fd5b6106d481610755565b50565b6106df610819565b73ffffffffffffffffffffffffffffffffffffffff166106fd6103a9565b73ffffffffffffffffffffffffffffffffffffffff1614610753576040517f08c379a000000000000000000000000000000000000000000000000000000000815260040161074a90610e8b565b60405180910390fd5b565b60008060009054906101000a900473ffffffffffffffffffffffffffffffffffffffff169050816000806101000a81548173ffffffffffffffffffffffffffffffffffffffff021916908373ffffffffffffffffffffffffffffffffffffffff1602179055508173ffffffffffffffffffffffffffffffffffffffff168173ffffffffffffffffffffffffffffffffffffffff167f8be0079c531659141344cd1fd0a4f28419497f9722a3daafe3b4186f6b6457e060405160405180910390a35050565b600033905090565b6000819050919050565b61083481610821565b82525050565b600060208201905061084f600083018461082b565b92915050565b60008115159050919050565b61086a81610855565b82525050565b60006020820190506108856000830184610861565b92915050565b600073ffffffffffffffffffffffffffffffffffffffff82169050919050565b60006108b68261088b565b9050919050565b6108c6816108ab565b82525050565b60006020820190506108e160008301846108bd565b92915050565b600080fd5b6108f5816108ab565b811461090057600080fd5b50565b600081359050610912816108ec565b92915050565b60006020828403121561092e5761092d6108e7565b5b600061093c84828501610903565b91505092915050565b600082825260208201905092915050565b7f4f776e657220686173206e6f742062616c616e636520746f207769746864726160008201527f7700000000000000000000000000000000000000000000000000000000000000602082015250565b60006109b2602183610945565b91506109bd82610956565b604082019050919050565b600060208201905081810360008301526109e1816109a5565b9050919050565b600081905092915050565b50565b6000610a036000836109e8565b9150610a0e826109f3565b600082019050919050565b6000610a24826109f6565b9150819050919050565b7f4661696c656420746f2073656e6420757365722062616c616e6365206261636b60008201527f20746f20746865206f776e657200000000000000000000000000000000000000602082015250565b6000610a8a602d83610945565b9150610a9582610a2e565b604082019050919050565b60006020820190508181036000830152610ab981610a7d565b9050919050565b610ac981610821565b8114610ad457600080fd5b50565b600081519050610ae681610ac0565b92915050565b600060208284031215610b0257610b016108e7565b5b6000610b1084828501610ad7565b91505092915050565b7f53656e642045544820746f2062757920736f6d6520746f6b656e730000000000600082015250565b6000610b4f601b83610945565b9150610b5a82610b19565b602082019050919050565b60006020820190508181036000830152610b7e81610b42565b9050919050565b7f4e487b7100000000000000000000000000000000000000000000000000000000600052601160045260246000fd5b6000610bbf82610821565b9150610bca83610821565b9250828202610bd881610821565b91508282048414831517610bef57610bee610b85565b5b5092915050565b7f56656e646f7220636f6e747261637420686173206e6f7420656e6f756768207460008201527f6f6b656e7320696e206974732062616c616e6365000000000000000000000000602082015250565b6000610c52603483610945565b9150610c5d82610bf6565b604082019050919050565b60006020820190508181036000830152610c8181610c45565b9050919050565b6000604082019050610c9d60008301856108bd565b610caa602083018461082b565b9392505050565b610cba81610855565b8114610cc557600080fd5b50565b600081519050610cd781610cb1565b92915050565b600060208284031215610cf357610cf26108e7565b5b6000610d0184828501610cc8565b91505092915050565b7f4661696c656420746f207472616e7366657220746f6b656e20746f2075736572600082015250565b6000610d40602083610945565b9150610d4b82610d0a565b602082019050919050565b60006020820190508181036000830152610d6f81610d33565b9050919050565b6000606082019050610d8b60008301866108bd565b610d98602083018561082b565b610da5604083018461082b565b949350505050565b7f4f776e61626c653a206e6577206f776e657220697320746865207a65726f206160008201527f6464726573730000000000000000000000000000000000000000000000000000602082015250565b6000610e09602683610945565b9150610e1482610dad565b604082019050919050565b60006020820190508181036000830152610e3881610dfc565b9050919050565b7f4f776e61626c653a2063616c6c6572206973206e6f7420746865206f776e6572600082015250565b6000610e75602083610945565b9150610e8082610e3f565b602082019050919050565b60006020820190508181036000830152610ea481610e68565b905091905056fea26469706673582212204a5f1d798dd61969528c153fb868ad1fd88b7bd18fbc72e0a2a05a76589f166a64736f6c63430008120033",
			"opcodes": "PUSH1 0x80 PUSH1 0x40 MSTORE PUSH1 0x64 PUSH1 0x2 SSTORE CALLVALUE DUP1 ISZERO PUSH3 0x16 JUMPI PUSH1 0x0 DUP1 REVERT JUMPDEST POP PUSH1 0x40 MLOAD PUSH3 0x10FD CODESIZE SUB DUP1 PUSH3 0x10FD DUP4 CODECOPY DUP2 DUP2 ADD PUSH1 0x40 MSTORE DUP2 ADD SWAP1 PUSH3 0x3C SWAP2 SWAP1 PUSH3 0x1DA JUMP JUMPDEST PUSH3 0x5C PUSH3 0x50 PUSH3 0xA4 PUSH1 0x20 SHL PUSH1 0x20 SHR JUMP JUMPDEST PUSH3 0xAC PUSH1 0x20 SHL PUSH1 0x20 SHR JUMP JUMPDEST DUP1 PUSH1 0x1 PUSH1 0x0 PUSH2 0x100 EXP DUP2 SLOAD DUP2 PUSH20 0xFFFFFFFFFFFFFFFFFFFFFFFFFFFFFFFFFFFFFFFF MUL NOT AND SWAP1 DUP4 PUSH20 0xFFFFFFFFFFFFFFFFFFFFFFFFFFFFFFFFFFFFFFFF AND MUL OR SWAP1 SSTORE POP POP PUSH3 0x20C JUMP JUMPDEST PUSH1 0x0 CALLER SWAP1 POP SWAP1 JUMP JUMPDEST PUSH1 0x0 DUP1 PUSH1 0x0 SWAP1 SLOAD SWAP1 PUSH2 0x100 EXP SWAP1 DIV PUSH20 0xFFFFFFFFFFFFFFFFFFFFFFFFFFFFFFFFFFFFFFFF AND SWAP1 POP DUP2 PUSH1 0x0 DUP1 PUSH2 0x100 EXP DUP2 SLOAD DUP2 PUSH20 0xFFFFFFFFFFFFFFFFFFFFFFFFFFFFFFFFFFFFFFFF MUL NOT AND SWAP1 DUP4 PUSH20 0xFFFFFFFFFFFFFFFFFFFFFFFFFFFFFFFFFFFFFFFF AND MUL OR SWAP1 SSTORE POP DUP2 PUSH20 0xFFFFFFFFFFFFFFFFFFFFFFFFFFFFFFFFFFFFFFFF AND DUP2 PUSH20 0xFFFFFFFFFFFFFFFFFFFFFFFFFFFFFFFFFFFFFFFF AND PUSH32 0x8BE0079C531659141344CD1FD0A4F28419497F9722A3DAAFE3B4186F6B6457E0 PUSH1 0x40 MLOAD PUSH1 0x40 MLOAD DUP1 SWAP2 SUB SWAP1 LOG3 POP POP JUMP JUMPDEST PUSH1 0x0 DUP1 REVERT JUMPDEST PUSH1 0x0 PUSH20 0xFFFFFFFFFFFFFFFFFFFFFFFFFFFFFFFFFFFFFFFF DUP3 AND SWAP1 POP SWAP2 SWAP1 POP JUMP JUMPDEST PUSH1 0x0 PUSH3 0x1A2 DUP3 PUSH3 0x175 JUMP JUMPDEST SWAP1 POP SWAP2 SWAP1 POP JUMP JUMPDEST PUSH3 0x1B4 DUP2 PUSH3 0x195 JUMP JUMPDEST DUP2 EQ PUSH3 0x1C0 JUMPI PUSH1 0x0 DUP1 REVERT JUMPDEST POP JUMP JUMPDEST PUSH1 0x0 DUP2 MLOAD SWAP1 POP PUSH3 0x1D4 DUP2 PUSH3 0x1A9 JUMP JUMPDEST SWAP3 SWAP2 POP POP JUMP JUMPDEST PUSH1 0x0 PUSH1 0x20 DUP3 DUP5 SUB SLT ISZERO PUSH3 0x1F3 JUMPI PUSH3 0x1F2 PUSH3 0x170 JUMP JUMPDEST JUMPDEST PUSH1 0x0 PUSH3 0x203 DUP5 DUP3 DUP6 ADD PUSH3 0x1C3 JUMP JUMPDEST SWAP2 POP POP SWAP3 SWAP2 POP POP JUMP JUMPDEST PUSH2 0xEE1 DUP1 PUSH3 0x21C PUSH1 0x0 CODECOPY PUSH1 0x0 RETURN INVALID PUSH1 0x80 PUSH1 0x40 MSTORE PUSH1 0x4 CALLDATASIZE LT PUSH2 0x86 JUMPI PUSH1 0x0 CALLDATALOAD PUSH1 0xE0 SHR DUP1 PUSH4 0x82B2E257 GT PUSH2 0x59 JUMPI DUP1 PUSH4 0x82B2E257 EQ PUSH2 0x10F JUMPI DUP1 PUSH4 0x8DA5CB5B EQ PUSH2 0x13A JUMPI DUP1 PUSH4 0xCBDD69B5 EQ PUSH2 0x165 JUMPI DUP1 PUSH4 0xD0FEBE4C EQ PUSH2 0x190 JUMPI DUP1 PUSH4 0xF2FDE38B EQ PUSH2 0x1AE JUMPI PUSH2 0x86 JUMP JUMPDEST DUP1 PUSH4 0x12065FE0 EQ PUSH2 0x8B JUMPI DUP1 PUSH4 0x3CCFD60B EQ PUSH2 0xB6 JUMPI DUP1 PUSH4 0x715018A6 EQ PUSH2 0xCD JUMPI DUP1 PUSH4 0x71D40E8B EQ PUSH2 0xE4 JUMPI JUMPDEST PUSH1 0x0 DUP1 REVERT JUMPDEST CALLVALUE DUP1 ISZERO PUSH2 0x97 JUMPI PUSH1 0x0 DUP1 REVERT JUMPDEST POP PUSH2 0xA0 PUSH2 0x1D7 JUMP JUMPDEST PUSH1 0x40 MLOAD PUSH2 0xAD SWAP2 SWAP1 PUSH2 0x83A JUMP JUMPDEST PUSH1 0x40 MLOAD DUP1 SWAP2 SUB SWAP1 RETURN JUMPDEST CALLVALUE DUP1 ISZERO PUSH2 0xC2 JUMPI PUSH1 0x0 DUP1 REVERT JUMPDEST POP PUSH2 0xCB PUSH2 0x1DF JUMP JUMPDEST STOP JUMPDEST CALLVALUE DUP1 ISZERO PUSH2 0xD9 JUMPI PUSH1 0x0 DUP1 REVERT JUMPDEST POP PUSH2 0xE2 PUSH2 0x2DF JUMP JUMPDEST STOP JUMPDEST CALLVALUE DUP1 ISZERO PUSH2 0xF0 JUMPI PUSH1 0x0 DUP1 REVERT JUMPDEST POP PUSH2 0xF9 PUSH2 0x2F3 JUMP JUMPDEST PUSH1 0x40 MLOAD PUSH2 0x106 SWAP2 SWAP1 PUSH2 0x870 JUMP JUMPDEST PUSH1 0x40 MLOAD DUP1 SWAP2 SUB SWAP1 RETURN JUMPDEST CALLVALUE DUP1 ISZERO PUSH2 0x11B JUMPI PUSH1 0x0 DUP1 REVERT JUMPDEST POP PUSH2 0x124 PUSH2 0x306 JUMP JUMPDEST PUSH1 0x40 MLOAD PUSH2 0x131 SWAP2 SWAP1 PUSH2 0x83A JUMP JUMPDEST PUSH1 0x40 MLOAD DUP1 SWAP2 SUB SWAP1 RETURN JUMPDEST CALLVALUE DUP1 ISZERO PUSH2 0x146 JUMPI PUSH1 0x0 DUP1 REVERT JUMPDEST POP PUSH2 0x14F PUSH2 0x3A9 JUMP JUMPDEST PUSH1 0x40 MLOAD PUSH2 0x15C SWAP2 SWAP1 PUSH2 0x8CC JUMP JUMPDEST PUSH1 0x40 MLOAD DUP1 SWAP2 SUB SWAP1 RETURN JUMPDEST CALLVALUE DUP1 ISZERO PUSH2 0x171 JUMPI PUSH1 0x0 DUP1 REVERT JUMPDEST POP PUSH2 0x17A PUSH2 0x3D2 JUMP JUMPDEST PUSH1 0x40 MLOAD PUSH2 0x187 SWAP2 SWAP1 PUSH2 0x83A JUMP JUMPDEST PUSH1 0x40 MLOAD DUP1 SWAP2 SUB SWAP1 RETURN JUMPDEST PUSH2 0x198 PUSH2 0x3D8 JUMP JUMPDEST PUSH1 0x40 MLOAD PUSH2 0x1A5 SWAP2 SWAP1 PUSH2 0x83A JUMP JUMPDEST PUSH1 0x40 MLOAD DUP1 SWAP2 SUB SWAP1 RETURN JUMPDEST CALLVALUE DUP1 ISZERO PUSH2 0x1BA JUMPI PUSH1 0x0 DUP1 REVERT JUMPDEST POP PUSH2 0x1D5 PUSH1 0x4 DUP1 CALLDATASIZE SUB DUP2 ADD SWAP1 PUSH2 0x1D0 SWAP2 SWAP1 PUSH2 0x918 JUMP JUMPDEST PUSH2 0x654 JUMP JUMPDEST STOP JUMPDEST PUSH1 0x0 SELFBALANCE SWAP1 POP SWAP1 JUMP JUMPDEST PUSH2 0x1E7 PUSH2 0x6D7 JUMP JUMPDEST PUSH1 0x0 SELFBALANCE SWAP1 POP PUSH1 0x0 DUP2 GT PUSH2 0x22F JUMPI PUSH1 0x40 MLOAD PUSH32 0x8C379A000000000000000000000000000000000000000000000000000000000 DUP2 MSTORE PUSH1 0x4 ADD PUSH2 0x226 SWAP1 PUSH2 0x9C8 JUMP JUMPDEST PUSH1 0x40 MLOAD DUP1 SWAP2 SUB SWAP1 REVERT JUMPDEST PUSH1 0x0 CALLER PUSH20 0xFFFFFFFFFFFFFFFFFFFFFFFFFFFFFFFFFFFFFFFF AND SELFBALANCE PUSH1 0x40 MLOAD PUSH2 0x255 SWAP1 PUSH2 0xA19 JUMP JUMPDEST PUSH1 0x0 PUSH1 0x40 MLOAD DUP1 DUP4 SUB DUP2 DUP6 DUP8 GAS CALL SWAP3 POP POP POP RETURNDATASIZE DUP1 PUSH1 0x0 DUP2 EQ PUSH2 0x292 JUMPI PUSH1 0x40 MLOAD SWAP2 POP PUSH1 0x1F NOT PUSH1 0x3F RETURNDATASIZE ADD AND DUP3 ADD PUSH1 0x40 MSTORE RETURNDATASIZE DUP3 MSTORE RETURNDATASIZE PUSH1 0x0 PUSH1 0x20 DUP5 ADD RETURNDATACOPY PUSH2 0x297 JUMP JUMPDEST PUSH1 0x60 SWAP2 POP JUMPDEST POP POP SWAP1 POP DUP1 PUSH2 0x2DB JUMPI PUSH1 0x40 MLOAD PUSH32 0x8C379A000000000000000000000000000000000000000000000000000000000 DUP2 MSTORE PUSH1 0x4 ADD PUSH2 0x2D2 SWAP1 PUSH2 0xAA0 JUMP JUMPDEST PUSH1 0x40 MLOAD DUP1 SWAP2 SUB SWAP1 REVERT JUMPDEST POP POP JUMP JUMPDEST PUSH2 0x2E7 PUSH2 0x6D7 JUMP JUMPDEST PUSH2 0x2F1 PUSH1 0x0 PUSH2 0x755 JUMP JUMPDEST JUMP JUMPDEST PUSH1 0x3 PUSH1 0x0 SWAP1 SLOAD SWAP1 PUSH2 0x100 EXP SWAP1 DIV PUSH1 0xFF AND DUP2 JUMP JUMPDEST PUSH1 0x0 PUSH1 0x1 PUSH1 0x0 SWAP1 SLOAD SWAP1 PUSH2 0x100 EXP SWAP1 DIV PUSH20 0xFFFFFFFFFFFFFFFFFFFFFFFFFFFFFFFFFFFFFFFF AND PUSH20 0xFFFFFFFFFFFFFFFFFFFFFFFFFFFFFFFFFFFFFFFF AND PUSH4 0x70A08231 ADDRESS PUSH1 0x40 MLOAD DUP3 PUSH4 0xFFFFFFFF AND PUSH1 0xE0 SHL DUP2 MSTORE PUSH1 0x4 ADD PUSH2 0x363 SWAP2 SWAP1 PUSH2 0x8CC JUMP JUMPDEST PUSH1 0x20 PUSH1 0x40 MLOAD DUP1 DUP4 SUB DUP2 DUP7 GAS STATICCALL ISZERO DUP1 ISZERO PUSH2 0x380 JUMPI RETURNDATASIZE PUSH1 0x0 DUP1 RETURNDATACOPY RETURNDATASIZE PUSH1 0x0 REVERT JUMPDEST POP POP POP POP PUSH1 0x40 MLOAD RETURNDATASIZE PUSH1 0x1F NOT PUSH1 0x1F DUP3 ADD AND DUP3 ADD DUP1 PUSH1 0x40 MSTORE POP DUP2 ADD SWAP1 PUSH2 0x3A4 SWAP2 SWAP1 PUSH2 0xAEC JUMP JUMPDEST SWAP1 POP SWAP1 JUMP JUMPDEST PUSH1 0x0 DUP1 PUSH1 0x0 SWAP1 SLOAD SWAP1 PUSH2 0x100 EXP SWAP1 DIV PUSH20 0xFFFFFFFFFFFFFFFFFFFFFFFFFFFFFFFFFFFFFFFF AND SWAP1 POP SWAP1 JUMP JUMPDEST PUSH1 0x2 SLOAD DUP2 JUMP JUMPDEST PUSH1 0x0 DUP1 CALLVALUE GT PUSH2 0x41C JUMPI PUSH1 0x40 MLOAD PUSH32 0x8C379A000000000000000000000000000000000000000000000000000000000 DUP2 MSTORE PUSH1 0x4 ADD PUSH2 0x413 SWAP1 PUSH2 0xB65 JUMP JUMPDEST PUSH1 0x40 MLOAD DUP1 SWAP2 SUB SWAP1 REVERT JUMPDEST PUSH1 0x0 PUSH1 0x2 SLOAD CALLVALUE PUSH2 0x42C SWAP2 SWAP1 PUSH2 0xBB4 JUMP JUMPDEST SWAP1 POP PUSH1 0x0 PUSH1 0x1 PUSH1 0x0 SWAP1 SLOAD SWAP1 PUSH2 0x100 EXP SWAP1 DIV PUSH20 0xFFFFFFFFFFFFFFFFFFFFFFFFFFFFFFFFFFFFFFFF AND PUSH20 0xFFFFFFFFFFFFFFFFFFFFFFFFFFFFFFFFFFFFFFFF AND PUSH4 0x70A08231 ADDRESS PUSH1 0x40 MLOAD DUP3 PUSH4 0xFFFFFFFF AND PUSH1 0xE0 SHL DUP2 MSTORE PUSH1 0x4 ADD PUSH2 0x48B SWAP2 SWAP1 PUSH2 0x8CC JUMP JUMPDEST PUSH1 0x20 PUSH1 0x40 MLOAD DUP1 DUP4 SUB DUP2 DUP7 GAS STATICCALL ISZERO DUP1 ISZERO PUSH2 0x4A8 JUMPI RETURNDATASIZE PUSH1 0x0 DUP1 RETURNDATACOPY RETURNDATASIZE PUSH1 0x0 REVERT JUMPDEST POP POP POP POP PUSH1 0x40 MLOAD RETURNDATASIZE PUSH1 0x1F NOT PUSH1 0x1F DUP3 ADD AND DUP3 ADD DUP1 PUSH1 0x40 MSTORE POP DUP2 ADD SWAP1 PUSH2 0x4CC SWAP2 SWAP1 PUSH2 0xAEC JUMP JUMPDEST SWAP1 POP DUP2 DUP2 LT ISZERO PUSH2 0x511 JUMPI PUSH1 0x40 MLOAD PUSH32 0x8C379A000000000000000000000000000000000000000000000000000000000 DUP2 MSTORE PUSH1 0x4 ADD PUSH2 0x508 SWAP1 PUSH2 0xC68 JUMP JUMPDEST PUSH1 0x40 MLOAD DUP1 SWAP2 SUB SWAP1 REVERT JUMPDEST PUSH1 0x0 PUSH1 0x1 PUSH1 0x0 SWAP1 SLOAD SWAP1 PUSH2 0x100 EXP SWAP1 DIV PUSH20 0xFFFFFFFFFFFFFFFFFFFFFFFFFFFFFFFFFFFFFFFF AND PUSH20 0xFFFFFFFFFFFFFFFFFFFFFFFFFFFFFFFFFFFFFFFF AND PUSH4 0xA9059CBB CALLER DUP6 PUSH1 0x40 MLOAD DUP4 PUSH4 0xFFFFFFFF AND PUSH1 0xE0 SHL DUP2 MSTORE PUSH1 0x4 ADD PUSH2 0x570 SWAP3 SWAP2 SWAP1 PUSH2 0xC88 JUMP JUMPDEST PUSH1 0x20 PUSH1 0x40 MLOAD DUP1 DUP4 SUB DUP2 PUSH1 0x0 DUP8 GAS CALL ISZERO DUP1 ISZERO PUSH2 0x58F JUMPI RETURNDATASIZE PUSH1 0x0 DUP1 RETURNDATACOPY RETURNDATASIZE PUSH1 0x0 REVERT JUMPDEST POP POP POP POP PUSH1 0x40 MLOAD RETURNDATASIZE PUSH1 0x1F NOT PUSH1 0x1F DUP3 ADD AND DUP3 ADD DUP1 PUSH1 0x40 MSTORE POP DUP2 ADD SWAP1 PUSH2 0x5B3 SWAP2 SWAP1 PUSH2 0xCDD JUMP JUMPDEST SWAP1 POP DUP1 PUSH2 0x5F5 JUMPI PUSH1 0x40 MLOAD PUSH32 0x8C379A000000000000000000000000000000000000000000000000000000000 DUP2 MSTORE PUSH1 0x4 ADD PUSH2 0x5EC SWAP1 PUSH2 0xD56 JUMP JUMPDEST PUSH1 0x40 MLOAD DUP1 SWAP2 SUB SWAP1 REVERT JUMPDEST PUSH1 0x1 PUSH1 0x3 PUSH1 0x0 PUSH2 0x100 EXP DUP2 SLOAD DUP2 PUSH1 0xFF MUL NOT AND SWAP1 DUP4 ISZERO ISZERO MUL OR SWAP1 SSTORE POP PUSH32 0xA37B72BB67EEE30E09084CF386F8A17817C57F620C3AB95FB25D6A20356EC77 CALLER CALLVALUE DUP6 PUSH1 0x40 MLOAD PUSH2 0x643 SWAP4 SWAP3 SWAP2 SWAP1 PUSH2 0xD76 JUMP JUMPDEST PUSH1 0x40 MLOAD DUP1 SWAP2 SUB SWAP1 LOG1 DUP3 SWAP4 POP POP POP POP SWAP1 JUMP JUMPDEST PUSH2 0x65C PUSH2 0x6D7 JUMP JUMPDEST PUSH1 0x0 PUSH20 0xFFFFFFFFFFFFFFFFFFFFFFFFFFFFFFFFFFFFFFFF AND DUP2 PUSH20 0xFFFFFFFFFFFFFFFFFFFFFFFFFFFFFFFFFFFFFFFF AND SUB PUSH2 0x6CB JUMPI PUSH1 0x40 MLOAD PUSH32 0x8C379A000000000000000000000000000000000000000000000000000000000 DUP2 MSTORE PUSH1 0x4 ADD PUSH2 0x6C2 SWAP1 PUSH2 0xE1F JUMP JUMPDEST PUSH1 0x40 MLOAD DUP1 SWAP2 SUB SWAP1 REVERT JUMPDEST PUSH2 0x6D4 DUP2 PUSH2 0x755 JUMP JUMPDEST POP JUMP JUMPDEST PUSH2 0x6DF PUSH2 0x819 JUMP JUMPDEST PUSH20 0xFFFFFFFFFFFFFFFFFFFFFFFFFFFFFFFFFFFFFFFF AND PUSH2 0x6FD PUSH2 0x3A9 JUMP JUMPDEST PUSH20 0xFFFFFFFFFFFFFFFFFFFFFFFFFFFFFFFFFFFFFFFF AND EQ PUSH2 0x753 JUMPI PUSH1 0x40 MLOAD PUSH32 0x8C379A000000000000000000000000000000000000000000000000000000000 DUP2 MSTORE PUSH1 0x4 ADD PUSH2 0x74A SWAP1 PUSH2 0xE8B JUMP JUMPDEST PUSH1 0x40 MLOAD DUP1 SWAP2 SUB SWAP1 REVERT JUMPDEST JUMP JUMPDEST PUSH1 0x0 DUP1 PUSH1 0x0 SWAP1 SLOAD SWAP1 PUSH2 0x100 EXP SWAP1 DIV PUSH20 0xFFFFFFFFFFFFFFFFFFFFFFFFFFFFFFFFFFFFFFFF AND SWAP1 POP DUP2 PUSH1 0x0 DUP1 PUSH2 0x100 EXP DUP2 SLOAD DUP2 PUSH20 0xFFFFFFFFFFFFFFFFFFFFFFFFFFFFFFFFFFFFFFFF MUL NOT AND SWAP1 DUP4 PUSH20 0xFFFFFFFFFFFFFFFFFFFFFFFFFFFFFFFFFFFFFFFF AND MUL OR SWAP1 SSTORE POP DUP2 PUSH20 0xFFFFFFFFFFFFFFFFFFFFFFFFFFFFFFFFFFFFFFFF AND DUP2 PUSH20 0xFFFFFFFFFFFFFFFFFFFFFFFFFFFFFFFFFFFFFFFF AND PUSH32 0x8BE0079C531659141344CD1FD0A4F28419497F9722A3DAAFE3B4186F6B6457E0 PUSH1 0x40 MLOAD PUSH1 0x40 MLOAD DUP1 SWAP2 SUB SWAP1 LOG3 POP POP JUMP JUMPDEST PUSH1 0x0 CALLER SWAP1 POP SWAP1 JUMP JUMPDEST PUSH1 0x0 DUP2 SWAP1 POP SWAP2 SWAP1 POP JUMP JUMPDEST PUSH2 0x834 DUP2 PUSH2 0x821 JUMP JUMPDEST DUP3 MSTORE POP POP JUMP JUMPDEST PUSH1 0x0 PUSH1 0x20 DUP3 ADD SWAP1 POP PUSH2 0x84F PUSH1 0x0 DUP4 ADD DUP5 PUSH2 0x82B JUMP JUMPDEST SWAP3 SWAP2 POP POP JUMP JUMPDEST PUSH1 0x0 DUP2 ISZERO ISZERO SWAP1 POP SWAP2 SWAP1 POP JUMP JUMPDEST PUSH2 0x86A DUP2 PUSH2 0x855 JUMP JUMPDEST DUP3 MSTORE POP POP JUMP JUMPDEST PUSH1 0x0 PUSH1 0x20 DUP3 ADD SWAP1 POP PUSH2 0x885 PUSH1 0x0 DUP4 ADD DUP5 PUSH2 0x861 JUMP JUMPDEST SWAP3 SWAP2 POP POP JUMP JUMPDEST PUSH1 0x0 PUSH20 0xFFFFFFFFFFFFFFFFFFFFFFFFFFFFFFFFFFFFFFFF DUP3 AND SWAP1 POP SWAP2 SWAP1 POP JUMP JUMPDEST PUSH1 0x0 PUSH2 0x8B6 DUP3 PUSH2 0x88B JUMP JUMPDEST SWAP1 POP SWAP2 SWAP1 POP JUMP JUMPDEST PUSH2 0x8C6 DUP2 PUSH2 0x8AB JUMP JUMPDEST DUP3 MSTORE POP POP JUMP JUMPDEST PUSH1 0x0 PUSH1 0x20 DUP3 ADD SWAP1 POP PUSH2 0x8E1 PUSH1 0x0 DUP4 ADD DUP5 PUSH2 0x8BD JUMP JUMPDEST SWAP3 SWAP2 POP POP JUMP JUMPDEST PUSH1 0x0 DUP1 REVERT JUMPDEST PUSH2 0x8F5 DUP2 PUSH2 0x8AB JUMP JUMPDEST DUP2 EQ PUSH2 0x900 JUMPI PUSH1 0x0 DUP1 REVERT JUMPDEST POP JUMP JUMPDEST PUSH1 0x0 DUP2 CALLDATALOAD SWAP1 POP PUSH2 0x912 DUP2 PUSH2 0x8EC JUMP JUMPDEST SWAP3 SWAP2 POP POP JUMP JUMPDEST PUSH1 0x0 PUSH1 0x20 DUP3 DUP5 SUB SLT ISZERO PUSH2 0x92E JUMPI PUSH2 0x92D PUSH2 0x8E7 JUMP JUMPDEST JUMPDEST PUSH1 0x0 PUSH2 0x93C DUP5 DUP3 DUP6 ADD PUSH2 0x903 JUMP JUMPDEST SWAP2 POP POP SWAP3 SWAP2 POP POP JUMP JUMPDEST PUSH1 0x0 DUP3 DUP3 MSTORE PUSH1 0x20 DUP3 ADD SWAP1 POP SWAP3 SWAP2 POP POP JUMP JUMPDEST PUSH32 0x4F776E657220686173206E6F742062616C616E636520746F2077697468647261 PUSH1 0x0 DUP3 ADD MSTORE PUSH32 0x7700000000000000000000000000000000000000000000000000000000000000 PUSH1 0x20 DUP3 ADD MSTORE POP JUMP JUMPDEST PUSH1 0x0 PUSH2 0x9B2 PUSH1 0x21 DUP4 PUSH2 0x945 JUMP JUMPDEST SWAP2 POP PUSH2 0x9BD DUP3 PUSH2 0x956 JUMP JUMPDEST PUSH1 0x40 DUP3 ADD SWAP1 POP SWAP2 SWAP1 POP JUMP JUMPDEST PUSH1 0x0 PUSH1 0x20 DUP3 ADD SWAP1 POP DUP2 DUP2 SUB PUSH1 0x0 DUP4 ADD MSTORE PUSH2 0x9E1 DUP2 PUSH2 0x9A5 JUMP JUMPDEST SWAP1 POP SWAP2 SWAP1 POP JUMP JUMPDEST PUSH1 0x0 DUP2 SWAP1 POP SWAP3 SWAP2 POP POP JUMP JUMPDEST POP JUMP JUMPDEST PUSH1 0x0 PUSH2 0xA03 PUSH1 0x0 DUP4 PUSH2 0x9E8 JUMP JUMPDEST SWAP2 POP PUSH2 0xA0E DUP3 PUSH2 0x9F3 JUMP JUMPDEST PUSH1 0x0 DUP3 ADD SWAP1 POP SWAP2 SWAP1 POP JUMP JUMPDEST PUSH1 0x0 PUSH2 0xA24 DUP3 PUSH2 0x9F6 JUMP JUMPDEST SWAP2 POP DUP2 SWAP1 POP SWAP2 SWAP1 POP JUMP JUMPDEST PUSH32 0x4661696C656420746F2073656E6420757365722062616C616E6365206261636B PUSH1 0x0 DUP3 ADD MSTORE PUSH32 0x20746F20746865206F776E657200000000000000000000000000000000000000 PUSH1 0x20 DUP3 ADD MSTORE POP JUMP JUMPDEST PUSH1 0x0 PUSH2 0xA8A PUSH1 0x2D DUP4 PUSH2 0x945 JUMP JUMPDEST SWAP2 POP PUSH2 0xA95 DUP3 PUSH2 0xA2E JUMP JUMPDEST PUSH1 0x40 DUP3 ADD SWAP1 POP SWAP2 SWAP1 POP JUMP JUMPDEST PUSH1 0x0 PUSH1 0x20 DUP3 ADD SWAP1 POP DUP2 DUP2 SUB PUSH1 0x0 DUP4 ADD MSTORE PUSH2 0xAB9 DUP2 PUSH2 0xA7D JUMP JUMPDEST SWAP1 POP SWAP2 SWAP1 POP JUMP JUMPDEST PUSH2 0xAC9 DUP2 PUSH2 0x821 JUMP JUMPDEST DUP2 EQ PUSH2 0xAD4 JUMPI PUSH1 0x0 DUP1 REVERT JUMPDEST POP JUMP JUMPDEST PUSH1 0x0 DUP2 MLOAD SWAP1 POP PUSH2 0xAE6 DUP2 PUSH2 0xAC0 JUMP JUMPDEST SWAP3 SWAP2 POP POP JUMP JUMPDEST PUSH1 0x0 PUSH1 0x20 DUP3 DUP5 SUB SLT ISZERO PUSH2 0xB02 JUMPI PUSH2 0xB01 PUSH2 0x8E7 JUMP JUMPDEST JUMPDEST PUSH1 0x0 PUSH2 0xB10 DUP5 DUP3 DUP6 ADD PUSH2 0xAD7 JUMP JUMPDEST SWAP2 POP POP SWAP3 SWAP2 POP POP JUMP JUMPDEST PUSH32 0x53656E642045544820746F2062757920736F6D6520746F6B656E730000000000 PUSH1 0x0 DUP3 ADD MSTORE POP JUMP JUMPDEST PUSH1 0x0 PUSH2 0xB4F PUSH1 0x1B DUP4 PUSH2 0x945 JUMP JUMPDEST SWAP2 POP PUSH2 0xB5A DUP3 PUSH2 0xB19 JUMP JUMPDEST PUSH1 0x20 DUP3 ADD SWAP1 POP SWAP2 SWAP1 POP JUMP JUMPDEST PUSH1 0x0 PUSH1 0x20 DUP3 ADD SWAP1 POP DUP2 DUP2 SUB PUSH1 0x0 DUP4 ADD MSTORE PUSH2 0xB7E DUP2 PUSH2 0xB42 JUMP JUMPDEST SWAP1 POP SWAP2 SWAP1 POP JUMP JUMPDEST PUSH32 0x4E487B7100000000000000000000000000000000000000000000000000000000 PUSH1 0x0 MSTORE PUSH1 0x11 PUSH1 0x4 MSTORE PUSH1 0x24 PUSH1 0x0 REVERT JUMPDEST PUSH1 0x0 PUSH2 0xBBF DUP3 PUSH2 0x821 JUMP JUMPDEST SWAP2 POP PUSH2 0xBCA DUP4 PUSH2 0x821 JUMP JUMPDEST SWAP3 POP DUP3 DUP3 MUL PUSH2 0xBD8 DUP2 PUSH2 0x821 JUMP JUMPDEST SWAP2 POP DUP3 DUP3 DIV DUP5 EQ DUP4 ISZERO OR PUSH2 0xBEF JUMPI PUSH2 0xBEE PUSH2 0xB85 JUMP JUMPDEST JUMPDEST POP SWAP3 SWAP2 POP POP JUMP JUMPDEST PUSH32 0x56656E646F7220636F6E747261637420686173206E6F7420656E6F7567682074 PUSH1 0x0 DUP3 ADD MSTORE PUSH32 0x6F6B656E7320696E206974732062616C616E6365000000000000000000000000 PUSH1 0x20 DUP3 ADD MSTORE POP JUMP JUMPDEST PUSH1 0x0 PUSH2 0xC52 PUSH1 0x34 DUP4 PUSH2 0x945 JUMP JUMPDEST SWAP2 POP PUSH2 0xC5D DUP3 PUSH2 0xBF6 JUMP JUMPDEST PUSH1 0x40 DUP3 ADD SWAP1 POP SWAP2 SWAP1 POP JUMP JUMPDEST PUSH1 0x0 PUSH1 0x20 DUP3 ADD SWAP1 POP DUP2 DUP2 SUB PUSH1 0x0 DUP4 ADD MSTORE PUSH2 0xC81 DUP2 PUSH2 0xC45 JUMP JUMPDEST SWAP1 POP SWAP2 SWAP1 POP JUMP JUMPDEST PUSH1 0x0 PUSH1 0x40 DUP3 ADD SWAP1 POP PUSH2 0xC9D PUSH1 0x0 DUP4 ADD DUP6 PUSH2 0x8BD JUMP JUMPDEST PUSH2 0xCAA PUSH1 0x20 DUP4 ADD DUP5 PUSH2 0x82B JUMP JUMPDEST SWAP4 SWAP3 POP POP POP JUMP JUMPDEST PUSH2 0xCBA DUP2 PUSH2 0x855 JUMP JUMPDEST DUP2 EQ PUSH2 0xCC5 JUMPI PUSH1 0x0 DUP1 REVERT JUMPDEST POP JUMP JUMPDEST PUSH1 0x0 DUP2 MLOAD SWAP1 POP PUSH2 0xCD7 DUP2 PUSH2 0xCB1 JUMP JUMPDEST SWAP3 SWAP2 POP POP JUMP JUMPDEST PUSH1 0x0 PUSH1 0x20 DUP3 DUP5 SUB SLT ISZERO PUSH2 0xCF3 JUMPI PUSH2 0xCF2 PUSH2 0x8E7 JUMP JUMPDEST JUMPDEST PUSH1 0x0 PUSH2 0xD01 DUP5 DUP3 DUP6 ADD PUSH2 0xCC8 JUMP JUMPDEST SWAP2 POP POP SWAP3 SWAP2 POP POP JUMP JUMPDEST PUSH32 0x4661696C656420746F207472616E7366657220746F6B656E20746F2075736572 PUSH1 0x0 DUP3 ADD MSTORE POP JUMP JUMPDEST PUSH1 0x0 PUSH2 0xD40 PUSH1 0x20 DUP4 PUSH2 0x945 JUMP JUMPDEST SWAP2 POP PUSH2 0xD4B DUP3 PUSH2 0xD0A JUMP JUMPDEST PUSH1 0x20 DUP3 ADD SWAP1 POP SWAP2 SWAP1 POP JUMP JUMPDEST PUSH1 0x0 PUSH1 0x20 DUP3 ADD SWAP1 POP DUP2 DUP2 SUB PUSH1 0x0 DUP4 ADD MSTORE PUSH2 0xD6F DUP2 PUSH2 0xD33 JUMP JUMPDEST SWAP1 POP SWAP2 SWAP1 POP JUMP JUMPDEST PUSH1 0x0 PUSH1 0x60 DUP3 ADD SWAP1 POP PUSH2 0xD8B PUSH1 0x0 DUP4 ADD DUP7 PUSH2 0x8BD JUMP JUMPDEST PUSH2 0xD98 PUSH1 0x20 DUP4 ADD DUP6 PUSH2 0x82B JUMP JUMPDEST PUSH2 0xDA5 PUSH1 0x40 DUP4 ADD DUP5 PUSH2 0x82B JUMP JUMPDEST SWAP5 SWAP4 POP POP POP POP JUMP JUMPDEST PUSH32 0x4F776E61626C653A206E6577206F776E657220697320746865207A65726F2061 PUSH1 0x0 DUP3 ADD MSTORE PUSH32 0x6464726573730000000000000000000000000000000000000000000000000000 PUSH1 0x20 DUP3 ADD MSTORE POP JUMP JUMPDEST PUSH1 0x0 PUSH2 0xE09 PUSH1 0x26 DUP4 PUSH2 0x945 JUMP JUMPDEST SWAP2 POP PUSH2 0xE14 DUP3 PUSH2 0xDAD JUMP JUMPDEST PUSH1 0x40 DUP3 ADD SWAP1 POP SWAP2 SWAP1 POP JUMP JUMPDEST PUSH1 0x0 PUSH1 0x20 DUP3 ADD SWAP1 POP DUP2 DUP2 SUB PUSH1 0x0 DUP4 ADD MSTORE PUSH2 0xE38 DUP2 PUSH2 0xDFC JUMP JUMPDEST SWAP1 POP SWAP2 SWAP1 POP JUMP JUMPDEST PUSH32 0x4F776E61626C653A2063616C6C6572206973206E6F7420746865206F776E6572 PUSH1 0x0 DUP3 ADD MSTORE POP JUMP JUMPDEST PUSH1 0x0 PUSH2 0xE75 PUSH1 0x20 DUP4 PUSH2 0x945 JUMP JUMPDEST SWAP2 POP PUSH2 0xE80 DUP3 PUSH2 0xE3F JUMP JUMPDEST PUSH1 0x20 DUP3 ADD SWAP1 POP SWAP2 SWAP1 POP JUMP JUMPDEST PUSH1 0x0 PUSH1 0x20 DUP3 ADD SWAP1 POP DUP2 DUP2 SUB PUSH1 0x0 DUP4 ADD MSTORE PUSH2 0xEA4 DUP2 PUSH2 0xE68 JUMP JUMPDEST SWAP1 POP SWAP2 SWAP1 POP JUMP INVALID LOG2 PUSH5 0x6970667358 0x22 SLT KECCAK256 0x4A 0x5F SAR PUSH26 0x8DD61969528C153FB868AD1FD88B7BD18FBC72E0A2A05A76589F AND PUSH11 0x64736F6C63430008120033 "
		},
		"gasEstimates": {
			"creation": {
				"codeDepositCost": "761800",
				"executionCost": "infinite",
				"totalCost": "infinite"
			},
			"external": {
				"buyTokens()": "infinite",
				"getBalance()": "340",
				"getTokenBalance()": "infinite",
				"isTknTransfer()": "2538",
				"owner()": "2544",
				"renounceOwnership()": "30443",
				"tokensPerEth()": "2473",
				"transferOwnership(address)": "30832",
				"withdraw()": "infinite"
			}
		},
		"methodIdentifiers": {
			"buyTokens()": "d0febe4c",
			"getBalance()": "12065fe0",
			"getTokenBalance()": "82b2e257",
			"isTknTransfer()": "71d40e8b",
			"owner()": "8da5cb5b",
			"renounceOwnership()": "715018a6",
			"tokensPerEth()": "cbdd69b5",
			"transferOwnership(address)": "f2fde38b",
			"withdraw()": "3ccfd60b"
		}
	},
	"abi": [
		{
			"inputs": [
				{
					"internalType": "address",
					"name": "tokenAddress",
					"type": "address"
				}
			],
			"stateMutability": "nonpayable",
			"type": "constructor"
		},
		{
			"anonymous": false,
			"inputs": [
				{
					"indexed": false,
					"internalType": "address",
					"name": "buyer",
					"type": "address"
				},
				{
					"indexed": false,
					"internalType": "uint256",
					"name": "amountOfETH",
					"type": "uint256"
				},
				{
					"indexed": false,
					"internalType": "uint256",
					"name": "amountOfTokens",
					"type": "uint256"
				}
			],
			"name": "BuyTokens",
			"type": "event"
		},
		{
			"anonymous": false,
			"inputs": [
				{
					"indexed": true,
					"internalType": "address",
					"name": "previousOwner",
					"type": "address"
				},
				{
					"indexed": true,
					"internalType": "address",
					"name": "newOwner",
					"type": "address"
				}
			],
			"name": "OwnershipTransferred",
			"type": "event"
		},
		{
			"inputs": [],
			"name": "buyTokens",
			"outputs": [
				{
					"internalType": "uint256",
					"name": "tokenAmount",
					"type": "uint256"
				}
			],
			"stateMutability": "payable",
			"type": "function"
		},
		{
			"inputs": [],
			"name": "getBalance",
			"outputs": [
				{
					"internalType": "uint256",
					"name": "",
					"type": "uint256"
				}
			],
			"stateMutability": "view",
			"type": "function"
		},
		{
			"inputs": [],
			"name": "getTokenBalance",
			"outputs": [
				{
					"internalType": "uint256",
					"name": "",
					"type": "uint256"
				}
			],
			"stateMutability": "view",
			"type": "function"
		},
		{
			"inputs": [],
			"name": "isTknTransfer",
			"outputs": [
				{
					"internalType": "bool",
					"name": "",
					"type": "bool"
				}
			],
			"stateMutability": "view",
			"type": "function"
		},
		{
			"inputs": [],
			"name": "owner",
			"outputs": [
				{
					"internalType": "address",
					"name": "",
					"type": "address"
				}
			],
			"stateMutability": "view",
			"type": "function"
		},
		{
			"inputs": [],
			"name": "renounceOwnership",
			"outputs": [],
			"stateMutability": "nonpayable",
			"type": "function"
		},
		{
			"inputs": [],
			"name": "tokensPerEth",
			"outputs": [
				{
					"internalType": "uint256",
					"name": "",
					"type": "uint256"
				}
			],
			"stateMutability": "view",
			"type": "function"
		},
		{
			"inputs": [
				{
					"internalType": "address",
					"name": "newOwner",
					"type": "address"
				}
			],
			"name": "transferOwnership",
			"outputs": [],
			"stateMutability": "nonpayable",
			"type": "function"
		},
		{
			"inputs": [],
			"name": "withdraw",
			"outputs": [],
			"stateMutability": "nonpayable",
			"type": "function"
		}
	]
}