{
	"data": {
		"bytecode": {
			"linkReferences": {},
			"object": "608060405234801561001057600080fd5b5061045e806100206000396000f3fe608060405234801561001057600080fd5b50600436106100415760003560e01c8063481c6a751461004657806383786f8c14610064578063eb454e1b14610094575b600080fd5b61004e6100b0565b60405161005b919061021e565b60405180910390f35b61007e6004803603810190610079919061026a565b6100d4565b60405161008b91906102b0565b60405180910390f35b6100ae60048036038101906100a991906102f7565b610157565b005b60008054906101000a900473ffffffffffffffffffffffffffffffffffffffff1681565b60008173ffffffffffffffffffffffffffffffffffffffff166370a08231306040518263ffffffff1660e01b815260040161010f919061021e565b602060405180830381865afa15801561012c573d6000803e3d6000fd5b505050506040513d601f19601f82011682018060405250810190610150919061035f565b9050919050565b8173ffffffffffffffffffffffffffffffffffffffff166323b872dd8430846040518463ffffffff1660e01b81526004016101949392919061038c565b6020604051808303816000875af11580156101b3573d6000803e3d6000fd5b505050506040513d601f19601f820116820180604052508101906101d791906103fb565b50505050565b600073ffffffffffffffffffffffffffffffffffffffff82169050919050565b6000610208826101dd565b9050919050565b610218816101fd565b82525050565b6000602082019050610233600083018461020f565b92915050565b600080fd5b610247816101fd565b811461025257600080fd5b50565b6000813590506102648161023e565b92915050565b6000602082840312156102805761027f610239565b5b600061028e84828501610255565b91505092915050565b6000819050919050565b6102aa81610297565b82525050565b60006020820190506102c560008301846102a1565b92915050565b6102d481610297565b81146102df57600080fd5b50565b6000813590506102f1816102cb565b92915050565b6000806000606084860312156103105761030f610239565b5b600061031e86828701610255565b935050602061032f86828701610255565b9250506040610340868287016102e2565b9150509250925092565b600081519050610359816102cb565b92915050565b60006020828403121561037557610374610239565b5b60006103838482850161034a565b91505092915050565b60006060820190506103a1600083018661020f565b6103ae602083018561020f565b6103bb60408301846102a1565b949350505050565b60008115159050919050565b6103d8816103c3565b81146103e357600080fd5b50565b6000815190506103f5816103cf565b92915050565b60006020828403121561041157610410610239565b5b600061041f848285016103e6565b9150509291505056fea2646970667358221220785218c59b7c43572a89e71ea62bf79927f4898a6c37117e7cd854efd2491eff64736f6c63430008120033",
			"opcodes": "PUSH1 0x80 PUSH1 0x40 MSTORE CALLVALUE DUP1 ISZERO PUSH2 0x10 JUMPI PUSH1 0x0 DUP1 REVERT JUMPDEST POP PUSH2 0x45E DUP1 PUSH2 0x20 PUSH1 0x0 CODECOPY PUSH1 0x0 RETURN INVALID PUSH1 0x80 PUSH1 0x40 MSTORE CALLVALUE DUP1 ISZERO PUSH2 0x10 JUMPI PUSH1 0x0 DUP1 REVERT JUMPDEST POP PUSH1 0x4 CALLDATASIZE LT PUSH2 0x41 JUMPI PUSH1 0x0 CALLDATALOAD PUSH1 0xE0 SHR DUP1 PUSH4 0x481C6A75 EQ PUSH2 0x46 JUMPI DUP1 PUSH4 0x83786F8C EQ PUSH2 0x64 JUMPI DUP1 PUSH4 0xEB454E1B EQ PUSH2 0x94 JUMPI JUMPDEST PUSH1 0x0 DUP1 REVERT JUMPDEST PUSH2 0x4E PUSH2 0xB0 JUMP JUMPDEST PUSH1 0x40 MLOAD PUSH2 0x5B SWAP2 SWAP1 PUSH2 0x21E JUMP JUMPDEST PUSH1 0x40 MLOAD DUP1 SWAP2 SUB SWAP1 RETURN JUMPDEST PUSH2 0x7E PUSH1 0x4 DUP1 CALLDATASIZE SUB DUP2 ADD SWAP1 PUSH2 0x79 SWAP2 SWAP1 PUSH2 0x26A JUMP JUMPDEST PUSH2 0xD4 JUMP JUMPDEST PUSH1 0x40 MLOAD PUSH2 0x8B SWAP2 SWAP1 PUSH2 0x2B0 JUMP JUMPDEST PUSH1 0x40 MLOAD DUP1 SWAP2 SUB SWAP1 RETURN JUMPDEST PUSH2 0xAE PUSH1 0x4 DUP1 CALLDATASIZE SUB DUP2 ADD SWAP1 PUSH2 0xA9 SWAP2 SWAP1 PUSH2 0x2F7 JUMP JUMPDEST PUSH2 0x157 JUMP JUMPDEST STOP JUMPDEST PUSH1 0x0 DUP1 SLOAD SWAP1 PUSH2 0x100 EXP SWAP1 DIV PUSH20 0xFFFFFFFFFFFFFFFFFFFFFFFFFFFFFFFFFFFFFFFF AND DUP2 JUMP JUMPDEST PUSH1 0x0 DUP2 PUSH20 0xFFFFFFFFFFFFFFFFFFFFFFFFFFFFFFFFFFFFFFFF AND PUSH4 0x70A08231 ADDRESS PUSH1 0x40 MLOAD DUP3 PUSH4 0xFFFFFFFF AND PUSH1 0xE0 SHL DUP2 MSTORE PUSH1 0x4 ADD PUSH2 0x10F SWAP2 SWAP1 PUSH2 0x21E JUMP JUMPDEST PUSH1 0x20 PUSH1 0x40 MLOAD DUP1 DUP4 SUB DUP2 DUP7 GAS STATICCALL ISZERO DUP1 ISZERO PUSH2 0x12C JUMPI RETURNDATASIZE PUSH1 0x0 DUP1 RETURNDATACOPY RETURNDATASIZE PUSH1 0x0 REVERT JUMPDEST POP POP POP POP PUSH1 0x40 MLOAD RETURNDATASIZE PUSH1 0x1F NOT PUSH1 0x1F DUP3 ADD AND DUP3 ADD DUP1 PUSH1 0x40 MSTORE POP DUP2 ADD SWAP1 PUSH2 0x150 SWAP2 SWAP1 PUSH2 0x35F JUMP JUMPDEST SWAP1 POP SWAP2 SWAP1 POP JUMP JUMPDEST DUP2 PUSH20 0xFFFFFFFFFFFFFFFFFFFFFFFFFFFFFFFFFFFFFFFF AND PUSH4 0x23B872DD DUP5 ADDRESS DUP5 PUSH1 0x40 MLOAD DUP5 PUSH4 0xFFFFFFFF AND PUSH1 0xE0 SHL DUP2 MSTORE PUSH1 0x4 ADD PUSH2 0x194 SWAP4 SWAP3 SWAP2 SWAP1 PUSH2 0x38C JUMP JUMPDEST PUSH1 0x20 PUSH1 0x40 MLOAD DUP1 DUP4 SUB DUP2 PUSH1 0x0 DUP8 GAS CALL ISZERO DUP1 ISZERO PUSH2 0x1B3 JUMPI RETURNDATASIZE PUSH1 0x0 DUP1 RETURNDATACOPY RETURNDATASIZE PUSH1 0x0 REVERT JUMPDEST POP POP POP POP PUSH1 0x40 MLOAD RETURNDATASIZE PUSH1 0x1F NOT PUSH1 0x1F DUP3 ADD AND DUP3 ADD DUP1 PUSH1 0x40 MSTORE POP DUP2 ADD SWAP1 PUSH2 0x1D7 SWAP2 SWAP1 PUSH2 0x3FB JUMP JUMPDEST POP POP POP POP JUMP JUMPDEST PUSH1 0x0 PUSH20 0xFFFFFFFFFFFFFFFFFFFFFFFFFFFFFFFFFFFFFFFF DUP3 AND SWAP1 POP SWAP2 SWAP1 POP JUMP JUMPDEST PUSH1 0x0 PUSH2 0x208 DUP3 PUSH2 0x1DD JUMP JUMPDEST SWAP1 POP SWAP2 SWAP1 POP JUMP JUMPDEST PUSH2 0x218 DUP2 PUSH2 0x1FD JUMP JUMPDEST DUP3 MSTORE POP POP JUMP JUMPDEST PUSH1 0x0 PUSH1 0x20 DUP3 ADD SWAP1 POP PUSH2 0x233 PUSH1 0x0 DUP4 ADD DUP5 PUSH2 0x20F JUMP JUMPDEST SWAP3 SWAP2 POP POP JUMP JUMPDEST PUSH1 0x0 DUP1 REVERT JUMPDEST PUSH2 0x247 DUP2 PUSH2 0x1FD JUMP JUMPDEST DUP2 EQ PUSH2 0x252 JUMPI PUSH1 0x0 DUP1 REVERT JUMPDEST POP JUMP JUMPDEST PUSH1 0x0 DUP2 CALLDATALOAD SWAP1 POP PUSH2 0x264 DUP2 PUSH2 0x23E JUMP JUMPDEST SWAP3 SWAP2 POP POP JUMP JUMPDEST PUSH1 0x0 PUSH1 0x20 DUP3 DUP5 SUB SLT ISZERO PUSH2 0x280 JUMPI PUSH2 0x27F PUSH2 0x239 JUMP JUMPDEST JUMPDEST PUSH1 0x0 PUSH2 0x28E DUP5 DUP3 DUP6 ADD PUSH2 0x255 JUMP JUMPDEST SWAP2 POP POP SWAP3 SWAP2 POP POP JUMP JUMPDEST PUSH1 0x0 DUP2 SWAP1 POP SWAP2 SWAP1 POP JUMP JUMPDEST PUSH2 0x2AA DUP2 PUSH2 0x297 JUMP JUMPDEST DUP3 MSTORE POP POP JUMP JUMPDEST PUSH1 0x0 PUSH1 0x20 DUP3 ADD SWAP1 POP PUSH2 0x2C5 PUSH1 0x0 DUP4 ADD DUP5 PUSH2 0x2A1 JUMP JUMPDEST SWAP3 SWAP2 POP POP JUMP JUMPDEST PUSH2 0x2D4 DUP2 PUSH2 0x297 JUMP JUMPDEST DUP2 EQ PUSH2 0x2DF JUMPI PUSH1 0x0 DUP1 REVERT JUMPDEST POP JUMP JUMPDEST PUSH1 0x0 DUP2 CALLDATALOAD SWAP1 POP PUSH2 0x2F1 DUP2 PUSH2 0x2CB JUMP JUMPDEST SWAP3 SWAP2 POP POP JUMP JUMPDEST PUSH1 0x0 DUP1 PUSH1 0x0 PUSH1 0x60 DUP5 DUP7 SUB SLT ISZERO PUSH2 0x310 JUMPI PUSH2 0x30F PUSH2 0x239 JUMP JUMPDEST JUMPDEST PUSH1 0x0 PUSH2 0x31E DUP7 DUP3 DUP8 ADD PUSH2 0x255 JUMP JUMPDEST SWAP4 POP POP PUSH1 0x20 PUSH2 0x32F DUP7 DUP3 DUP8 ADD PUSH2 0x255 JUMP JUMPDEST SWAP3 POP POP PUSH1 0x40 PUSH2 0x340 DUP7 DUP3 DUP8 ADD PUSH2 0x2E2 JUMP JUMPDEST SWAP2 POP POP SWAP3 POP SWAP3 POP SWAP3 JUMP JUMPDEST PUSH1 0x0 DUP2 MLOAD SWAP1 POP PUSH2 0x359 DUP2 PUSH2 0x2CB JUMP JUMPDEST SWAP3 SWAP2 POP POP JUMP JUMPDEST PUSH1 0x0 PUSH1 0x20 DUP3 DUP5 SUB SLT ISZERO PUSH2 0x375 JUMPI PUSH2 0x374 PUSH2 0x239 JUMP JUMPDEST JUMPDEST PUSH1 0x0 PUSH2 0x383 DUP5 DUP3 DUP6 ADD PUSH2 0x34A JUMP JUMPDEST SWAP2 POP POP SWAP3 SWAP2 POP POP JUMP JUMPDEST PUSH1 0x0 PUSH1 0x60 DUP3 ADD SWAP1 POP PUSH2 0x3A1 PUSH1 0x0 DUP4 ADD DUP7 PUSH2 0x20F JUMP JUMPDEST PUSH2 0x3AE PUSH1 0x20 DUP4 ADD DUP6 PUSH2 0x20F JUMP JUMPDEST PUSH2 0x3BB PUSH1 0x40 DUP4 ADD DUP5 PUSH2 0x2A1 JUMP JUMPDEST SWAP5 SWAP4 POP POP POP POP JUMP JUMPDEST PUSH1 0x0 DUP2 ISZERO ISZERO SWAP1 POP SWAP2 SWAP1 POP JUMP JUMPDEST PUSH2 0x3D8 DUP2 PUSH2 0x3C3 JUMP JUMPDEST DUP2 EQ PUSH2 0x3E3 JUMPI PUSH1 0x0 DUP1 REVERT JUMPDEST POP JUMP JUMPDEST PUSH1 0x0 DUP2 MLOAD SWAP1 POP PUSH2 0x3F5 DUP2 PUSH2 0x3CF JUMP JUMPDEST SWAP3 SWAP2 POP POP JUMP JUMPDEST PUSH1 0x0 PUSH1 0x20 DUP3 DUP5 SUB SLT ISZERO PUSH2 0x411 JUMPI PUSH2 0x410 PUSH2 0x239 JUMP JUMPDEST JUMPDEST PUSH1 0x0 PUSH2 0x41F DUP5 DUP3 DUP6 ADD PUSH2 0x3E6 JUMP JUMPDEST SWAP2 POP POP SWAP3 SWAP2 POP POP JUMP INVALID LOG2 PUSH5 0x6970667358 0x22 SLT KECCAK256 PUSH25 0x5218C59B7C43572A89E71EA62BF79927F4898A6C37117E7CD8 SLOAD 0xEF 0xD2 0x49 0x1E SELFDESTRUCT PUSH5 0x736F6C6343 STOP ADDMOD SLT STOP CALLER "
		},
		"gasEstimates": {
			"creation": {
				"codeDepositCost": "223600",
				"executionCost": "263",
				"totalCost": "223863"
			},
			"external": {
				"getBalanceOfToken(address)": "infinite",
				"manager()": "2489",
				"transferToMe(address,address,uint256)": "infinite"
			}
		},
		"methodIdentifiers": {
			"getBalanceOfToken(address)": "83786f8c",
			"manager()": "481c6a75",
			"transferToMe(address,address,uint256)": "eb454e1b"
		}
	},
	"abi": [
		{
			"inputs": [
				{
					"internalType": "address",
					"name": "_address",
					"type": "address"
				}
			],
			"name": "getBalanceOfToken",
			"outputs": [
				{
					"internalType": "uint256",
					"name": "",
					"type": "uint256"
				}
			],
			"stateMutability": "view",
			"type": "function"
		},
		{
			"inputs": [],
			"name": "manager",
			"outputs": [
				{
					"internalType": "address",
					"name": "",
					"type": "address"
				}
			],
			"stateMutability": "view",
			"type": "function"
		},
		{
			"inputs": [
				{
					"internalType": "address",
					"name": "_owner",
					"type": "address"
				},
				{
					"internalType": "address",
					"name": "_token",
					"type": "address"
				},
				{
					"internalType": "uint256",
					"name": "_amount",
					"type": "uint256"
				}
			],
			"name": "transferToMe",
			"outputs": [],
			"stateMutability": "nonpayable",
			"type": "function"
		}
	]
}